{
  "contractName": "LoanProvider",
  "abi": [
    {
      "inputs": [
        {
          "internalType": "string",
          "name": "baseuri_",
          "type": "string"
        },
        {
          "internalType": "address",
          "name": "loanTokenContract_",
          "type": "address"
        },
        {
          "internalType": "address",
          "name": "stablecoinContract_",
          "type": "address"
        },
        {
          "internalType": "address",
          "name": "walletAddress_",
          "type": "address"
        }
      ],
      "stateMutability": "nonpayable",
      "type": "constructor"
    },
    {
      "anonymous": false,
      "inputs": [
        {
          "indexed": false,
          "internalType": "uint256",
          "name": "id",
          "type": "uint256"
        }
      ],
      "name": "LoanApplicationCreated",
      "type": "event"
    },
    {
      "anonymous": false,
      "inputs": [
        {
          "indexed": false,
          "internalType": "uint256",
          "name": "id",
          "type": "uint256"
        },
        {
          "indexed": false,
          "internalType": "uint256",
          "name": "amount",
          "type": "uint256"
        }
      ],
      "name": "LoanApplicationSupported",
      "type": "event"
    },
    {
      "anonymous": false,
      "inputs": [
        {
          "indexed": true,
          "internalType": "address",
          "name": "previousOwner",
          "type": "address"
        },
        {
          "indexed": true,
          "internalType": "address",
          "name": "newOwner",
          "type": "address"
        }
      ],
      "name": "OwnershipTransferred",
      "type": "event"
    },
    {
      "inputs": [
        {
          "internalType": "uint256",
          "name": "",
          "type": "uint256"
        }
      ],
      "name": "escrows",
      "outputs": [
        {
          "internalType": "uint256",
          "name": "tokenAmount",
          "type": "uint256"
        },
        {
          "internalType": "uint256",
          "name": "tokenReceived",
          "type": "uint256"
        },
        {
          "internalType": "address",
          "name": "recipient",
          "type": "address"
        }
      ],
      "stateMutability": "view",
      "type": "function",
      "constant": true
    },
    {
      "inputs": [],
      "name": "owner",
      "outputs": [
        {
          "internalType": "address",
          "name": "",
          "type": "address"
        }
      ],
      "stateMutability": "view",
      "type": "function",
      "constant": true
    },
    {
      "inputs": [],
      "name": "renounceOwnership",
      "outputs": [],
      "stateMutability": "nonpayable",
      "type": "function"
    },
    {
      "inputs": [
        {
          "internalType": "address",
          "name": "newOwner",
          "type": "address"
        }
      ],
      "name": "transferOwnership",
      "outputs": [],
      "stateMutability": "nonpayable",
      "type": "function"
    },
    {
      "inputs": [
        {
          "internalType": "uint256",
          "name": "tokenAmount",
          "type": "uint256"
        },
        {
          "internalType": "uint256",
          "name": "rate",
          "type": "uint256"
        }
      ],
      "name": "createLoan",
      "outputs": [
        {
          "internalType": "uint256",
          "name": "",
          "type": "uint256"
        }
      ],
      "stateMutability": "nonpayable",
      "type": "function"
    },
    {
      "inputs": [
        {
          "internalType": "uint256",
          "name": "loanID",
          "type": "uint256"
        },
        {
          "internalType": "uint256",
          "name": "amount",
          "type": "uint256"
        }
      ],
      "name": "supportLoan",
      "outputs": [],
      "stateMutability": "nonpayable",
      "type": "function"
    },
    {
      "inputs": [
        {
          "internalType": "uint256",
          "name": "loanID",
          "type": "uint256"
        }
      ],
      "name": "claimPrinciple",
      "outputs": [],
      "stateMutability": "nonpayable",
      "type": "function"
    },
    {
      "inputs": [
        {
          "internalType": "uint256",
          "name": "_amount",
          "type": "uint256"
        },
        {
          "internalType": "uint256",
          "name": "_loanID",
          "type": "uint256"
        }
      ],
      "name": "makePayment",
      "outputs": [],
      "stateMutability": "nonpayable",
      "type": "function"
    },
    {
      "inputs": [
        {
          "internalType": "address",
          "name": "_to",
          "type": "address"
        },
        {
          "internalType": "uint256",
          "name": "_amount",
          "type": "uint256"
        }
      ],
      "name": "allocateStablecoinProxy",
      "outputs": [],
      "stateMutability": "nonpayable",
      "type": "function"
    },
    {
      "inputs": [
        {
          "internalType": "string",
          "name": "_newUri",
          "type": "string"
        }
      ],
      "name": "setURI",
      "outputs": [],
      "stateMutability": "nonpayable",
      "type": "function"
    }
  ],
  "bytecode": "0x608060405260006005553480156200001657600080fd5b5060405162001f1038038062001f1083398181016040528101906200003c919062000313565b60006200004e620001d260201b60201c565b9050806000806101000a81548173ffffffffffffffffffffffffffffffffffffffff021916908373ffffffffffffffffffffffffffffffffffffffff1602179055508073ffffffffffffffffffffffffffffffffffffffff16600073ffffffffffffffffffffffffffffffffffffffff167f8be0079c531659141344cd1fd0a4f28419497f9722a3daafe3b4186f6b6457e060405160405180910390a350836001908051906020019062000104929190620001da565b5082600260006101000a81548173ffffffffffffffffffffffffffffffffffffffff021916908373ffffffffffffffffffffffffffffffffffffffff16021790555081600360006101000a81548173ffffffffffffffffffffffffffffffffffffffff021916908373ffffffffffffffffffffffffffffffffffffffff16021790555080600460006101000a81548173ffffffffffffffffffffffffffffffffffffffff021916908373ffffffffffffffffffffffffffffffffffffffff1602179055505050505062000556565b600033905090565b828054620001e89062000461565b90600052602060002090601f0160209004810192826200020c576000855562000258565b82601f106200022757805160ff191683800117855562000258565b8280016001018555821562000258579182015b82811115620002575782518255916020019190600101906200023a565b5b5090506200026791906200026b565b5090565b5b80821115620002865760008160009055506001016200026c565b5090565b6000620002a16200029b84620003c1565b62000398565b905082815260208101848484011115620002ba57600080fd5b620002c78482856200042b565b509392505050565b600081519050620002e0816200053c565b92915050565b600082601f830112620002f857600080fd5b81516200030a8482602086016200028a565b91505092915050565b600080600080608085870312156200032a57600080fd5b600085015167ffffffffffffffff8111156200034557600080fd5b6200035387828801620002e6565b94505060206200036687828801620002cf565b93505060406200037987828801620002cf565b92505060606200038c87828801620002cf565b91505092959194509250565b6000620003a4620003b7565b9050620003b2828262000497565b919050565b6000604051905090565b600067ffffffffffffffff821115620003df57620003de620004fc565b5b620003ea826200052b565b9050602081019050919050565b600062000404826200040b565b9050919050565b600073ffffffffffffffffffffffffffffffffffffffff82169050919050565b60005b838110156200044b5780820151818401526020810190506200042e565b838111156200045b576000848401525b50505050565b600060028204905060018216806200047a57607f821691505b60208210811415620004915762000490620004cd565b5b50919050565b620004a2826200052b565b810181811067ffffffffffffffff82111715620004c457620004c3620004fc565b5b80604052505050565b7f4e487b7100000000000000000000000000000000000000000000000000000000600052602260045260246000fd5b7f4e487b7100000000000000000000000000000000000000000000000000000000600052604160045260246000fd5b6000601f19601f8301169050919050565b6200054781620003f7565b81146200055357600080fd5b50565b6119aa80620005666000396000f3fe608060405234801561001057600080fd5b506004361061009e5760003560e01c8063a09ef15111610066578063a09ef15114610149578063a783e09814610165578063c228ba1314610181578063d390f9741461019d578063f2fde38b146101b95761009e565b8063012f52ee146100a357806302fe5305146100d5578063715018a6146100f15780638da5cb5b146100fb57806398cd90b514610119575b600080fd5b6100bd60048036038101906100b89190611304565b6101d5565b6040516100cc939291906115c2565b60405180910390f35b6100ef60048036038101906100ea91906112c3565b61021f565b005b6100f96102b5565b005b6101036103ef565b6040516101109190611419565b60405180910390f35b610133600480360381019061012e9190611356565b610418565b604051610140919061152b565b60405180910390f35b610163600480360381019061015e9190611304565b61068d565b005b61017f600480360381019061017a919061125e565b610813565b005b61019b60048036038101906101969190611356565b610938565b005b6101b760048036038101906101b29190611356565b610c2f565b005b6101d360048036038101906101ce9190611235565b610ea8565b005b60066020528060005260406000206000915090508060000154908060010154908060020160009054906101000a900473ffffffffffffffffffffffffffffffffffffffff16905083565b610227611051565b73ffffffffffffffffffffffffffffffffffffffff166102456103ef565b73ffffffffffffffffffffffffffffffffffffffff161461029b576040517f08c379a0000000000000000000000000000000000000000000000000000000008152600401610292906114eb565b60405180910390fd5b80600190805190602001906102b19291906110d6565b5050565b6102bd611051565b73ffffffffffffffffffffffffffffffffffffffff166102db6103ef565b73ffffffffffffffffffffffffffffffffffffffff1614610331576040517f08c379a0000000000000000000000000000000000000000000000000000000008152600401610328906114eb565b60405180910390fd5b600073ffffffffffffffffffffffffffffffffffffffff1660008054906101000a900473ffffffffffffffffffffffffffffffffffffffff1673ffffffffffffffffffffffffffffffffffffffff167f8be0079c531659141344cd1fd0a4f28419497f9722a3daafe3b4186f6b6457e060405160405180910390a360008060006101000a81548173ffffffffffffffffffffffffffffffffffffffff021916908373ffffffffffffffffffffffffffffffffffffffff160217905550565b60008060009054906101000a900473ffffffffffffffffffffffffffffffffffffffff16905090565b60008060055490506040518060600160405280858152602001600081526020013373ffffffffffffffffffffffffffffffffffffffff1681525060066000838152602001908152602001600020600082015181600001556020820151816001015560408201518160020160006101000a81548173ffffffffffffffffffffffffffffffffffffffff021916908373ffffffffffffffffffffffffffffffffffffffff1602179055509050506001600560008282546104d69190611660565b925050819055507f6ae7d5d2e4c83f7a1515fc358772fba4ca2e2ee6bef778819a0e1e28d59b712a8160405161050c919061152b565b60405180910390a16000610541600260009054906101000a900473ffffffffffffffffffffffffffffffffffffffff16611059565b90508073ffffffffffffffffffffffffffffffffffffffff16639dd22a3e8330600460009054906101000a900473ffffffffffffffffffffffffffffffffffffffff1689896040518663ffffffff1660e01b81526004016105a6959493929190611546565b600060405180830381600087803b1580156105c057600080fd5b505af11580156105d4573d6000803e3d6000fd5b50505050806007600084815260200190815260200160002060006101000a81548173ffffffffffffffffffffffffffffffffffffffff021916908373ffffffffffffffffffffffffffffffffffffffff1602179055506001600860008373ffffffffffffffffffffffffffffffffffffffff1673ffffffffffffffffffffffffffffffffffffffff16815260200190815260200160002060006101000a81548160ff021916908315150217905550819250505092915050565b600554811061069b57600080fd5b3373ffffffffffffffffffffffffffffffffffffffff166006600083815260200190815260200160002060020160009054906101000a900473ffffffffffffffffffffffffffffffffffffffff1673ffffffffffffffffffffffffffffffffffffffff161461070957600080fd5b600660008281526020019081526020016000206001015460066000838152602001908152602001600020600001541461074157600080fd5b6000600460009054906101000a900473ffffffffffffffffffffffffffffffffffffffff1690508073ffffffffffffffffffffffffffffffffffffffff1663dbba0f01336006600086815260200190815260200160002060000154600360009054906101000a900473ffffffffffffffffffffffffffffffffffffffff166040518463ffffffff1660e01b81526004016107dd93929190611494565b600060405180830381600087803b1580156107f757600080fd5b505af115801561080b573d6000803e3d6000fd5b505050505050565b600860003373ffffffffffffffffffffffffffffffffffffffff1673ffffffffffffffffffffffffffffffffffffffff16815260200190815260200160002060009054906101000a900460ff1661089f576040517f08c379a00000000000000000000000000000000000000000000000000000000081526004016108969061150b565b60405180910390fd5b6000600460009054906101000a900473ffffffffffffffffffffffffffffffffffffffff1690508073ffffffffffffffffffffffffffffffffffffffff1663959e94df84846040518363ffffffff1660e01b815260040161090192919061146b565b600060405180830381600087803b15801561091b57600080fd5b505af115801561092f573d6000803e3d6000fd5b50505050505050565b600554821061094657600080fd5b600060066000848152602001908152602001600020600001541161096957600080fd5b60066000838152602001908152602001600020600101546006600084815260200190815260200160002060000154116109a157600080fd5b600081905081600660008581526020019081526020016000206001015460066000868152602001908152602001600020600001546109df91906116b6565b1015610a205760066000848152602001908152602001600020600101546006600085815260200190815260200160002060000154610a1d91906116b6565b90505b6000600360009054906101000a900473ffffffffffffffffffffffffffffffffffffffff1690508073ffffffffffffffffffffffffffffffffffffffff166323b872dd33600460009054906101000a900473ffffffffffffffffffffffffffffffffffffffff16866040518463ffffffff1660e01b8152600401610aa693929190611434565b602060405180830381600087803b158015610ac057600080fd5b505af1158015610ad4573d6000803e3d6000fd5b505050506040513d601f19601f82011682018060405250810190610af8919061129a565b5081600660008681526020019081526020016000206001016000828254610b1f9190611660565b925050819055506000600460009054906101000a900473ffffffffffffffffffffffffffffffffffffffff1690508073ffffffffffffffffffffffffffffffffffffffff1663dbba0f013386600760008a815260200190815260200160002060009054906101000a900473ffffffffffffffffffffffffffffffffffffffff166040518463ffffffff1660e01b8152600401610bbd93929190611494565b600060405180830381600087803b158015610bd757600080fd5b505af1158015610beb573d6000803e3d6000fd5b505050507f2048bf7de536ede15bdb393f3db10e18ee461090484ae875114977320d2fd7318584604051610c20929190611599565b60405180910390a15050505050565b6005548110610c3d57600080fd5b6006600082815260200190815260200160002060010154600660008381526020019081526020016000206000015414610c7557600080fd5b60006007600083815260200190815260200160002060009054906101000a900473ffffffffffffffffffffffffffffffffffffffff16905060008173ffffffffffffffffffffffffffffffffffffffff1663cca05b4a436040518263ffffffff1660e01b8152600401610ce8919061152b565b60206040518083038186803b158015610d0057600080fd5b505afa158015610d14573d6000803e3d6000fd5b505050506040513d601f19601f82011682018060405250810190610d38919061132d565b905060008111610d4757600080fd5b6000818510610d565781610d58565b845b90506000600360009054906101000a900473ffffffffffffffffffffffffffffffffffffffff1690508073ffffffffffffffffffffffffffffffffffffffff166323b872dd33600460009054906101000a900473ffffffffffffffffffffffffffffffffffffffff16856040518463ffffffff1660e01b8152600401610de093929190611434565b602060405180830381600087803b158015610dfa57600080fd5b505af1158015610e0e573d6000803e3d6000fd5b505050506040513d601f19601f82011682018060405250810190610e32919061129a565b508373ffffffffffffffffffffffffffffffffffffffff1663df9d58ff83436040518363ffffffff1660e01b8152600401610e6e929190611599565b600060405180830381600087803b158015610e8857600080fd5b505af1158015610e9c573d6000803e3d6000fd5b50505050505050505050565b610eb0611051565b73ffffffffffffffffffffffffffffffffffffffff16610ece6103ef565b73ffffffffffffffffffffffffffffffffffffffff1614610f24576040517f08c379a0000000000000000000000000000000000000000000000000000000008152600401610f1b906114eb565b60405180910390fd5b600073ffffffffffffffffffffffffffffffffffffffff168173ffffffffffffffffffffffffffffffffffffffff161415610f94576040517f08c379a0000000000000000000000000000000000000000000000000000000008152600401610f8b906114cb565b60405180910390fd5b8073ffffffffffffffffffffffffffffffffffffffff1660008054906101000a900473ffffffffffffffffffffffffffffffffffffffff1673ffffffffffffffffffffffffffffffffffffffff167f8be0079c531659141344cd1fd0a4f28419497f9722a3daafe3b4186f6b6457e060405160405180910390a3806000806101000a81548173ffffffffffffffffffffffffffffffffffffffff021916908373ffffffffffffffffffffffffffffffffffffffff16021790555050565b600033905090565b60008060108360601b6bffffffffffffffffffffffff1916901b90506040517f3d602b80600a3d3981f3363d3d373d3d3d363d7100000000000000000000000081528160148201527f5af43d82803e903d91602957fd5bf3000000000000000000000000000000000060268201526035816000f092505050919050565b8280546110e290611741565b90600052602060002090601f016020900481019282611104576000855561114b565b82601f1061111d57805160ff191683800117855561114b565b8280016001018555821561114b579182015b8281111561114a57825182559160200191906001019061112f565b5b509050611158919061115c565b5090565b5b8082111561117557600081600090555060010161115d565b5090565b600061118c6111878461161e565b6115f9565b9050828152602081018484840111156111a457600080fd5b6111af848285611732565b509392505050565b6000813590506111c68161192f565b92915050565b6000815190506111db81611946565b92915050565b600082601f8301126111f257600080fd5b8135611202848260208601611179565b91505092915050565b60008135905061121a8161195d565b92915050565b60008151905061122f8161195d565b92915050565b60006020828403121561124757600080fd5b6000611255848285016111b7565b91505092915050565b6000806040838503121561127157600080fd5b600061127f858286016111b7565b92505060206112908582860161120b565b9150509250929050565b6000602082840312156112ac57600080fd5b60006112ba848285016111cc565b91505092915050565b6000602082840312156112d557600080fd5b600082013567ffffffffffffffff8111156112ef57600080fd5b6112fb848285016111e1565b91505092915050565b60006020828403121561131657600080fd5b60006113248482850161120b565b91505092915050565b60006020828403121561133f57600080fd5b600061134d84828501611220565b91505092915050565b6000806040838503121561136957600080fd5b60006113778582860161120b565b92505060206113888582860161120b565b9150509250929050565b61139b816116ea565b82525050565b60006113ae60268361164f565b91506113b982611842565b604082019050919050565b60006113d160208361164f565b91506113dc82611891565b602082019050919050565b60006113f460438361164f565b91506113ff826118ba565b606082019050919050565b61141381611728565b82525050565b600060208201905061142e6000830184611392565b92915050565b60006060820190506114496000830186611392565b6114566020830185611392565b611463604083018461140a565b949350505050565b60006040820190506114806000830185611392565b61148d602083018461140a565b9392505050565b60006060820190506114a96000830186611392565b6114b6602083018561140a565b6114c36040830184611392565b949350505050565b600060208201905081810360008301526114e4816113a1565b9050919050565b60006020820190508181036000830152611504816113c4565b9050919050565b60006020820190508181036000830152611524816113e7565b9050919050565b6000602082019050611540600083018461140a565b92915050565b600060a08201905061155b600083018861140a565b6115686020830187611392565b6115756040830186611392565b611582606083018561140a565b61158f608083018461140a565b9695505050505050565b60006040820190506115ae600083018561140a565b6115bb602083018461140a565b9392505050565b60006060820190506115d7600083018661140a565b6115e4602083018561140a565b6115f16040830184611392565b949350505050565b6000611603611614565b905061160f8282611773565b919050565b6000604051905090565b600067ffffffffffffffff82111561163957611638611802565b5b61164282611831565b9050602081019050919050565b600082825260208201905092915050565b600061166b82611728565b915061167683611728565b9250827fffffffffffffffffffffffffffffffffffffffffffffffffffffffffffffffff038211156116ab576116aa6117a4565b5b828201905092915050565b60006116c182611728565b91506116cc83611728565b9250828210156116df576116de6117a4565b5b828203905092915050565b60006116f582611708565b9050919050565b60008115159050919050565b600073ffffffffffffffffffffffffffffffffffffffff82169050919050565b6000819050919050565b82818337600083830152505050565b6000600282049050600182168061175957607f821691505b6020821081141561176d5761176c6117d3565b5b50919050565b61177c82611831565b810181811067ffffffffffffffff8211171561179b5761179a611802565b5b80604052505050565b7f4e487b7100000000000000000000000000000000000000000000000000000000600052601160045260246000fd5b7f4e487b7100000000000000000000000000000000000000000000000000000000600052602260045260246000fd5b7f4e487b7100000000000000000000000000000000000000000000000000000000600052604160045260246000fd5b6000601f19601f8301169050919050565b7f4f776e61626c653a206e6577206f776e657220697320746865207a65726f206160008201527f6464726573730000000000000000000000000000000000000000000000000000602082015250565b7f4f776e61626c653a2063616c6c6572206973206e6f7420746865206f776e6572600082015250565b7f4c6f616e50726f76696465723a2050726f78792063616e206f6e6c792062652060008201527f63616c6c65642066726f6d2076616c696420446563656e74204c6f616e20546f60208201527f6b656e0000000000000000000000000000000000000000000000000000000000604082015250565b611938816116ea565b811461194357600080fd5b50565b61194f816116fc565b811461195a57600080fd5b50565b61196681611728565b811461197157600080fd5b5056fea2646970667358221220ec31cff7b4f825434c4a94e2ab834f4f82fb3c181c0a10e669e4f142d3235e8f64736f6c63430008030033",
  "immutableReferences": {},
  "source": "//SPDX-License-Identifier: MIT\npragma solidity ^0.8.3;\n\nimport \"./Wallet.sol\";\nimport \"./CloneFactory18.sol\";\nimport \"./LoanToken.sol\";\nimport \"@openzeppelin/contracts/access/Ownable.sol\";\nimport \"@openzeppelin/contracts/token/ERC20/IERC20.sol\";\nimport \"@openzeppelin/contracts/utils/Strings.sol\";\n\n/**\n * @author Jack Proudfoot\n * @dev Primary contract for providing Decent Loans. Handles loan applications, Decent Loan Token creation, loan payments, and distribution payments.\n *\n * Escrow functionality inspired by: https://github.com/axic/ethereum-tokenescrow/blob/master/tokenescrow.sol\n */\ncontract LoanProvider is Ownable, CloneFactory18 {\n    string private _baseuri;\n\n    address private _loanTokenContract;\n    address private _stablecoinContract;\n    address private _walletAddress;\n\n    uint256 private _totalApplications = 0;\n\n    mapping (uint256 => Escrow) public escrows;\n\n    mapping (uint256 => address) _loanTokens;\n    mapping (address => bool) _validToken;\n\n    struct Escrow {\n        uint256 tokenAmount;\n        uint256 tokenReceived;\n        address recipient;\n    }\n\n    event LoanApplicationCreated(uint256 id);\n    event LoanApplicationSupported(uint256 id, uint256 amount);\n\n\n    /**\n    * @dev Sets the values for {baseuri} and {loanTokenContract}\n    */\n    constructor (string memory baseuri_, address loanTokenContract_, address stablecoinContract_, address walletAddress_) {\n        _baseuri = baseuri_;\n        _loanTokenContract = loanTokenContract_;\n        _stablecoinContract = stablecoinContract_;\n        _walletAddress = walletAddress_;\n    }\n\n    /** \n    * @dev Create a new loan application with principle balance of `tokenAmount` and rate of `rate`\n    */\n    function createLoan(uint256 tokenAmount, uint256 rate) public returns (uint256) {\n        uint256 _loanID = _totalApplications;\n        \n        escrows[_loanID] = Escrow(tokenAmount, 0, msg.sender);\n\n        _totalApplications += 1;\n\n        LoanApplicationCreated(_loanID);\n\n        address _newLoanToken = createClone(_loanTokenContract);\n        LoanToken(_newLoanToken).init(_loanID, address(this), _walletAddress, tokenAmount, rate);\n        \n        _loanTokens[_loanID] = _newLoanToken;\n        _validToken[_newLoanToken] = true;\n\n        return _loanID;\n    }\n\n    /** \n    * @dev Provide `amount` tokens to the escrow for loan `loanID` in exchange for Decent Loan Tokens\n    */\n    function supportLoan(uint256 loanID, uint256 amount) public {\n        require(loanID < _totalApplications);\n        require(escrows[loanID].tokenAmount > 0);\n        require(escrows[loanID].tokenAmount > escrows[loanID].tokenReceived);\n\n        uint256 balanceToSend = amount;\n        if (escrows[loanID].tokenAmount - escrows[loanID].tokenReceived < amount) {\n            balanceToSend = escrows[loanID].tokenAmount - escrows[loanID].tokenReceived;\n        }\n\n        IERC20 token = IERC20(_stablecoinContract);\n\n        // transfer stablecoin tokens to this smart contract\n        token.transferFrom(msg.sender, _walletAddress, amount);\n\n        escrows[loanID].tokenReceived += balanceToSend;\n\n        // transfer DLT to the lender\n        Wallet wallet = Wallet(_walletAddress);\n        wallet.transfer(msg.sender, amount, _loanTokens[loanID]);\n\n        LoanApplicationSupported(loanID, balanceToSend);\n    }\n\n    /**\n    * @dev Used by the loan recipient to claim the principle of loan with ID `loanID`\n    */\n    function claimPrinciple(uint256 loanID) public {\n        require(loanID < _totalApplications);\n        require(escrows[loanID].recipient == msg.sender);   // only allow recipient to claim principle\n        require(escrows[loanID].tokenAmount == escrows[loanID].tokenReceived);  // only allow principle to be claimed when fully supported\n\n        // unlock DLT\n\n        Wallet wallet = Wallet(_walletAddress);\n        wallet.transfer(msg.sender, escrows[loanID].tokenAmount, _stablecoinContract);\n    }\n\n    \n    /**\n    * @dev Makes a payment of `amount` for loan with ID `loanID`\n    */\n    function makePayment(uint256 _amount, uint256 _loanID) public {\n        require(_loanID < _totalApplications);\n        require(escrows[_loanID].tokenAmount == escrows[_loanID].tokenReceived);\n\n        LoanToken loanToken = LoanToken(_loanTokens[_loanID]);\n        uint256 currentBalance = loanToken.balanceAtBlock(block.number);\n        require(currentBalance > 0);\n\n        uint256 payment = _amount < currentBalance ? _amount : currentBalance;\n\n        IERC20 stablecoin = IERC20(_stablecoinContract);\n        stablecoin.transferFrom(msg.sender, _walletAddress, payment);\n\n        loanToken.processPayment(payment, block.number);\n    }\n\n    /**\n    * @dev Acts as a proxy for updating unclaimed stablecoin balances from DLTs\n    */\n    function allocateStablecoinProxy(address _to, uint256 _amount) public {\n        require(_validToken[msg.sender], \"LoanProvider: Proxy can only be called from valid Decent Loan Token\");\n\n        Wallet wallet = Wallet(_walletAddress);\n        wallet.allocateStablecoins(_to, _amount);\n    }\n\n\n    // /* Get the URI for the loan application data */\n    // function getURI(uint256 applicationID) public view returns (string memory) {\n    //     return string(abi.encodePacked(_baseuri, applicationID.toString()));\n    // }\n\n    /* Sets the base uri for the loan application data */\n    function setURI(string memory _newUri) public onlyOwner {\n        _baseuri = _newUri;\n    }\n\n}",
  "sourcePath": "/Users/jack/Coursework/blockchain-final-project/contracts/LoanProvider.sol",
  "compiler": {
    "name": "solc",
    "version": "0.8.3+commit.8d00100c.Emscripten.clang"
  },
  "schemaVersion": "3.3.4",
  "updatedAt": "2021-04-19T01:35:03.258Z",
  "networkType": "ethereum",
  "devdoc": {
    "author": "Jack Proudfoot",
    "details": "Primary contract for providing Decent Loans. Handles loan applications, Decent Loan Token creation, loan payments, and distribution payments. Escrow functionality inspired by: https://github.com/axic/ethereum-tokenescrow/blob/master/tokenescrow.sol",
    "kind": "dev",
    "methods": {
      "allocateStablecoinProxy(address,uint256)": {
        "details": "Acts as a proxy for updating unclaimed stablecoin balances from DLTs"
      },
      "claimPrinciple(uint256)": {
        "details": "Used by the loan recipient to claim the principle of loan with ID `loanID`"
      },
      "constructor": {
        "details": "Sets the values for {baseuri} and {loanTokenContract}"
      },
      "createLoan(uint256,uint256)": {
        "details": "Create a new loan application with principle balance of `tokenAmount` and rate of `rate`"
      },
      "makePayment(uint256,uint256)": {
        "details": "Makes a payment of `amount` for loan with ID `loanID`"
      },
      "owner()": {
        "details": "Returns the address of the current owner."
      },
      "renounceOwnership()": {
        "details": "Leaves the contract without owner. It will not be possible to call `onlyOwner` functions anymore. Can only be called by the current owner. NOTE: Renouncing ownership will leave the contract without an owner, thereby removing any functionality that is only available to the owner."
      },
      "supportLoan(uint256,uint256)": {
        "details": "Provide `amount` tokens to the escrow for loan `loanID` in exchange for Decent Loan Tokens"
      },
      "transferOwnership(address)": {
        "details": "Transfers ownership of the contract to a new account (`newOwner`). Can only be called by the current owner."
      }
    },
    "version": 1
  },
  "userdoc": {
    "kind": "user",
    "methods": {},
    "version": 1
  }
}