{
  "contractName": "LoanToken",
  "abi": [
    {
      "inputs": [],
      "stateMutability": "nonpayable",
      "type": "constructor"
    },
    {
      "anonymous": false,
      "inputs": [
        {
          "indexed": true,
          "internalType": "address",
          "name": "owner",
          "type": "address"
        },
        {
          "indexed": true,
          "internalType": "address",
          "name": "spender",
          "type": "address"
        },
        {
          "indexed": false,
          "internalType": "uint256",
          "name": "value",
          "type": "uint256"
        }
      ],
      "name": "Approval",
      "type": "event"
    },
    {
      "anonymous": false,
      "inputs": [
        {
          "indexed": true,
          "internalType": "address",
          "name": "from",
          "type": "address"
        },
        {
          "indexed": true,
          "internalType": "address",
          "name": "to",
          "type": "address"
        },
        {
          "indexed": false,
          "internalType": "uint256",
          "name": "value",
          "type": "uint256"
        }
      ],
      "name": "Transfer",
      "type": "event"
    },
    {
      "inputs": [
        {
          "internalType": "address",
          "name": "owner",
          "type": "address"
        },
        {
          "internalType": "address",
          "name": "spender",
          "type": "address"
        }
      ],
      "name": "allowance",
      "outputs": [
        {
          "internalType": "uint256",
          "name": "",
          "type": "uint256"
        }
      ],
      "stateMutability": "view",
      "type": "function",
      "constant": true
    },
    {
      "inputs": [
        {
          "internalType": "address",
          "name": "spender",
          "type": "address"
        },
        {
          "internalType": "uint256",
          "name": "amount",
          "type": "uint256"
        }
      ],
      "name": "approve",
      "outputs": [
        {
          "internalType": "bool",
          "name": "",
          "type": "bool"
        }
      ],
      "stateMutability": "nonpayable",
      "type": "function"
    },
    {
      "inputs": [
        {
          "internalType": "address",
          "name": "account",
          "type": "address"
        }
      ],
      "name": "balanceOf",
      "outputs": [
        {
          "internalType": "uint256",
          "name": "",
          "type": "uint256"
        }
      ],
      "stateMutability": "view",
      "type": "function",
      "constant": true
    },
    {
      "inputs": [],
      "name": "decimals",
      "outputs": [
        {
          "internalType": "uint8",
          "name": "",
          "type": "uint8"
        }
      ],
      "stateMutability": "view",
      "type": "function",
      "constant": true
    },
    {
      "inputs": [
        {
          "internalType": "address",
          "name": "spender",
          "type": "address"
        },
        {
          "internalType": "uint256",
          "name": "subtractedValue",
          "type": "uint256"
        }
      ],
      "name": "decreaseAllowance",
      "outputs": [
        {
          "internalType": "bool",
          "name": "",
          "type": "bool"
        }
      ],
      "stateMutability": "nonpayable",
      "type": "function"
    },
    {
      "inputs": [
        {
          "internalType": "address",
          "name": "spender",
          "type": "address"
        },
        {
          "internalType": "uint256",
          "name": "addedValue",
          "type": "uint256"
        }
      ],
      "name": "increaseAllowance",
      "outputs": [
        {
          "internalType": "bool",
          "name": "",
          "type": "bool"
        }
      ],
      "stateMutability": "nonpayable",
      "type": "function"
    },
    {
      "inputs": [],
      "name": "name",
      "outputs": [
        {
          "internalType": "string",
          "name": "",
          "type": "string"
        }
      ],
      "stateMutability": "view",
      "type": "function",
      "constant": true
    },
    {
      "inputs": [],
      "name": "symbol",
      "outputs": [
        {
          "internalType": "string",
          "name": "",
          "type": "string"
        }
      ],
      "stateMutability": "view",
      "type": "function",
      "constant": true
    },
    {
      "inputs": [],
      "name": "totalSupply",
      "outputs": [
        {
          "internalType": "uint256",
          "name": "",
          "type": "uint256"
        }
      ],
      "stateMutability": "view",
      "type": "function",
      "constant": true
    },
    {
      "inputs": [
        {
          "internalType": "address",
          "name": "recipient",
          "type": "address"
        },
        {
          "internalType": "uint256",
          "name": "amount",
          "type": "uint256"
        }
      ],
      "name": "transfer",
      "outputs": [
        {
          "internalType": "bool",
          "name": "",
          "type": "bool"
        }
      ],
      "stateMutability": "nonpayable",
      "type": "function"
    },
    {
      "inputs": [
        {
          "internalType": "address",
          "name": "sender",
          "type": "address"
        },
        {
          "internalType": "address",
          "name": "recipient",
          "type": "address"
        },
        {
          "internalType": "uint256",
          "name": "amount",
          "type": "uint256"
        }
      ],
      "name": "transferFrom",
      "outputs": [
        {
          "internalType": "bool",
          "name": "",
          "type": "bool"
        }
      ],
      "stateMutability": "nonpayable",
      "type": "function"
    },
    {
      "inputs": [
        {
          "internalType": "uint256",
          "name": "loanID_",
          "type": "uint256"
        },
        {
          "internalType": "address",
          "name": "loanProviderContract_",
          "type": "address"
        },
        {
          "internalType": "address",
          "name": "walletContract_",
          "type": "address"
        },
        {
          "internalType": "uint256",
          "name": "amount_",
          "type": "uint256"
        },
        {
          "internalType": "uint256",
          "name": "rate_",
          "type": "uint256"
        }
      ],
      "name": "init",
      "outputs": [],
      "stateMutability": "nonpayable",
      "type": "function"
    },
    {
      "inputs": [
        {
          "internalType": "address",
          "name": "_lender",
          "type": "address"
        }
      ],
      "name": "updateDistributions",
      "outputs": [],
      "stateMutability": "nonpayable",
      "type": "function"
    },
    {
      "inputs": [
        {
          "internalType": "address",
          "name": "_lender",
          "type": "address"
        }
      ],
      "name": "distributionsOwed",
      "outputs": [
        {
          "internalType": "uint256",
          "name": "",
          "type": "uint256"
        }
      ],
      "stateMutability": "view",
      "type": "function",
      "constant": true
    },
    {
      "inputs": [
        {
          "internalType": "uint256",
          "name": "_blockNumber",
          "type": "uint256"
        }
      ],
      "name": "balanceAtBlock",
      "outputs": [
        {
          "internalType": "uint256",
          "name": "",
          "type": "uint256"
        }
      ],
      "stateMutability": "view",
      "type": "function",
      "constant": true
    },
    {
      "inputs": [],
      "name": "currentBalance",
      "outputs": [
        {
          "internalType": "uint256",
          "name": "",
          "type": "uint256"
        }
      ],
      "stateMutability": "view",
      "type": "function",
      "constant": true
    },
    {
      "inputs": [
        {
          "internalType": "uint256",
          "name": "_amount",
          "type": "uint256"
        },
        {
          "internalType": "uint256",
          "name": "_blockNumber",
          "type": "uint256"
        }
      ],
      "name": "processPayment",
      "outputs": [],
      "stateMutability": "nonpayable",
      "type": "function"
    },
    {
      "inputs": [],
      "name": "getLoanID",
      "outputs": [
        {
          "internalType": "uint256",
          "name": "",
          "type": "uint256"
        }
      ],
      "stateMutability": "view",
      "type": "function",
      "constant": true
    }
  ],
  "bytecode": "0x60806040523480156200001157600080fd5b506040518060400160405280601181526020017f446563656e74204c6f616e20546f6b656e0000000000000000000000000000008152506040518060400160405280600381526020017f444c540000000000000000000000000000000000000000000000000000000000815250816003908051906020019062000096929190620000d3565b508060049080519060200190620000af929190620000d3565b5050506000600f60006101000a81548160ff021916908315150217905550620001e8565b828054620000e19062000183565b90600052602060002090601f01602090048101928262000105576000855562000151565b82601f106200012057805160ff191683800117855562000151565b8280016001018555821562000151579182015b828111156200015057825182559160200191906001019062000133565b5b50905062000160919062000164565b5090565b5b808211156200017f57600081600090555060010162000165565b5090565b600060028204905060018216806200019c57607f821691505b60208210811415620001b357620001b2620001b9565b5b50919050565b7f4e487b7100000000000000000000000000000000000000000000000000000000600052602260045260246000fd5b61224780620001f86000396000f3fe608060405234801561001057600080fd5b50600436106101165760003560e01c8063a457c2d7116100a2578063ce845d1d11610071578063ce845d1d1461031d578063dd62ed3e1461033b578063df9d58ff1461036b578063eb73279014610387578063f9db919a146103a357610116565b8063a457c2d71461026f578063a9059cbb1461029f578063bacccf98146102cf578063cca05b4a146102ed57610116565b8063313ce567116100e9578063313ce567146101b757806339509351146101d557806370a082311461020557806395d89b41146102355780639dd22a3e1461025357610116565b806306fdde031461011b578063095ea7b31461013957806318160ddd1461016957806323b872dd14610187575b600080fd5b6101236103d3565b60405161013091906118b2565b60405180910390f35b610153600480360381019061014e9190611583565b610465565b6040516101609190611897565b60405180910390f35b610171610483565b60405161017e9190611a14565b60405180910390f35b6101a1600480360381019061019c9190611534565b61048d565b6040516101ae9190611897565b60405180910390f35b6101bf61058e565b6040516101cc9190611a2f565b60405180910390f35b6101ef60048036038101906101ea9190611583565b610597565b6040516101fc9190611897565b60405180910390f35b61021f600480360381019061021a91906114cf565b610643565b60405161022c9190611a14565b60405180910390f35b61023d61068b565b60405161024a91906118b2565b60405180910390f35b61026d600480360381019061026891906115e8565b61071d565b005b61028960048036038101906102849190611583565b6107c9565b6040516102969190611897565b60405180910390f35b6102b960048036038101906102b49190611583565b6108bd565b6040516102c69190611897565b60405180910390f35b6102d76108db565b6040516102e49190611a14565b60405180910390f35b610307600480360381019061030291906115bf565b610934565b6040516103149190611a14565b60405180910390f35b6103256109ec565b6040516103329190611a14565b60405180910390f35b610355600480360381019061035091906114f8565b610a4b565b6040516103629190611a14565b60405180910390f35b6103856004803603810190610380919061165f565b610ad2565b005b6103a1600480360381019061039c91906114cf565b610c79565b005b6103bd60048036038101906103b891906114cf565b610dd2565b6040516103ca9190611a14565b60405180910390f35b6060600380546103e290611dbf565b80601f016020809104026020016040519081016040528092919081815260200182805461040e90611dbf565b801561045b5780601f106104305761010080835404028352916020019161045b565b820191906000526020600020905b81548152906001019060200180831161043e57829003601f168201915b5050505050905090565b6000610479610472610e90565b8484610e98565b6001905092915050565b6000600254905090565b600061049a848484611063565b6000600160008673ffffffffffffffffffffffffffffffffffffffff1673ffffffffffffffffffffffffffffffffffffffff16815260200190815260200160002060006104e5610e90565b73ffffffffffffffffffffffffffffffffffffffff1673ffffffffffffffffffffffffffffffffffffffff16815260200190815260200160002054905082811015610565576040517f08c379a000000000000000000000000000000000000000000000000000000000815260040161055c90611974565b60405180910390fd5b61058285610571610e90565b858461057d9190611d03565b610e98565b60019150509392505050565b60006012905090565b60006106396105a4610e90565b8484600160006105b2610e90565b73ffffffffffffffffffffffffffffffffffffffff1673ffffffffffffffffffffffffffffffffffffffff16815260200190815260200160002060008873ffffffffffffffffffffffffffffffffffffffff1673ffffffffffffffffffffffffffffffffffffffff168152602001908152602001600020546106349190611a66565b610e98565b6001905092915050565b60008060008373ffffffffffffffffffffffffffffffffffffffff1673ffffffffffffffffffffffffffffffffffffffff168152602001908152602001600020549050919050565b60606004805461069a90611dbf565b80601f01602080910402602001604051908101604052809291908181526020018280546106c690611dbf565b80156107135780601f106106e857610100808354040283529160200191610713565b820191906000526020600020905b8154815290600101906020018083116106f657829003601f168201915b5050505050905090565b600f60009054906101000a900460ff161561073757600080fd5b8460058190555083600660006101000a81548173ffffffffffffffffffffffffffffffffffffffff021916908373ffffffffffffffffffffffffffffffffffffffff160217905550816007819055506704668ee0c4b1be006008819055506000600a819055506107a783836110cd565b6001600f60006101000a81548160ff0219169083151502179055505050505050565b600080600160006107d8610e90565b73ffffffffffffffffffffffffffffffffffffffff1673ffffffffffffffffffffffffffffffffffffffff16815260200190815260200160002060008573ffffffffffffffffffffffffffffffffffffffff1673ffffffffffffffffffffffffffffffffffffffff16815260200190815260200160002054905082811015610895576040517f08c379a000000000000000000000000000000000000000000000000000000000815260040161088c906119d4565b60405180910390fd5b6108b26108a0610e90565b8585846108ad9190611d03565b610e98565b600191505092915050565b60006108d16108ca610e90565b8484611063565b6001905092915050565b6000600f60009054906101000a900460ff1661092c576040517f08c379a000000000000000000000000000000000000000000000000000000000815260040161092390611914565b60405180910390fd5b600554905090565b6000600f60009054906101000a900460ff16610985576040517f08c379a000000000000000000000000000000000000000000000000000000000815260040161097c90611914565b60405180910390fd5b600d54821161099357600080fd5b6000600d54836109a39190611d03565b90506000816008546109b361058e565b600a6109bf9190611b8b565b6109c99190611a66565b6109d39190611b40565b6007546109e09190611ca9565b90508092505050919050565b6000600f60009054906101000a900460ff16610a3d576040517f08c379a0000000000000000000000000000000000000000000000000000000008152600401610a3490611914565b60405180910390fd5b610a4643610934565b905090565b6000600160008473ffffffffffffffffffffffffffffffffffffffff1673ffffffffffffffffffffffffffffffffffffffff16815260200190815260200160002060008373ffffffffffffffffffffffffffffffffffffffff1673ffffffffffffffffffffffffffffffffffffffff16815260200190815260200160002054905092915050565b600f60009054906101000a900460ff16610b21576040517f08c379a0000000000000000000000000000000000000000000000000000000008152600401610b1890611914565b60405180910390fd5b600660009054906101000a900473ffffffffffffffffffffffffffffffffffffffff1673ffffffffffffffffffffffffffffffffffffffff163373ffffffffffffffffffffffffffffffffffffffff1614610bb1576040517f08c379a0000000000000000000000000000000000000000000000000000000008152600401610ba890611954565b60405180910390fd5b600d548111610bbf57600080fd5b600082610bcb83610934565b610bd59190611d03565b90506000610be1610483565b600b5485610bef9190611a66565b610bf99190611abc565b9050610c03610483565b81610c0e9190611ca9565b60096000828254610c1f9190611a66565b9250508190555080600a6000828254610c389190611a66565b92505081905550610c47610483565b600b5485610c559190611a66565b610c5f9190611df1565b600b8190555082600d819055508160078190555050505050565b600f60009054906101000a900460ff16610cc8576040517f08c379a0000000000000000000000000000000000000000000000000000000008152600401610cbf90611914565b60405180910390fd5b6000610cd382610dd2565b90506000811115610dce576000600660009054906101000a900473ffffffffffffffffffffffffffffffffffffffff1690508073ffffffffffffffffffffffffffffffffffffffff1663a783e09884846040518363ffffffff1660e01b8152600401610d4092919061186e565b600060405180830381600087803b158015610d5a57600080fd5b505af1158015610d6e573d6000803e3d6000fd5b5050505081600954610d809190611d03565b600981905550600a54600e60008573ffffffffffffffffffffffffffffffffffffffff1673ffffffffffffffffffffffffffffffffffffffff16815260200190815260200160002081905550505b5050565b6000600f60009054906101000a900460ff16610e23576040517f08c379a0000000000000000000000000000000000000000000000000000000008152600401610e1a90611914565b60405180910390fd5b6000600e60008473ffffffffffffffffffffffffffffffffffffffff1673ffffffffffffffffffffffffffffffffffffffff16815260200190815260200160002054600a54610e729190611d03565b9050610e7d83610643565b81610e889190611ca9565b915050919050565b600033905090565b600073ffffffffffffffffffffffffffffffffffffffff168373ffffffffffffffffffffffffffffffffffffffff161415610f08576040517f08c379a0000000000000000000000000000000000000000000000000000000008152600401610eff906119b4565b60405180910390fd5b600073ffffffffffffffffffffffffffffffffffffffff168273ffffffffffffffffffffffffffffffffffffffff161415610f78576040517f08c379a0000000000000000000000000000000000000000000000000000000008152600401610f6f906118f4565b60405180910390fd5b80600160008573ffffffffffffffffffffffffffffffffffffffff1673ffffffffffffffffffffffffffffffffffffffff16815260200190815260200160002060008473ffffffffffffffffffffffffffffffffffffffff1673ffffffffffffffffffffffffffffffffffffffff168152602001908152602001600020819055508173ffffffffffffffffffffffffffffffffffffffff168373ffffffffffffffffffffffffffffffffffffffff167f8c5be1e5ebec7d5bd14f71427d1e84f3dd0314c0f7b2291e5b200ac8c7c3b925836040516110569190611a14565b60405180910390a3505050565b600f60009054906101000a900460ff166110b2576040517f08c379a00000000000000000000000000000000000000000000000000000000081526004016110a990611914565b60405180910390fd5b826110bc81610c79565b6110c7848484611221565b50505050565b600073ffffffffffffffffffffffffffffffffffffffff168273ffffffffffffffffffffffffffffffffffffffff16141561113d576040517f08c379a0000000000000000000000000000000000000000000000000000000008152600401611134906119f4565b60405180910390fd5b611149600083836114a0565b806002600082825461115b9190611a66565b92505081905550806000808473ffffffffffffffffffffffffffffffffffffffff1673ffffffffffffffffffffffffffffffffffffffff16815260200190815260200160002060008282546111b09190611a66565b925050819055508173ffffffffffffffffffffffffffffffffffffffff16600073ffffffffffffffffffffffffffffffffffffffff167fddf252ad1be2c89b69c2b068fc378daa952ba7f163c4a11628f55a4df523b3ef836040516112159190611a14565b60405180910390a35050565b600073ffffffffffffffffffffffffffffffffffffffff168373ffffffffffffffffffffffffffffffffffffffff161415611291576040517f08c379a000000000000000000000000000000000000000000000000000000000815260040161128890611994565b60405180910390fd5b600073ffffffffffffffffffffffffffffffffffffffff168273ffffffffffffffffffffffffffffffffffffffff161415611301576040517f08c379a00000000000000000000000000000000000000000000000000000000081526004016112f8906118d4565b60405180910390fd5b61130c8383836114a0565b60008060008573ffffffffffffffffffffffffffffffffffffffff1673ffffffffffffffffffffffffffffffffffffffff16815260200190815260200160002054905081811015611392576040517f08c379a000000000000000000000000000000000000000000000000000000000815260040161138990611934565b60405180910390fd5b818161139e9190611d03565b6000808673ffffffffffffffffffffffffffffffffffffffff1673ffffffffffffffffffffffffffffffffffffffff16815260200190815260200160002081905550816000808573ffffffffffffffffffffffffffffffffffffffff1673ffffffffffffffffffffffffffffffffffffffff168152602001908152602001600020600082825461142e9190611a66565b925050819055508273ffffffffffffffffffffffffffffffffffffffff168473ffffffffffffffffffffffffffffffffffffffff167fddf252ad1be2c89b69c2b068fc378daa952ba7f163c4a11628f55a4df523b3ef846040516114929190611a14565b60405180910390a350505050565b505050565b6000813590506114b4816121e3565b92915050565b6000813590506114c9816121fa565b92915050565b6000602082840312156114e157600080fd5b60006114ef848285016114a5565b91505092915050565b6000806040838503121561150b57600080fd5b6000611519858286016114a5565b925050602061152a858286016114a5565b9150509250929050565b60008060006060848603121561154957600080fd5b6000611557868287016114a5565b9350506020611568868287016114a5565b9250506040611579868287016114ba565b9150509250925092565b6000806040838503121561159657600080fd5b60006115a4858286016114a5565b92505060206115b5858286016114ba565b9150509250929050565b6000602082840312156115d157600080fd5b60006115df848285016114ba565b91505092915050565b600080600080600060a0868803121561160057600080fd5b600061160e888289016114ba565b955050602061161f888289016114a5565b9450506040611630888289016114a5565b9350506060611641888289016114ba565b9250506080611652888289016114ba565b9150509295509295909350565b6000806040838503121561167257600080fd5b6000611680858286016114ba565b9250506020611691858286016114ba565b9150509250929050565b6116a481611d37565b82525050565b6116b381611d49565b82525050565b60006116c482611a4a565b6116ce8185611a55565b93506116de818560208601611d8c565b6116e781611eaf565b840191505092915050565b60006116ff602383611a55565b915061170a82611ecd565b604082019050919050565b6000611722602283611a55565b915061172d82611f1c565b604082019050919050565b6000611745603f83611a55565b915061175082611f6b565b604082019050919050565b6000611768602683611a55565b915061177382611fba565b604082019050919050565b600061178b604a83611a55565b915061179682612009565b606082019050919050565b60006117ae602883611a55565b91506117b98261207e565b604082019050919050565b60006117d1602583611a55565b91506117dc826120cd565b604082019050919050565b60006117f4602483611a55565b91506117ff8261211c565b604082019050919050565b6000611817602583611a55565b91506118228261216b565b604082019050919050565b600061183a601f83611a55565b9150611845826121ba565b602082019050919050565b61185981611d75565b82525050565b61186881611d7f565b82525050565b6000604082019050611883600083018561169b565b6118906020830184611850565b9392505050565b60006020820190506118ac60008301846116aa565b92915050565b600060208201905081810360008301526118cc81846116b9565b905092915050565b600060208201905081810360008301526118ed816116f2565b9050919050565b6000602082019050818103600083015261190d81611715565b9050919050565b6000602082019050818103600083015261192d81611738565b9050919050565b6000602082019050818103600083015261194d8161175b565b9050919050565b6000602082019050818103600083015261196d8161177e565b9050919050565b6000602082019050818103600083015261198d816117a1565b9050919050565b600060208201905081810360008301526119ad816117c4565b9050919050565b600060208201905081810360008301526119cd816117e7565b9050919050565b600060208201905081810360008301526119ed8161180a565b9050919050565b60006020820190508181036000830152611a0d8161182d565b9050919050565b6000602082019050611a296000830184611850565b92915050565b6000602082019050611a44600083018461185f565b92915050565b600081519050919050565b600082825260208201905092915050565b6000611a7182611d75565b9150611a7c83611d75565b9250827fffffffffffffffffffffffffffffffffffffffffffffffffffffffffffffffff03821115611ab157611ab0611e22565b5b828201905092915050565b6000611ac782611d75565b9150611ad283611d75565b925082611ae257611ae1611e51565b5b828204905092915050565b6000808291508390505b6001851115611b3757808604811115611b1357611b12611e22565b5b6001851615611b225780820291505b8081029050611b3085611ec0565b9450611af7565b94509492505050565b6000611b4b82611d75565b9150611b5683611d75565b9250611b837fffffffffffffffffffffffffffffffffffffffffffffffffffffffffffffffff8484611bd6565b905092915050565b6000611b9682611d75565b9150611ba183611d7f565b9250611bce7fffffffffffffffffffffffffffffffffffffffffffffffffffffffffffffffff8484611bd6565b905092915050565b600082611be65760019050611ca2565b81611bf45760009050611ca2565b8160018114611c0a5760028114611c1457611c43565b6001915050611ca2565b60ff841115611c2657611c25611e22565b5b8360020a915084821115611c3d57611c3c611e22565b5b50611ca2565b5060208310610133831016604e8410600b8410161715611c785782820a905083811115611c7357611c72611e22565b5b611ca2565b611c858484846001611aed565b92509050818404811115611c9c57611c9b611e22565b5b81810290505b9392505050565b6000611cb482611d75565b9150611cbf83611d75565b9250817fffffffffffffffffffffffffffffffffffffffffffffffffffffffffffffffff0483118215151615611cf857611cf7611e22565b5b828202905092915050565b6000611d0e82611d75565b9150611d1983611d75565b925082821015611d2c57611d2b611e22565b5b828203905092915050565b6000611d4282611d55565b9050919050565b60008115159050919050565b600073ffffffffffffffffffffffffffffffffffffffff82169050919050565b6000819050919050565b600060ff82169050919050565b60005b83811015611daa578082015181840152602081019050611d8f565b83811115611db9576000848401525b50505050565b60006002820490506001821680611dd757607f821691505b60208210811415611deb57611dea611e80565b5b50919050565b6000611dfc82611d75565b9150611e0783611d75565b925082611e1757611e16611e51565b5b828206905092915050565b7f4e487b7100000000000000000000000000000000000000000000000000000000600052601160045260246000fd5b7f4e487b7100000000000000000000000000000000000000000000000000000000600052601260045260246000fd5b7f4e487b7100000000000000000000000000000000000000000000000000000000600052602260045260246000fd5b6000601f19601f8301169050919050565b60008160011c9050919050565b7f45524332303a207472616e7366657220746f20746865207a65726f206164647260008201527f6573730000000000000000000000000000000000000000000000000000000000602082015250565b7f45524332303a20617070726f766520746f20746865207a65726f20616464726560008201527f7373000000000000000000000000000000000000000000000000000000000000602082015250565b7f4c6f616e546f6b656e3a20436f6e7472616374206d75737420626520696e697460008201527f69616c697a65642062792074686520696e697428292066756e6374696f6e2e00602082015250565b7f45524332303a207472616e7366657220616d6f756e742065786365656473206260008201527f616c616e63650000000000000000000000000000000000000000000000000000602082015250565b7f4c6f616e546f6b656e3a20546869732066756e6374696f6e2063616e206f6e6c60008201527f792062652063616c6c65642066726f6d20746865204c6f616e50726f7669646560208201527f7220636f6e747261637400000000000000000000000000000000000000000000604082015250565b7f45524332303a207472616e7366657220616d6f756e742065786365656473206160008201527f6c6c6f77616e6365000000000000000000000000000000000000000000000000602082015250565b7f45524332303a207472616e736665722066726f6d20746865207a65726f20616460008201527f6472657373000000000000000000000000000000000000000000000000000000602082015250565b7f45524332303a20617070726f76652066726f6d20746865207a65726f2061646460008201527f7265737300000000000000000000000000000000000000000000000000000000602082015250565b7f45524332303a2064656372656173656420616c6c6f77616e63652062656c6f7760008201527f207a65726f000000000000000000000000000000000000000000000000000000602082015250565b7f45524332303a206d696e7420746f20746865207a65726f206164647265737300600082015250565b6121ec81611d37565b81146121f757600080fd5b50565b61220381611d75565b811461220e57600080fd5b5056fea26469706673582212204fc801ff8081f4e494dcb75897e49b66a181ad7e7a5891e8d5c91d150cc7161864736f6c63430008030033",
  "immutableReferences": {},
  "source": "//SPDX-License-Identifier: MIT\npragma solidity ^0.8.3;\n\nimport \"./LoanProvider.sol\";\nimport \"@openzeppelin/contracts/token/ERC20/ERC20.sol\";\n\n/**\n * @author Jack Proudfoot\n * @dev Implementation of the {IERC20} interface for Loan Tokens with dividend paying feature.\n *\n * Dividend functionality inspired by: https://medium.com/crowdbotics/how-to-build-a-dividend-token-with-solidity-81ae3bf3fe72\n */\ncontract LoanToken is ERC20{\n\n    uint256 private _loanID;\n    address private _loanProviderContract;\n\n    uint256 private _balance;\n    uint256 private _rate;\n\n    uint256 private _unclaimedDistributions;\n    uint256 private _totalDistributions;\n\n    uint256 private _leftoverPayment;\n\n    uint256 private _interestPoints;\n    uint256 private _lastPaymentBlock;\n\n\n    mapping (address => uint256) private _lastDistributionClaimed;\n\n    bool private _initialized;\n\n    /**\n     * @dev Shim constructor meant to be used to deploy or clone contract without initializing state.\n     */\n    constructor () ERC20(\"Decent Loan Token\", \"DLT\") {\n       _initialized = false;\n    }\n\n    /**\n    * @dev One time initialization function used by the clone factory to initialize state of cloned contract\n    */\n    function init (uint256 loanID_, address loanProviderContract_, address walletContract_, uint256 amount_, uint256 rate_) public {\n        require(!_initialized);\n        \n        _loanID = loanID_;\n        _loanProviderContract = loanProviderContract_;\n        _balance = amount_;\n        //    _rate = rate_;\n        _rate = 317097919800000000;\n        _totalDistributions = 0;\n\n        _mint(walletContract_, amount_);\n\n        _initialized = true;\n    }\n\n    /**\n    * @dev Modifier applied to all functions that ensures that the contract has been initialized\n    */\n    modifier ensuresInitialized () {\n        require(_initialized, \"LoanToken: Contract must be initialized by the init() function.\");\n        _;\n    }\n\n    /**\n    * @dev Modifier applied to any function that moves tokens to update distributions earned from this token for `lender`\n    */\n    modifier updatesDistributions (address _lender) {\n        updateDistributions(_lender);\n        _;\n    }\n\n\n    /**\n    * @dev Claims the distributions for this token for `_lender` \n    */\n    function updateDistributions (address _lender) public ensuresInitialized {\n        uint256 payment = distributionsOwed(_lender);\n        if(payment > 0) {\n            LoanProvider loanProvider = LoanProvider(_loanProviderContract);\n            loanProvider.allocateStablecoinProxy(_lender, payment);\n\n            _unclaimedDistributions = _unclaimedDistributions - payment;\n            _lastDistributionClaimed[_lender] = _totalDistributions;\n        }\n    }\n\n    /**\n    * @dev Computes the amount of distributions owed to `_lender`\n    */\n    function distributionsOwed (address _lender) public view ensuresInitialized returns (uint256) {\n        uint256 outstandingDistributions = _totalDistributions - _lastDistributionClaimed[_lender];\n\n        return outstandingDistributions * balanceOf(_lender);\n    }\n\n    /** \n    @dev Get the balance of the loan at block `blockNumber`\n    */\n    function balanceAtBlock(uint256 _blockNumber) public view ensuresInitialized returns (uint256) {\n        require(_blockNumber > _lastPaymentBlock);\n        \n        uint256 blocksElapsed = _blockNumber - _lastPaymentBlock;\n\n        uint256 balance = _balance * ((10 ** decimals() + _rate) ** blocksElapsed); \n\n        return balance;\n    }\n\n    /**\n    * Gets the balance of the loan at the current block\n    */\n    function currentBalance() public view ensuresInitialized returns (uint256) {\n        return balanceAtBlock(block.number);\n    }\n\n    /**\n    * @dev Processes payment of `amount` towards loan balance during `_blockNumber`\n    */\n    function processPayment(uint256 _amount, uint256 _blockNumber) public ensuresInitialized {\n        require(msg.sender == _loanProviderContract, \"LoanToken: This function can only be called from the LoanProvider contract\");\n        require(_blockNumber > _lastPaymentBlock);\n        \n        uint256 updatedBalance = balanceAtBlock(_blockNumber) - _amount;\n        \n        uint256 additionalDistributions = (_amount + _leftoverPayment) / totalSupply();\n\n        _unclaimedDistributions += additionalDistributions * totalSupply();\n        _totalDistributions += additionalDistributions;\n        _leftoverPayment = (_amount + _leftoverPayment) % totalSupply();\n\n        _lastPaymentBlock = _blockNumber;\n        \n        _balance = updatedBalance;\n    }\n\n    /**\n    * @dev Gets the `loanID`\n    */\n    function getLoanID() public view ensuresInitialized returns (uint256) {\n        return _loanID;\n    }\n\n    /**\n    * Adds updatesDistributions modifier to ERC20 transfer function \n    */\n    function _transfer(address sender, address recipient, uint256 amount) internal virtual override ensuresInitialized updatesDistributions(sender) {\n        ERC20._transfer(sender, recipient, amount);\n    }\n}",
  "sourcePath": "/Users/jack/Coursework/blockchain-final-project/contracts/LoanToken.sol",
  "compiler": {
    "name": "solc",
    "version": "0.8.3+commit.8d00100c.Emscripten.clang"
  },
  "schemaVersion": "3.3.4",
  "updatedAt": "2021-04-19T01:35:03.273Z",
  "networkType": "ethereum",
  "devdoc": {
    "author": "Jack Proudfoot",
    "details": "Implementation of the {IERC20} interface for Loan Tokens with dividend paying feature. Dividend functionality inspired by: https://medium.com/crowdbotics/how-to-build-a-dividend-token-with-solidity-81ae3bf3fe72",
    "kind": "dev",
    "methods": {
      "allowance(address,address)": {
        "details": "See {IERC20-allowance}."
      },
      "approve(address,uint256)": {
        "details": "See {IERC20-approve}. Requirements: - `spender` cannot be the zero address."
      },
      "balanceAtBlock(uint256)": {
        "details": "Get the balance of the loan at block `blockNumber`"
      },
      "balanceOf(address)": {
        "details": "See {IERC20-balanceOf}."
      },
      "constructor": {
        "details": "Shim constructor meant to be used to deploy or clone contract without initializing state."
      },
      "decimals()": {
        "details": "Returns the number of decimals used to get its user representation. For example, if `decimals` equals `2`, a balance of `505` tokens should be displayed to a user as `5,05` (`505 / 10 ** 2`). Tokens usually opt for a value of 18, imitating the relationship between Ether and Wei. This is the value {ERC20} uses, unless this function is overloaded; NOTE: This information is only used for _display_ purposes: it in no way affects any of the arithmetic of the contract, including {IERC20-balanceOf} and {IERC20-transfer}."
      },
      "decreaseAllowance(address,uint256)": {
        "details": "Atomically decreases the allowance granted to `spender` by the caller. This is an alternative to {approve} that can be used as a mitigation for problems described in {IERC20-approve}. Emits an {Approval} event indicating the updated allowance. Requirements: - `spender` cannot be the zero address. - `spender` must have allowance for the caller of at least `subtractedValue`."
      },
      "distributionsOwed(address)": {
        "details": "Computes the amount of distributions owed to `_lender`"
      },
      "getLoanID()": {
        "details": "Gets the `loanID`"
      },
      "increaseAllowance(address,uint256)": {
        "details": "Atomically increases the allowance granted to `spender` by the caller. This is an alternative to {approve} that can be used as a mitigation for problems described in {IERC20-approve}. Emits an {Approval} event indicating the updated allowance. Requirements: - `spender` cannot be the zero address."
      },
      "init(uint256,address,address,uint256,uint256)": {
        "details": "One time initialization function used by the clone factory to initialize state of cloned contract"
      },
      "name()": {
        "details": "Returns the name of the token."
      },
      "processPayment(uint256,uint256)": {
        "details": "Processes payment of `amount` towards loan balance during `_blockNumber`"
      },
      "symbol()": {
        "details": "Returns the symbol of the token, usually a shorter version of the name."
      },
      "totalSupply()": {
        "details": "See {IERC20-totalSupply}."
      },
      "transfer(address,uint256)": {
        "details": "See {IERC20-transfer}. Requirements: - `recipient` cannot be the zero address. - the caller must have a balance of at least `amount`."
      },
      "transferFrom(address,address,uint256)": {
        "details": "See {IERC20-transferFrom}. Emits an {Approval} event indicating the updated allowance. This is not required by the EIP. See the note at the beginning of {ERC20}. Requirements: - `sender` and `recipient` cannot be the zero address. - `sender` must have a balance of at least `amount`. - the caller must have allowance for ``sender``'s tokens of at least `amount`."
      },
      "updateDistributions(address)": {
        "details": "Claims the distributions for this token for `_lender` "
      }
    },
    "version": 1
  },
  "userdoc": {
    "kind": "user",
    "methods": {
      "currentBalance()": {
        "notice": "Gets the balance of the loan at the current block"
      }
    },
    "version": 1
  }
}