{
  "contractName": "Wallet",
  "abi": [
    {
      "inputs": [
        {
          "internalType": "address",
          "name": "stablecoinAddress_",
          "type": "address"
        }
      ],
      "stateMutability": "nonpayable",
      "type": "constructor"
    },
    {
      "anonymous": false,
      "inputs": [
        {
          "indexed": true,
          "internalType": "bytes32",
          "name": "role",
          "type": "bytes32"
        },
        {
          "indexed": true,
          "internalType": "bytes32",
          "name": "previousAdminRole",
          "type": "bytes32"
        },
        {
          "indexed": true,
          "internalType": "bytes32",
          "name": "newAdminRole",
          "type": "bytes32"
        }
      ],
      "name": "RoleAdminChanged",
      "type": "event"
    },
    {
      "anonymous": false,
      "inputs": [
        {
          "indexed": true,
          "internalType": "bytes32",
          "name": "role",
          "type": "bytes32"
        },
        {
          "indexed": true,
          "internalType": "address",
          "name": "account",
          "type": "address"
        },
        {
          "indexed": true,
          "internalType": "address",
          "name": "sender",
          "type": "address"
        }
      ],
      "name": "RoleGranted",
      "type": "event"
    },
    {
      "anonymous": false,
      "inputs": [
        {
          "indexed": true,
          "internalType": "bytes32",
          "name": "role",
          "type": "bytes32"
        },
        {
          "indexed": true,
          "internalType": "address",
          "name": "account",
          "type": "address"
        },
        {
          "indexed": true,
          "internalType": "address",
          "name": "sender",
          "type": "address"
        }
      ],
      "name": "RoleRevoked",
      "type": "event"
    },
    {
      "inputs": [],
      "name": "DEFAULT_ADMIN_ROLE",
      "outputs": [
        {
          "internalType": "bytes32",
          "name": "",
          "type": "bytes32"
        }
      ],
      "stateMutability": "view",
      "type": "function",
      "constant": true
    },
    {
      "inputs": [],
      "name": "SPENDER_ROLE",
      "outputs": [
        {
          "internalType": "bytes32",
          "name": "",
          "type": "bytes32"
        }
      ],
      "stateMutability": "view",
      "type": "function",
      "constant": true
    },
    {
      "inputs": [],
      "name": "STABLECOIN_ALLOCATOR_ROLE",
      "outputs": [
        {
          "internalType": "bytes32",
          "name": "",
          "type": "bytes32"
        }
      ],
      "stateMutability": "view",
      "type": "function",
      "constant": true
    },
    {
      "inputs": [
        {
          "internalType": "bytes32",
          "name": "role",
          "type": "bytes32"
        }
      ],
      "name": "getRoleAdmin",
      "outputs": [
        {
          "internalType": "bytes32",
          "name": "",
          "type": "bytes32"
        }
      ],
      "stateMutability": "view",
      "type": "function",
      "constant": true
    },
    {
      "inputs": [
        {
          "internalType": "bytes32",
          "name": "role",
          "type": "bytes32"
        },
        {
          "internalType": "address",
          "name": "account",
          "type": "address"
        }
      ],
      "name": "grantRole",
      "outputs": [],
      "stateMutability": "nonpayable",
      "type": "function"
    },
    {
      "inputs": [
        {
          "internalType": "bytes32",
          "name": "role",
          "type": "bytes32"
        },
        {
          "internalType": "address",
          "name": "account",
          "type": "address"
        }
      ],
      "name": "hasRole",
      "outputs": [
        {
          "internalType": "bool",
          "name": "",
          "type": "bool"
        }
      ],
      "stateMutability": "view",
      "type": "function",
      "constant": true
    },
    {
      "inputs": [
        {
          "internalType": "bytes32",
          "name": "role",
          "type": "bytes32"
        },
        {
          "internalType": "address",
          "name": "account",
          "type": "address"
        }
      ],
      "name": "renounceRole",
      "outputs": [],
      "stateMutability": "nonpayable",
      "type": "function"
    },
    {
      "inputs": [
        {
          "internalType": "bytes32",
          "name": "role",
          "type": "bytes32"
        },
        {
          "internalType": "address",
          "name": "account",
          "type": "address"
        }
      ],
      "name": "revokeRole",
      "outputs": [],
      "stateMutability": "nonpayable",
      "type": "function"
    },
    {
      "inputs": [
        {
          "internalType": "bytes4",
          "name": "interfaceId",
          "type": "bytes4"
        }
      ],
      "name": "supportsInterface",
      "outputs": [
        {
          "internalType": "bool",
          "name": "",
          "type": "bool"
        }
      ],
      "stateMutability": "view",
      "type": "function",
      "constant": true
    },
    {
      "inputs": [
        {
          "internalType": "address",
          "name": "_to",
          "type": "address"
        },
        {
          "internalType": "uint256",
          "name": "_amount",
          "type": "uint256"
        }
      ],
      "name": "allocateStablecoins",
      "outputs": [],
      "stateMutability": "nonpayable",
      "type": "function"
    },
    {
      "inputs": [
        {
          "internalType": "address",
          "name": "_lender",
          "type": "address"
        }
      ],
      "name": "claimStablecoinBalance",
      "outputs": [],
      "stateMutability": "nonpayable",
      "type": "function"
    },
    {
      "inputs": [
        {
          "internalType": "address",
          "name": "_to",
          "type": "address"
        },
        {
          "internalType": "uint256",
          "name": "_amount",
          "type": "uint256"
        },
        {
          "internalType": "address",
          "name": "_tokenContract",
          "type": "address"
        }
      ],
      "name": "transfer",
      "outputs": [],
      "stateMutability": "nonpayable",
      "type": "function"
    },
    {
      "inputs": [
        {
          "internalType": "address payable",
          "name": "wallet",
          "type": "address"
        }
      ],
      "name": "withdrawEther",
      "outputs": [],
      "stateMutability": "nonpayable",
      "type": "function"
    }
  ],
  "bytecode": "0x60806040523480156200001157600080fd5b506040516200170738038062001707833981810160405281019062000037919062000256565b80600160006101000a81548173ffffffffffffffffffffffffffffffffffffffff021916908373ffffffffffffffffffffffffffffffffffffffff1602179055506200008d6000801b33620000c660201b60201c565b620000bf7f5350454e4445520000000000000000000000000000000000000000000000000033620000c660201b60201c565b50620002d0565b620000d88282620000dc60201b60201c565b5050565b620000ee8282620001cd60201b60201c565b620001c957600160008084815260200190815260200160002060000160008373ffffffffffffffffffffffffffffffffffffffff1673ffffffffffffffffffffffffffffffffffffffff16815260200190815260200160002060006101000a81548160ff0219169083151502179055506200016e6200023760201b60201c565b73ffffffffffffffffffffffffffffffffffffffff168173ffffffffffffffffffffffffffffffffffffffff16837f2f8788117e7eff1d82e926ec794901d17c78024a50270940304540a733656f0d60405160405180910390a45b5050565b600080600084815260200190815260200160002060000160008373ffffffffffffffffffffffffffffffffffffffff1673ffffffffffffffffffffffffffffffffffffffff16815260200190815260200160002060009054906101000a900460ff16905092915050565b600033905090565b6000815190506200025081620002b6565b92915050565b6000602082840312156200026957600080fd5b600062000279848285016200023f565b91505092915050565b60006200028f8262000296565b9050919050565b600073ffffffffffffffffffffffffffffffffffffffff82169050919050565b620002c18162000282565b8114620002cd57600080fd5b50565b61142780620002e06000396000f3fe608060405234801561001057600080fd5b50600436106100cf5760003560e01c806372c16a241161008c578063a217fddf11610066578063a217fddf14610210578063af933b571461022e578063d547741f1461024a578063dbba0f0114610266576100cf565b806372c16a24146101a657806391d14854146101c4578063959e94df146101f4576100cf565b806301ffc9a7146100d4578063248a9ca3146101045780632592b5ad146101345780632f2ff15d1461015057806336568abe1461016c57806363b71d1314610188575b600080fd5b6100ee60048036038101906100e99190610d59565b610282565b6040516100fb9190610edc565b60405180910390f35b61011e60048036038101906101199190610cf4565b6102fc565b60405161012b9190610ef7565b60405180910390f35b61014e60048036038101906101499190610bee565b61031b565b005b61016a60048036038101906101659190610d1d565b6104da565b005b61018660048036038101906101819190610d1d565b610540565b005b6101906105c3565b60405161019d9190610ef7565b60405180910390f35b6101ae6105e7565b6040516101bb9190610ef7565b60405180910390f35b6101de60048036038101906101d99190610d1d565b61060b565b6040516101eb9190610edc565b60405180910390f35b61020e60048036038101906102099190610c40565b610675565b005b610218610738565b6040516102259190610ef7565b60405180910390f35b61024860048036038101906102439190610c17565b61073f565b005b610264600480360381019061025f9190610d1d565b6107d5565b005b610280600480360381019061027b9190610c7c565b61083b565b005b60007f7965db0b000000000000000000000000000000000000000000000000000000007bffffffffffffffffffffffffffffffffffffffffffffffffffffffff1916827bffffffffffffffffffffffffffffffffffffffffffffffffffffffff191614806102f557506102f48261093d565b5b9050919050565b6000806000838152602001908152602001600020600101549050919050565b6000600260008373ffffffffffffffffffffffffffffffffffffffff1673ffffffffffffffffffffffffffffffffffffffff168152602001908152602001600020541161039d576040517f08c379a000000000000000000000000000000000000000000000000000000000815260040161039490610f92565b60405180910390fd5b6000600160009054906101000a900473ffffffffffffffffffffffffffffffffffffffff1690508073ffffffffffffffffffffffffffffffffffffffff1663a9059cbb83600260008673ffffffffffffffffffffffffffffffffffffffff1673ffffffffffffffffffffffffffffffffffffffff168152602001908152602001600020546040518363ffffffff1660e01b815260040161043e929190610eb3565b602060405180830381600087803b15801561045857600080fd5b505af115801561046c573d6000803e3d6000fd5b505050506040513d601f19601f820116820180604052508101906104909190610ccb565b506000600260008473ffffffffffffffffffffffffffffffffffffffff1673ffffffffffffffffffffffffffffffffffffffff168152602001908152602001600020819055505050565b6104f36104e6836102fc565b6104ee6109a7565b61060b565b610532576040517f08c379a000000000000000000000000000000000000000000000000000000000815260040161052990610f12565b60405180910390fd5b61053c82826109af565b5050565b6105486109a7565b73ffffffffffffffffffffffffffffffffffffffff168173ffffffffffffffffffffffffffffffffffffffff16146105b5576040517f08c379a00000000000000000000000000000000000000000000000000000000081526004016105ac90610fd2565b60405180910390fd5b6105bf8282610a8f565b5050565b7f535441424c45434f494e5f414c4c4f4341544f5200000000000000000000000081565b7f5350454e4445520000000000000000000000000000000000000000000000000081565b600080600084815260200190815260200160002060000160008373ffffffffffffffffffffffffffffffffffffffff1673ffffffffffffffffffffffffffffffffffffffff16815260200190815260200160002060009054906101000a900460ff16905092915050565b61069f7f535441424c45434f494e5f414c4c4f4341544f520000000000000000000000003361060b565b6106de576040517f08c379a00000000000000000000000000000000000000000000000000000000081526004016106d590610fb2565b60405180910390fd5b80600260008473ffffffffffffffffffffffffffffffffffffffff1673ffffffffffffffffffffffffffffffffffffffff168152602001908152602001600020600082825461072d9190611003565b925050819055505050565b6000801b81565b61074c6000801b3361060b565b61078b576040517f08c379a000000000000000000000000000000000000000000000000000000000815260040161078290610f32565b60405180910390fd5b8073ffffffffffffffffffffffffffffffffffffffff166108fc479081150290604051600060405180830381858888f193505050501580156107d1573d6000803e3d6000fd5b5050565b6107ee6107e1836102fc565b6107e96109a7565b61060b565b61082d576040517f08c379a000000000000000000000000000000000000000000000000000000000815260040161082490610f72565b60405180910390fd5b6108378282610a8f565b5050565b6108657f5350454e444552000000000000000000000000000000000000000000000000003361060b565b6108a4576040517f08c379a000000000000000000000000000000000000000000000000000000000815260040161089b90610f52565b60405180910390fd5b60008190508073ffffffffffffffffffffffffffffffffffffffff1663a9059cbb85856040518363ffffffff1660e01b81526004016108e4929190610eb3565b602060405180830381600087803b1580156108fe57600080fd5b505af1158015610912573d6000803e3d6000fd5b505050506040513d601f19601f820116820180604052508101906109369190610ccb565b5050505050565b60007f01ffc9a7000000000000000000000000000000000000000000000000000000007bffffffffffffffffffffffffffffffffffffffffffffffffffffffff1916827bffffffffffffffffffffffffffffffffffffffffffffffffffffffff1916149050919050565b600033905090565b6109b9828261060b565b610a8b57600160008084815260200190815260200160002060000160008373ffffffffffffffffffffffffffffffffffffffff1673ffffffffffffffffffffffffffffffffffffffff16815260200190815260200160002060006101000a81548160ff021916908315150217905550610a306109a7565b73ffffffffffffffffffffffffffffffffffffffff168173ffffffffffffffffffffffffffffffffffffffff16837f2f8788117e7eff1d82e926ec794901d17c78024a50270940304540a733656f0d60405160405180910390a45b5050565b610a99828261060b565b15610b6c57600080600084815260200190815260200160002060000160008373ffffffffffffffffffffffffffffffffffffffff1673ffffffffffffffffffffffffffffffffffffffff16815260200190815260200160002060006101000a81548160ff021916908315150217905550610b116109a7565b73ffffffffffffffffffffffffffffffffffffffff168173ffffffffffffffffffffffffffffffffffffffff16837ff6391f5c32d9c69d2a47ea670b442974b53935d1edc7fd64eb21e047a839171b60405160405180910390a45b5050565b600081359050610b7f81611367565b92915050565b600081359050610b948161137e565b92915050565b600081519050610ba981611395565b92915050565b600081359050610bbe816113ac565b92915050565b600081359050610bd3816113c3565b92915050565b600081359050610be8816113da565b92915050565b600060208284031215610c0057600080fd5b6000610c0e84828501610b70565b91505092915050565b600060208284031215610c2957600080fd5b6000610c3784828501610b85565b91505092915050565b60008060408385031215610c5357600080fd5b6000610c6185828601610b70565b9250506020610c7285828601610bd9565b9150509250929050565b600080600060608486031215610c9157600080fd5b6000610c9f86828701610b70565b9350506020610cb086828701610bd9565b9250506040610cc186828701610b70565b9150509250925092565b600060208284031215610cdd57600080fd5b6000610ceb84828501610b9a565b91505092915050565b600060208284031215610d0657600080fd5b6000610d1484828501610baf565b91505092915050565b60008060408385031215610d3057600080fd5b6000610d3e85828601610baf565b9250506020610d4f85828601610b70565b9150509250929050565b600060208284031215610d6b57600080fd5b6000610d7984828501610bc4565b91505092915050565b610d8b81611059565b82525050565b610d9a8161107d565b82525050565b610da981611089565b82525050565b6000610dbc602f83610ff2565b9150610dc782611118565b604082019050919050565b6000610ddf604c83610ff2565b9150610dea82611167565b606082019050919050565b6000610e02602b83610ff2565b9150610e0d826111dc565b604082019050919050565b6000610e25603083610ff2565b9150610e308261122b565b604082019050919050565b6000610e48603383610ff2565b9150610e538261127a565b604082019050919050565b6000610e6b603883610ff2565b9150610e76826112c9565b604082019050919050565b6000610e8e602f83610ff2565b9150610e9982611318565b604082019050919050565b610ead816110df565b82525050565b6000604082019050610ec86000830185610d82565b610ed56020830184610ea4565b9392505050565b6000602082019050610ef16000830184610d91565b92915050565b6000602082019050610f0c6000830184610da0565b92915050565b60006020820190508181036000830152610f2b81610daf565b9050919050565b60006020820190508181036000830152610f4b81610dd2565b9050919050565b60006020820190508181036000830152610f6b81610df5565b9050919050565b60006020820190508181036000830152610f8b81610e18565b9050919050565b60006020820190508181036000830152610fab81610e3b565b9050919050565b60006020820190508181036000830152610fcb81610e5e565b9050919050565b60006020820190508181036000830152610feb81610e81565b9050919050565b600082825260208201905092915050565b600061100e826110df565b9150611019836110df565b9250827fffffffffffffffffffffffffffffffffffffffffffffffffffffffffffffffff0382111561104e5761104d6110e9565b5b828201905092915050565b6000611064826110bf565b9050919050565b6000611076826110bf565b9050919050565b60008115159050919050565b6000819050919050565b60007fffffffff0000000000000000000000000000000000000000000000000000000082169050919050565b600073ffffffffffffffffffffffffffffffffffffffff82169050919050565b6000819050919050565b7f4e487b7100000000000000000000000000000000000000000000000000000000600052601160045260246000fd5b7f416363657373436f6e74726f6c3a2073656e646572206d75737420626520616e60008201527f2061646d696e20746f206772616e740000000000000000000000000000000000602082015250565b7f57616c6c65743a2073656e64657220646f6573206e6f7420706f73736573204460008201527f454641554c545f41444d494e5f524f4c4520726571756972656420746f20747260208201527f616e736665722065746865720000000000000000000000000000000000000000604082015250565b7f57616c6c65743a2073656e64657220646f6573206e6f7420706f73736573205360008201527f50454e44455220726f6c65000000000000000000000000000000000000000000602082015250565b7f416363657373436f6e74726f6c3a2073656e646572206d75737420626520616e60008201527f2061646d696e20746f207265766f6b6500000000000000000000000000000000602082015250565b7f57616c6c65743a20537461626c65636f696e2062616c616e636520666f72207460008201527f686174206163636f756e74206973207a65726f00000000000000000000000000602082015250565b7f57616c6c65743a2073656e64657220646f6573206e6f7420706f73736573205360008201527f5441424c45434f494e5f414c4c4f4341544f5220726f6c650000000000000000602082015250565b7f416363657373436f6e74726f6c3a2063616e206f6e6c792072656e6f756e636560008201527f20726f6c657320666f722073656c660000000000000000000000000000000000602082015250565b61137081611059565b811461137b57600080fd5b50565b6113878161106b565b811461139257600080fd5b50565b61139e8161107d565b81146113a957600080fd5b50565b6113b581611089565b81146113c057600080fd5b50565b6113cc81611093565b81146113d757600080fd5b50565b6113e3816110df565b81146113ee57600080fd5b5056fea26469706673582212200fe6f91b99b2dcf3486626325fad8aa3f2f519e8d3cea135d29cdabc50c5c3af64736f6c63430008030033",
  "immutableReferences": {},
  "source": "//SPDX-License-Identifier: MIT\npragma solidity ^0.8.3;\n\nimport \"@openzeppelin/contracts/access/AccessControl.sol\";\n\nimport \"@openzeppelin/contracts/token/ERC20/IERC20.sol\";\n\n/**\n * @author Jack Proudfoot\n * @dev Wallet smart contract that tracks unclaimed balances.  Uses access control to allow multiple smart contracts to transfer wallets funds.\n *\n */\ncontract Wallet is AccessControl{\n\n    bytes32 public constant SPENDER_ROLE = \"SPENDER\";\n    bytes32 public constant STABLECOIN_ALLOCATOR_ROLE = \"STABLECOIN_ALLOCATOR\";\n\n    address private _stablecoinAddress;\n\n    mapping (address => uint256) private _unclaimedStablecoinBalance;\n\n    /**\n    * @dev Creates role bindings for SPENDER_ROLE\n    */\n    constructor (address stablecoinAddress_) {\n        _stablecoinAddress = stablecoinAddress_;\n\n        _setupRole(DEFAULT_ADMIN_ROLE, msg.sender);\n        _setupRole(SPENDER_ROLE, msg.sender);\n    }\n\n\n    /**\n    * @dev Allocates `amount` stablecoins to `to`\n    */\n    function allocateStablecoins(address _to, uint256 _amount) public {\n        require(hasRole(STABLECOIN_ALLOCATOR_ROLE, msg.sender), \"Wallet: sender does not posses STABLECOIN_ALLOCATOR role\");\n\n        _unclaimedStablecoinBalance[_to] += _amount;\n    }\n\n    /**\n    * @dev Claim any stablecoin balance earned by Decent Loan Tokens\n    */\n    function claimStablecoinBalance(address _lender) public {\n        require(_unclaimedStablecoinBalance[_lender] > 0, \"Wallet: Stablecoin balance for that account is zero\");\n\n        IERC20 stablecoin = IERC20(_stablecoinAddress);\n        stablecoin.transfer(_lender, _unclaimedStablecoinBalance[_lender]);\n\n        _unclaimedStablecoinBalance[_lender] = 0;\n    }\n\n    /**\n    * @dev Used by smart contracts to transfer `_value` of token with contract `_tokenContract` to address `_to`\n    */\n    function transfer(address _to, uint256 _amount, address _tokenContract) public {\n        require(hasRole(SPENDER_ROLE, msg.sender), \"Wallet: sender does not posses SPENDER role\");\n\n        IERC20 token = IERC20(_tokenContract);\n\n        token.transfer(_to, _amount);\n    }\n\n    /**\n    * @dev Withdraws all ether in the smart contract to `wallet`\n    */\n    function withdrawEther(address payable wallet) public {\n        require(hasRole(DEFAULT_ADMIN_ROLE, msg.sender), \"Wallet: sender does not posses DEFAULT_ADMIN_ROLE required to transfer ether\");\n\n        wallet.transfer(address(this).balance);\n    }\n}",
  "sourcePath": "/Users/jack/Coursework/blockchain-final-project/contracts/Wallet.sol",
  "compiler": {
    "name": "solc",
    "version": "0.8.3+commit.8d00100c.Emscripten.clang"
  },
  "schemaVersion": "3.3.4",
  "updatedAt": "2021-04-19T01:35:03.244Z",
  "networkType": "ethereum",
  "devdoc": {
    "author": "Jack Proudfoot",
    "details": "Wallet smart contract that tracks unclaimed balances.  Uses access control to allow multiple smart contracts to transfer wallets funds.",
    "kind": "dev",
    "methods": {
      "allocateStablecoins(address,uint256)": {
        "details": "Allocates `amount` stablecoins to `to`"
      },
      "claimStablecoinBalance(address)": {
        "details": "Claim any stablecoin balance earned by Decent Loan Tokens"
      },
      "constructor": {
        "details": "Creates role bindings for SPENDER_ROLE"
      },
      "getRoleAdmin(bytes32)": {
        "details": "Returns the admin role that controls `role`. See {grantRole} and {revokeRole}. To change a role's admin, use {_setRoleAdmin}."
      },
      "grantRole(bytes32,address)": {
        "details": "Grants `role` to `account`. If `account` had not been already granted `role`, emits a {RoleGranted} event. Requirements: - the caller must have ``role``'s admin role."
      },
      "hasRole(bytes32,address)": {
        "details": "Returns `true` if `account` has been granted `role`."
      },
      "renounceRole(bytes32,address)": {
        "details": "Revokes `role` from the calling account. Roles are often managed via {grantRole} and {revokeRole}: this function's purpose is to provide a mechanism for accounts to lose their privileges if they are compromised (such as when a trusted device is misplaced). If the calling account had been granted `role`, emits a {RoleRevoked} event. Requirements: - the caller must be `account`."
      },
      "revokeRole(bytes32,address)": {
        "details": "Revokes `role` from `account`. If `account` had been granted `role`, emits a {RoleRevoked} event. Requirements: - the caller must have ``role``'s admin role."
      },
      "supportsInterface(bytes4)": {
        "details": "See {IERC165-supportsInterface}."
      },
      "transfer(address,uint256,address)": {
        "details": "Used by smart contracts to transfer `_value` of token with contract `_tokenContract` to address `_to`"
      },
      "withdrawEther(address)": {
        "details": "Withdraws all ether in the smart contract to `wallet`"
      }
    },
    "version": 1
  },
  "userdoc": {
    "kind": "user",
    "methods": {},
    "version": 1
  }
}