{
  "contractName": "CloneFactory18",
  "abi": [
    {
      "inputs": [
        {
          "internalType": "address",
          "name": "target",
          "type": "address"
        }
      ],
      "name": "createClone",
      "outputs": [
        {
          "internalType": "address",
          "name": "result",
          "type": "address"
        }
      ],
      "stateMutability": "nonpayable",
      "type": "function"
    },
    {
      "inputs": [
        {
          "internalType": "address",
          "name": "target",
          "type": "address"
        },
        {
          "internalType": "address",
          "name": "query",
          "type": "address"
        }
      ],
      "name": "isClone",
      "outputs": [
        {
          "internalType": "bool",
          "name": "result",
          "type": "bool"
        }
      ],
      "stateMutability": "view",
      "type": "function"
    }
  ],
  "bytecode": "0x608060405234801561001057600080fd5b50610306806100206000396000f3fe608060405234801561001057600080fd5b50600436106100365760003560e01c806343b66dac1461003b57806357894c1b1461006b575b600080fd5b610055600480360381019061005091906101eb565b61009b565b6040516100629190610260565b60405180910390f35b610085600480360381019061008091906101c2565b610130565b6040516100929190610245565b60405180910390f35b60008060108460601b6bffffffffffffffffffffffff1916901b90506040517f363d3d373d3d3d363d7100000000000000000000000000000000000000000000815281600a8201527f5af43d82803e903d91602957fd5bf30000000000000000000000000000000000601c82015260408101602b600082873c6020810151602083015114815183511416935050505092915050565b60008060108360601b6bffffffffffffffffffffffff1916901b90506040517f3d602b80600a3d3981f3363d3d373d3d3d363d7100000000000000000000000081528160148201527f5af43d82803e903d91602957fd5bf3000000000000000000000000000000000060268201526035816000f092505050919050565b6000813590506101bc816102b9565b92915050565b6000602082840312156101d457600080fd5b60006101e2848285016101ad565b91505092915050565b600080604083850312156101fe57600080fd5b600061020c858286016101ad565b925050602061021d858286016101ad565b9150509250929050565b6102308161027b565b82525050565b61023f8161028d565b82525050565b600060208201905061025a6000830184610227565b92915050565b60006020820190506102756000830184610236565b92915050565b600061028682610299565b9050919050565b60008115159050919050565b600073ffffffffffffffffffffffffffffffffffffffff82169050919050565b6102c28161027b565b81146102cd57600080fd5b5056fea26469706673582212203816db1594f8b172a5b78abb95b0310aeb3537cbe2b65cba503a3022a285a77e64736f6c63430008030033",
  "immutableReferences": {},
  "source": "// SPDX-License-Identifier: MIT\npragma solidity ^0.8.3;\n\n/*\nModified by Jack Proudfoot for solidity version ^0.8.3\n\nOriginal contract from: https://github.com/optionality/clone-factory and original license below:\n\nThe MIT License (MIT)\n\nCopyright (c) 2018 Murray Software, LLC.\n\nPermission is hereby granted, free of charge, to any person obtaining\na copy of this software and associated documentation files (the\n\"Software\"), to deal in the Software without restriction, including\nwithout limitation the rights to use, copy, modify, merge, publish,\ndistribute, sublicense, and/or sell copies of the Software, and to\npermit persons to whom the Software is furnished to do so, subject to\nthe following conditions:\n\nThe above copyright notice and this permission notice shall be included\nin all copies or substantial portions of the Software.\n\nTHE SOFTWARE IS PROVIDED \"AS IS\", WITHOUT WARRANTY OF ANY KIND, EXPRESS\nOR IMPLIED, INCLUDING BUT NOT LIMITED TO THE WARRANTIES OF\nMERCHANTABILITY, FITNESS FOR A PARTICULAR PURPOSE AND NONINFRINGEMENT.\nIN NO EVENT SHALL THE AUTHORS OR COPYRIGHT HOLDERS BE LIABLE FOR ANY\nCLAIM, DAMAGES OR OTHER LIABILITY, WHETHER IN AN ACTION OF CONTRACT,\nTORT OR OTHERWISE, ARISING FROM, OUT OF OR IN CONNECTION WITH THE\nSOFTWARE OR THE USE OR OTHER DEALINGS IN THE SOFTWARE.\n*/\n//solhint-disable max-line-length\n//solhint-disable no-inline-assembly\n\ncontract CloneFactory18 {\n\n  function createClone(address target) public returns (address result) {\n    bytes20 targetBytes = bytes20(target)<<16;\n    assembly {\n      let clone := mload(0x40)\n      mstore(clone, 0x3d602b80600a3d3981f3363d3d373d3d3d363d71000000000000000000000000)\n      mstore(add(clone, 0x14), targetBytes)\n      mstore(add(clone, 0x26), 0x5af43d82803e903d91602957fd5bf30000000000000000000000000000000000)\n      result := create(0, clone, 0x35)\n    }\n  }\n\n  function isClone(address target, address query) public view returns (bool result) {\n    bytes20 targetBytes = bytes20(target)<<16;\n    assembly {\n      let clone := mload(0x40)\n      mstore(clone, 0x363d3d373d3d3d363d7100000000000000000000000000000000000000000000)\n      mstore(add(clone, 0xa), targetBytes)\n      mstore(add(clone, 0x1c), 0x5af43d82803e903d91602957fd5bf30000000000000000000000000000000000)\n\n      let other := add(clone, 0x40)\n      extcodecopy(query, other, 0, 0x2b)\n\n      result := and(\n        eq(mload(clone), mload(other)), \n        eq(mload(add(clone, 0x20)), mload(add(other, 0x20)))\n      )\n    }\n  }\n}\n",
  "sourcePath": "/Users/jack/Coursework/blockchain-final-project/contracts/CloneFactory18.sol",
  "compiler": {
    "name": "solc",
    "version": "0.8.3+commit.8d00100c.Emscripten.clang"
  },
  "schemaVersion": "3.3.4",
  "updatedAt": "2021-04-19T16:01:58.624Z",
  "devdoc": {
    "kind": "dev",
    "methods": {},
    "version": 1
  },
  "userdoc": {
    "kind": "user",
    "methods": {},
    "version": 1
  }
}