{
  "contractName": "DeciMath",
  "abi": [
    {
      "inputs": [
        {
          "internalType": "uint256",
          "name": "x",
          "type": "uint256"
        },
        {
          "internalType": "uint256",
          "name": "y",
          "type": "uint256"
        }
      ],
      "name": "decMul18",
      "outputs": [
        {
          "internalType": "uint256",
          "name": "decProd",
          "type": "uint256"
        }
      ],
      "stateMutability": "pure",
      "type": "function"
    },
    {
      "inputs": [
        {
          "internalType": "uint256",
          "name": "x",
          "type": "uint256"
        },
        {
          "internalType": "uint256",
          "name": "y",
          "type": "uint256"
        }
      ],
      "name": "decDiv18",
      "outputs": [
        {
          "internalType": "uint256",
          "name": "decQuotient",
          "type": "uint256"
        }
      ],
      "stateMutability": "pure",
      "type": "function"
    },
    {
      "inputs": [
        {
          "internalType": "uint256",
          "name": "base",
          "type": "uint256"
        },
        {
          "internalType": "uint256",
          "name": "n",
          "type": "uint256"
        }
      ],
      "name": "powBySquare18",
      "outputs": [
        {
          "internalType": "uint256",
          "name": "",
          "type": "uint256"
        }
      ],
      "stateMutability": "pure",
      "type": "function"
    }
  ],
  "bytecode": "0x608060405234801561001057600080fd5b5061061a806100206000396000f3fe608060405234801561001057600080fd5b50600436106100415760003560e01c806334eceac01461004657806364ce07d814610076578063f7523c52146100a6575b600080fd5b610060600480360381019061005b9190610316565b6100d6565b60405161006d91906103a4565b60405180910390f35b610090600480360381019061008b9190610316565b61019e565b60405161009d91906103a4565b60405180910390f35b6100c060048036038101906100bb9190610316565b6101df565b6040516100cd91906103a4565b60405180910390f35b6000808214156100f057670de0b6b3a76400009050610198565b6000670de0b6b3a764000090505b600183111561018a57600060028461011691906104ef565b141561013c5761012684856101df565b93506002836101359190610426565b9250610185565b600060028461014b91906104ef565b146101845761015a84826101df565b905061016684856101df565b9350600260018461017791906104b1565b6101819190610426565b92505b5b6100fe565b61019484826101df565b9150505b92915050565b6000806101b384670de0b6b3a7640000610228565b9050826101cc826002866101c79190610426565b6102a3565b6101d69190610426565b91505092915050565b6000806101ec8484610228565b9050670de0b6b3a7640000610215826002670de0b6b3a76400006102109190610426565b6102a3565b61021f9190610426565b91505092915050565b60008083141561023b576000905061029d565b600082846102499190610457565b90508284826102589190610426565b14610298576040517f08c379a000000000000000000000000000000000000000000000000000000000815260040161028f90610384565b60405180910390fd5b809150505b92915050565b60008082846102b291906103d0565b9050838110156102f7576040517f08c379a00000000000000000000000000000000000000000000000000000000081526004016102ee90610384565b60405180910390fd5b8091505092915050565b600081359050610310816105cd565b92915050565b6000806040838503121561032957600080fd5b600061033785828601610301565b925050602061034885828601610301565b9150509250929050565b600061035f6021836103bf565b915061036a8261057e565b604082019050919050565b61037e816104e5565b82525050565b6000602082019050818103600083015261039d81610352565b9050919050565b60006020820190506103b96000830184610375565b92915050565b600082825260208201905092915050565b60006103db826104e5565b91506103e6836104e5565b9250827fffffffffffffffffffffffffffffffffffffffffffffffffffffffffffffffff0382111561041b5761041a610520565b5b828201905092915050565b6000610431826104e5565b915061043c836104e5565b92508261044c5761044b61054f565b5b828204905092915050565b6000610462826104e5565b915061046d836104e5565b9250817fffffffffffffffffffffffffffffffffffffffffffffffffffffffffffffffff04831182151516156104a6576104a5610520565b5b828202905092915050565b60006104bc826104e5565b91506104c7836104e5565b9250828210156104da576104d9610520565b5b828203905092915050565b6000819050919050565b60006104fa826104e5565b9150610505836104e5565b9250826105155761051461054f565b5b828206905092915050565b7f4e487b7100000000000000000000000000000000000000000000000000000000600052601160045260246000fd5b7f4e487b7100000000000000000000000000000000000000000000000000000000600052601260045260246000fd5b7f75696e74206f766572666c6f772066726f6d206d756c7469706c69636174696f60008201527f6e00000000000000000000000000000000000000000000000000000000000000602082015250565b6105d6816104e5565b81146105e157600080fd5b5056fea2646970667358221220fc3eb82b43dbb10730cd18758038295ed8d4f95c8c7c2b631bc55a24130a513464736f6c63430008030033",
  "immutableReferences": {},
  "source": "//SPDX-License-Identifier: MIT\npragma solidity ^0.8.3;\n\n/**\n* @author RickGriff\n* This fixed 18 decimal point math library was created by https://github.com/RickGriff/decimath\n* I modified the original library by removing any extraneous functions not needed to keep only the ability to do exponentiation\n*/\n\ncontract DeciMath {\n\n  // Abbreviation: DP stands for 'Decimal Places' \n\n  uint constant TEN18 = 10**18;\n\n\n   /******  BASIC MATH OPERATORS ******/\n\n  // Integer math operators. Identical to Zeppelin's SafeMath\n  function mul(uint256 a, uint256 b) internal pure returns (uint256) {\n    if (a == 0) {\n        return 0;\n    }\n    uint256 c = a * b;\n    require(c / a == b, \"uint overflow from multiplication\");\n    return c;\n  }\n\n  function add(uint256 a, uint256 b) internal pure returns (uint256) {\n    uint256 c = a + b;\n    require(c >= a, \"uint overflow from multiplication\");\n    return c;\n  }\n\n  // Basic decimal math operators. Inputs and outputs are uint representations of fixed-point decimals.\n\n  // 18 Decimal places\n  function decMul18(uint x, uint y) public pure returns (uint decProd) {\n    uint prod_xy = mul(x, y);\n    decProd = add(prod_xy, TEN18 / 2) / TEN18;\n  }\n\n  function decDiv18(uint x, uint y) public pure returns (uint decQuotient) {\n    uint prod_xTEN18 = mul(x, TEN18);\n    decQuotient = add(prod_xTEN18, y / 2) / y;\n  }\n\n\n  // b^x - fixed-point 18 DP base, integer exponent\n  function powBySquare18(uint base, uint n) public pure returns (uint) {\n    if (n == 0)\n    return TEN18;\n\n    uint y = TEN18;\n\n    while (n > 1) {\n      if (n % 2 == 0) {\n        base = decMul18(base, base);\n        n = n / 2;\n      } else if (n % 2 != 0) {\n        y = decMul18(base, y);\n        base = decMul18(base, base);\n        n = (n - 1)/2;\n      }\n    }\n    return decMul18(base, y);\n  }\n\n}",
  "sourcePath": "/Users/jack/Coursework/blockchain-final-project/contracts/DeciMath.sol",
  "compiler": {
    "name": "solc",
    "version": "0.8.3+commit.8d00100c.Emscripten.clang"
  },
  "schemaVersion": "3.3.4",
  "updatedAt": "2021-04-20T04:05:27.187Z",
  "devdoc": {
    "author": "RickGriff This fixed 18 decimal point math library was created by https://github.com/RickGriff/decimath I modified the original library by removing any extraneous functions not needed to keep only the ability to do exponentiation",
    "kind": "dev",
    "methods": {},
    "version": 1
  },
  "userdoc": {
    "kind": "user",
    "methods": {},
    "version": 1
  }
}