{
  "contractName": "LoanProvider",
  "abi": [
    {
      "inputs": [
        {
          "internalType": "string",
          "name": "baseuri_",
          "type": "string"
        },
        {
          "internalType": "address",
          "name": "loanTokenContract_",
          "type": "address"
        },
        {
          "internalType": "address",
          "name": "stablecoinContract_",
          "type": "address"
        },
        {
          "internalType": "address",
          "name": "walletAddress_",
          "type": "address"
        }
      ],
      "stateMutability": "nonpayable",
      "type": "constructor"
    },
    {
      "anonymous": false,
      "inputs": [
        {
          "indexed": false,
          "internalType": "uint256",
          "name": "id",
          "type": "uint256"
        }
      ],
      "name": "LoanApplicationCreated",
      "type": "event"
    },
    {
      "anonymous": false,
      "inputs": [
        {
          "indexed": false,
          "internalType": "uint256",
          "name": "id",
          "type": "uint256"
        },
        {
          "indexed": false,
          "internalType": "uint256",
          "name": "amount",
          "type": "uint256"
        }
      ],
      "name": "LoanApplicationSupported",
      "type": "event"
    },
    {
      "anonymous": false,
      "inputs": [
        {
          "indexed": false,
          "internalType": "address",
          "name": "loanTokenAddress",
          "type": "address"
        }
      ],
      "name": "LoanTokenCreated",
      "type": "event"
    },
    {
      "anonymous": false,
      "inputs": [
        {
          "indexed": true,
          "internalType": "address",
          "name": "previousOwner",
          "type": "address"
        },
        {
          "indexed": true,
          "internalType": "address",
          "name": "newOwner",
          "type": "address"
        }
      ],
      "name": "OwnershipTransferred",
      "type": "event"
    },
    {
      "inputs": [
        {
          "internalType": "uint256",
          "name": "",
          "type": "uint256"
        }
      ],
      "name": "_loanTokens",
      "outputs": [
        {
          "internalType": "address",
          "name": "",
          "type": "address"
        }
      ],
      "stateMutability": "view",
      "type": "function",
      "constant": true
    },
    {
      "inputs": [
        {
          "internalType": "uint256",
          "name": "",
          "type": "uint256"
        }
      ],
      "name": "escrows",
      "outputs": [
        {
          "internalType": "uint256",
          "name": "tokenAmount",
          "type": "uint256"
        },
        {
          "internalType": "uint256",
          "name": "tokenReceived",
          "type": "uint256"
        },
        {
          "internalType": "address",
          "name": "recipient",
          "type": "address"
        }
      ],
      "stateMutability": "view",
      "type": "function",
      "constant": true
    },
    {
      "inputs": [],
      "name": "owner",
      "outputs": [
        {
          "internalType": "address",
          "name": "",
          "type": "address"
        }
      ],
      "stateMutability": "view",
      "type": "function",
      "constant": true
    },
    {
      "inputs": [],
      "name": "renounceOwnership",
      "outputs": [],
      "stateMutability": "nonpayable",
      "type": "function"
    },
    {
      "inputs": [
        {
          "internalType": "address",
          "name": "newOwner",
          "type": "address"
        }
      ],
      "name": "transferOwnership",
      "outputs": [],
      "stateMutability": "nonpayable",
      "type": "function"
    },
    {
      "inputs": [
        {
          "internalType": "uint256",
          "name": "tokenAmount",
          "type": "uint256"
        },
        {
          "internalType": "uint256",
          "name": "rate",
          "type": "uint256"
        }
      ],
      "name": "createLoan",
      "outputs": [
        {
          "internalType": "uint256",
          "name": "",
          "type": "uint256"
        }
      ],
      "stateMutability": "nonpayable",
      "type": "function"
    },
    {
      "inputs": [
        {
          "internalType": "uint256",
          "name": "loanID",
          "type": "uint256"
        },
        {
          "internalType": "uint256",
          "name": "amount",
          "type": "uint256"
        }
      ],
      "name": "supportLoan",
      "outputs": [],
      "stateMutability": "nonpayable",
      "type": "function"
    },
    {
      "inputs": [
        {
          "internalType": "uint256",
          "name": "loanID",
          "type": "uint256"
        }
      ],
      "name": "claimPrinciple",
      "outputs": [],
      "stateMutability": "nonpayable",
      "type": "function"
    },
    {
      "inputs": [
        {
          "internalType": "uint256",
          "name": "_amount",
          "type": "uint256"
        },
        {
          "internalType": "uint256",
          "name": "_loanID",
          "type": "uint256"
        }
      ],
      "name": "makePayment",
      "outputs": [],
      "stateMutability": "nonpayable",
      "type": "function"
    },
    {
      "inputs": [
        {
          "internalType": "address",
          "name": "_to",
          "type": "address"
        },
        {
          "internalType": "uint256",
          "name": "_amount",
          "type": "uint256"
        }
      ],
      "name": "allocateStablecoinProxy",
      "outputs": [],
      "stateMutability": "nonpayable",
      "type": "function"
    },
    {
      "inputs": [],
      "name": "totalApplications",
      "outputs": [
        {
          "internalType": "uint256",
          "name": "",
          "type": "uint256"
        }
      ],
      "stateMutability": "view",
      "type": "function",
      "constant": true
    },
    {
      "inputs": [
        {
          "internalType": "string",
          "name": "_newUri",
          "type": "string"
        }
      ],
      "name": "setURI",
      "outputs": [],
      "stateMutability": "nonpayable",
      "type": "function"
    }
  ],
  "bytecode": "0x608060405260006005553480156200001657600080fd5b50604051620023a8380380620023a883398181016040528101906200003c919062000313565b60006200004e620001d260201b60201c565b9050806000806101000a81548173ffffffffffffffffffffffffffffffffffffffff021916908373ffffffffffffffffffffffffffffffffffffffff1602179055508073ffffffffffffffffffffffffffffffffffffffff16600073ffffffffffffffffffffffffffffffffffffffff167f8be0079c531659141344cd1fd0a4f28419497f9722a3daafe3b4186f6b6457e060405160405180910390a350836001908051906020019062000104929190620001da565b5082600260006101000a81548173ffffffffffffffffffffffffffffffffffffffff021916908373ffffffffffffffffffffffffffffffffffffffff16021790555081600360006101000a81548173ffffffffffffffffffffffffffffffffffffffff021916908373ffffffffffffffffffffffffffffffffffffffff16021790555080600460006101000a81548173ffffffffffffffffffffffffffffffffffffffff021916908373ffffffffffffffffffffffffffffffffffffffff1602179055505050505062000556565b600033905090565b828054620001e89062000461565b90600052602060002090601f0160209004810192826200020c576000855562000258565b82601f106200022757805160ff191683800117855562000258565b8280016001018555821562000258579182015b82811115620002575782518255916020019190600101906200023a565b5b5090506200026791906200026b565b5090565b5b80821115620002865760008160009055506001016200026c565b5090565b6000620002a16200029b84620003c1565b62000398565b905082815260208101848484011115620002ba57600080fd5b620002c78482856200042b565b509392505050565b600081519050620002e0816200053c565b92915050565b600082601f830112620002f857600080fd5b81516200030a8482602086016200028a565b91505092915050565b600080600080608085870312156200032a57600080fd5b600085015167ffffffffffffffff8111156200034557600080fd5b6200035387828801620002e6565b94505060206200036687828801620002cf565b93505060406200037987828801620002cf565b92505060606200038c87828801620002cf565b91505092959194509250565b6000620003a4620003b7565b9050620003b2828262000497565b919050565b6000604051905090565b600067ffffffffffffffff821115620003df57620003de620004fc565b5b620003ea826200052b565b9050602081019050919050565b600062000404826200040b565b9050919050565b600073ffffffffffffffffffffffffffffffffffffffff82169050919050565b60005b838110156200044b5780820151818401526020810190506200042e565b838111156200045b576000848401525b50505050565b600060028204905060018216806200047a57607f821691505b60208210811415620004915762000490620004cd565b5b50919050565b620004a2826200052b565b810181811067ffffffffffffffff82111715620004c457620004c3620004fc565b5b80604052505050565b7f4e487b7100000000000000000000000000000000000000000000000000000000600052602260045260246000fd5b7f4e487b7100000000000000000000000000000000000000000000000000000000600052604160045260246000fd5b6000601f19601f8301169050919050565b6200054781620003f7565b81146200055357600080fd5b50565b611e4280620005666000396000f3fe608060405234801561001057600080fd5b50600436106100b45760003560e01c8063a761135611610071578063a76113561461017b578063a783e09814610199578063c228ba13146101b5578063d390f974146101d1578063f2fde38b146101ed578063fbdaa24d14610209576100b4565b8063012f52ee146100b957806302fe5305146100eb578063715018a6146101075780638da5cb5b1461011157806398cd90b51461012f578063a09ef1511461015f575b600080fd5b6100d360048036038101906100ce919061157a565b610239565b6040516100e293929190611944565b60405180910390f35b61010560048036038101906101009190611539565b610283565b005b61010f610319565b005b610119610453565b604051610126919061171b565b60405180910390f35b610149600480360381019061014491906115cc565b61047c565b60405161015691906118ad565b60405180910390f35b6101796004803603810190610174919061157a565b610728565b005b610183610952565b60405161019091906118ad565b60405180910390f35b6101b360048036038101906101ae91906114d4565b61095c565b005b6101cf60048036038101906101ca91906115cc565b610a81565b005b6101eb60048036038101906101e691906115cc565b610de4565b005b610207600480360381019061020291906114ab565b611093565b005b610223600480360381019061021e919061157a565b61123c565b604051610230919061171b565b60405180910390f35b60066020528060005260406000206000915090508060000154908060010154908060020160009054906101000a900473ffffffffffffffffffffffffffffffffffffffff16905083565b61028b61126f565b73ffffffffffffffffffffffffffffffffffffffff166102a9610453565b73ffffffffffffffffffffffffffffffffffffffff16146102ff576040517f08c379a00000000000000000000000000000000000000000000000000000000081526004016102f69061180d565b60405180910390fd5b806001908051906020019061031592919061134c565b5050565b61032161126f565b73ffffffffffffffffffffffffffffffffffffffff1661033f610453565b73ffffffffffffffffffffffffffffffffffffffff1614610395576040517f08c379a000000000000000000000000000000000000000000000000000000000815260040161038c9061180d565b60405180910390fd5b600073ffffffffffffffffffffffffffffffffffffffff1660008054906101000a900473ffffffffffffffffffffffffffffffffffffffff1673ffffffffffffffffffffffffffffffffffffffff167f8be0079c531659141344cd1fd0a4f28419497f9722a3daafe3b4186f6b6457e060405160405180910390a360008060006101000a81548173ffffffffffffffffffffffffffffffffffffffff021916908373ffffffffffffffffffffffffffffffffffffffff160217905550565b60008060009054906101000a900473ffffffffffffffffffffffffffffffffffffffff16905090565b60008060055490506040518060600160405280858152602001600081526020013373ffffffffffffffffffffffffffffffffffffffff1681525060066000838152602001908152602001600020600082015181600001556020820151816001015560408201518160020160006101000a81548173ffffffffffffffffffffffffffffffffffffffff021916908373ffffffffffffffffffffffffffffffffffffffff16021790555090505060016005600082825461053a91906119e2565b925050819055507f6ae7d5d2e4c83f7a1515fc358772fba4ca2e2ee6bef778819a0e1e28d59b712a8160405161057091906118ad565b60405180910390a160006105a5600260009054906101000a900473ffffffffffffffffffffffffffffffffffffffff16611277565b90508073ffffffffffffffffffffffffffffffffffffffff16639dd22a3e8330600460009054906101000a900473ffffffffffffffffffffffffffffffffffffffff1689896040518663ffffffff1660e01b815260040161060a9594939291906118c8565b600060405180830381600087803b15801561062457600080fd5b505af1158015610638573d6000803e3d6000fd5b505050507f76798570126d3c18775ba46bf883a4be57792ec5f030d32af263b8b1a013cee08160405161066b919061171b565b60405180910390a1806007600084815260200190815260200160002060006101000a81548173ffffffffffffffffffffffffffffffffffffffff021916908373ffffffffffffffffffffffffffffffffffffffff1602179055506001600860008373ffffffffffffffffffffffffffffffffffffffff1673ffffffffffffffffffffffffffffffffffffffff16815260200190815260200160002060006101000a81548160ff021916908315150217905550819250505092915050565b600554811061073657600080fd5b3373ffffffffffffffffffffffffffffffffffffffff166006600083815260200190815260200160002060020160009054906101000a900473ffffffffffffffffffffffffffffffffffffffff1673ffffffffffffffffffffffffffffffffffffffff16146107a457600080fd5b60066000828152602001908152602001600020600101546006600083815260200190815260200160002060000154146107dc57600080fd5b60006007600083815260200190815260200160002060009054906101000a900473ffffffffffffffffffffffffffffffffffffffff1690508073ffffffffffffffffffffffffffffffffffffffff16632c68b45e436040518263ffffffff1660e01b815260040161084d91906118ad565b600060405180830381600087803b15801561086757600080fd5b505af115801561087b573d6000803e3d6000fd5b505050506000600460009054906101000a900473ffffffffffffffffffffffffffffffffffffffff1690508073ffffffffffffffffffffffffffffffffffffffff1663dbba0f01336006600087815260200190815260200160002060000154600360009054906101000a900473ffffffffffffffffffffffffffffffffffffffff166040518463ffffffff1660e01b815260040161091b93929190611796565b600060405180830381600087803b15801561093557600080fd5b505af1158015610949573d6000803e3d6000fd5b50505050505050565b6000600554905090565b600860003373ffffffffffffffffffffffffffffffffffffffff1673ffffffffffffffffffffffffffffffffffffffff16815260200190815260200160002060009054906101000a900460ff166109e8576040517f08c379a00000000000000000000000000000000000000000000000000000000081526004016109df9061188d565b60405180910390fd5b6000600460009054906101000a900473ffffffffffffffffffffffffffffffffffffffff1690508073ffffffffffffffffffffffffffffffffffffffff1663959e94df84846040518363ffffffff1660e01b8152600401610a4a92919061176d565b600060405180830381600087803b158015610a6457600080fd5b505af1158015610a78573d6000803e3d6000fd5b50505050505050565b6005548210610ac5576040517f08c379a0000000000000000000000000000000000000000000000000000000008152600401610abc9061184d565b60405180910390fd5b6000600660008481526020019081526020016000206000015411610ae857600080fd5b6006600083815260200190815260200160002060010154600660008481526020019081526020016000206000015411610b56576040517f08c379a0000000000000000000000000000000000000000000000000000000008152600401610b4d9061186d565b60405180910390fd5b60008190508160066000858152602001908152602001600020600101546006600086815260200190815260200160002060000154610b949190611a38565b1015610bd55760066000848152602001908152602001600020600101546006600085815260200190815260200160002060000154610bd29190611a38565b90505b6000600360009054906101000a900473ffffffffffffffffffffffffffffffffffffffff1690508073ffffffffffffffffffffffffffffffffffffffff166323b872dd33600460009054906101000a900473ffffffffffffffffffffffffffffffffffffffff16856040518463ffffffff1660e01b8152600401610c5b93929190611736565b602060405180830381600087803b158015610c7557600080fd5b505af1158015610c89573d6000803e3d6000fd5b505050506040513d601f19601f82011682018060405250810190610cad9190611510565b5081600660008681526020019081526020016000206001016000828254610cd491906119e2565b925050819055506000600460009054906101000a900473ffffffffffffffffffffffffffffffffffffffff1690508073ffffffffffffffffffffffffffffffffffffffff1663dbba0f013386600760008a815260200190815260200160002060009054906101000a900473ffffffffffffffffffffffffffffffffffffffff166040518463ffffffff1660e01b8152600401610d7293929190611796565b600060405180830381600087803b158015610d8c57600080fd5b505af1158015610da0573d6000803e3d6000fd5b505050507f2048bf7de536ede15bdb393f3db10e18ee461090484ae875114977320d2fd7318584604051610dd592919061191b565b60405180910390a15050505050565b6005548110610df257600080fd5b6006600082815260200190815260200160002060010154600660008381526020019081526020016000206000015414610e2a57600080fd5b60006007600083815260200190815260200160002060009054906101000a900473ffffffffffffffffffffffffffffffffffffffff16905060008173ffffffffffffffffffffffffffffffffffffffff1663cca05b4a436040518263ffffffff1660e01b8152600401610e9d91906118ad565b60206040518083038186803b158015610eb557600080fd5b505afa158015610ec9573d6000803e3d6000fd5b505050506040513d601f19601f82011682018060405250810190610eed91906115a3565b905060008111610f32576040517f08c379a0000000000000000000000000000000000000000000000000000000008152600401610f299061182d565b60405180910390fd5b6000818510610f415781610f43565b845b90506000600360009054906101000a900473ffffffffffffffffffffffffffffffffffffffff1690508073ffffffffffffffffffffffffffffffffffffffff166323b872dd33600460009054906101000a900473ffffffffffffffffffffffffffffffffffffffff16856040518463ffffffff1660e01b8152600401610fcb93929190611736565b602060405180830381600087803b158015610fe557600080fd5b505af1158015610ff9573d6000803e3d6000fd5b505050506040513d601f19601f8201168201806040525081019061101d9190611510565b508373ffffffffffffffffffffffffffffffffffffffff1663df9d58ff83436040518363ffffffff1660e01b815260040161105992919061191b565b600060405180830381600087803b15801561107357600080fd5b505af1158015611087573d6000803e3d6000fd5b50505050505050505050565b61109b61126f565b73ffffffffffffffffffffffffffffffffffffffff166110b9610453565b73ffffffffffffffffffffffffffffffffffffffff161461110f576040517f08c379a00000000000000000000000000000000000000000000000000000000081526004016111069061180d565b60405180910390fd5b600073ffffffffffffffffffffffffffffffffffffffff168173ffffffffffffffffffffffffffffffffffffffff16141561117f576040517f08c379a0000000000000000000000000000000000000000000000000000000008152600401611176906117cd565b60405180910390fd5b8073ffffffffffffffffffffffffffffffffffffffff1660008054906101000a900473ffffffffffffffffffffffffffffffffffffffff1673ffffffffffffffffffffffffffffffffffffffff167f8be0079c531659141344cd1fd0a4f28419497f9722a3daafe3b4186f6b6457e060405160405180910390a3806000806101000a81548173ffffffffffffffffffffffffffffffffffffffff021916908373ffffffffffffffffffffffffffffffffffffffff16021790555050565b60076020528060005260406000206000915054906101000a900473ffffffffffffffffffffffffffffffffffffffff1681565b600033905090565b60006040517f3d602d80600a3d3981f3363d3d373d3d3d363d7300000000000000000000000081528260601b60148201527f5af43d82803e903d91602b57fd5bf3000000000000000000000000000000000060288201526037816000f0915050600073ffffffffffffffffffffffffffffffffffffffff168173ffffffffffffffffffffffffffffffffffffffff161415611347576040517f08c379a000000000000000000000000000000000000000000000000000000000815260040161133e906117ed565b60405180910390fd5b919050565b82805461135890611ac3565b90600052602060002090601f01602090048101928261137a57600085556113c1565b82601f1061139357805160ff19168380011785556113c1565b828001600101855582156113c1579182015b828111156113c05782518255916020019190600101906113a5565b5b5090506113ce91906113d2565b5090565b5b808211156113eb5760008160009055506001016113d3565b5090565b60006114026113fd846119a0565b61197b565b90508281526020810184848401111561141a57600080fd5b611425848285611ab4565b509392505050565b60008135905061143c81611dc7565b92915050565b60008151905061145181611dde565b92915050565b600082601f83011261146857600080fd5b81356114788482602086016113ef565b91505092915050565b60008135905061149081611df5565b92915050565b6000815190506114a581611df5565b92915050565b6000602082840312156114bd57600080fd5b60006114cb8482850161142d565b91505092915050565b600080604083850312156114e757600080fd5b60006114f58582860161142d565b925050602061150685828601611481565b9150509250929050565b60006020828403121561152257600080fd5b600061153084828501611442565b91505092915050565b60006020828403121561154b57600080fd5b600082013567ffffffffffffffff81111561156557600080fd5b61157184828501611457565b91505092915050565b60006020828403121561158c57600080fd5b600061159a84828501611481565b91505092915050565b6000602082840312156115b557600080fd5b60006115c384828501611496565b91505092915050565b600080604083850312156115df57600080fd5b60006115ed85828601611481565b92505060206115fe85828601611481565b9150509250929050565b61161181611a6c565b82525050565b60006116246026836119d1565b915061162f82611bc4565b604082019050919050565b60006116476016836119d1565b915061165282611c13565b602082019050919050565b600061166a6020836119d1565b915061167582611c3c565b602082019050919050565b600061168d6043836119d1565b915061169882611c65565b606082019050919050565b60006116b0601d836119d1565b91506116bb82611cda565b602082019050919050565b60006116d36022836119d1565b91506116de82611d03565b604082019050919050565b60006116f66043836119d1565b915061170182611d52565b606082019050919050565b61171581611aaa565b82525050565b60006020820190506117306000830184611608565b92915050565b600060608201905061174b6000830186611608565b6117586020830185611608565b611765604083018461170c565b949350505050565b60006040820190506117826000830185611608565b61178f602083018461170c565b9392505050565b60006060820190506117ab6000830186611608565b6117b8602083018561170c565b6117c56040830184611608565b949350505050565b600060208201905081810360008301526117e681611617565b9050919050565b600060208201905081810360008301526118068161163a565b9050919050565b600060208201905081810360008301526118268161165d565b9050919050565b6000602082019050818103600083015261184681611680565b9050919050565b60006020820190508181036000830152611866816116a3565b9050919050565b60006020820190508181036000830152611886816116c6565b9050919050565b600060208201905081810360008301526118a6816116e9565b9050919050565b60006020820190506118c2600083018461170c565b92915050565b600060a0820190506118dd600083018861170c565b6118ea6020830187611608565b6118f76040830186611608565b611904606083018561170c565b611911608083018461170c565b9695505050505050565b6000604082019050611930600083018561170c565b61193d602083018461170c565b9392505050565b6000606082019050611959600083018661170c565b611966602083018561170c565b6119736040830184611608565b949350505050565b6000611985611996565b90506119918282611af5565b919050565b6000604051905090565b600067ffffffffffffffff8211156119bb576119ba611b84565b5b6119c482611bb3565b9050602081019050919050565b600082825260208201905092915050565b60006119ed82611aaa565b91506119f883611aaa565b9250827fffffffffffffffffffffffffffffffffffffffffffffffffffffffffffffffff03821115611a2d57611a2c611b26565b5b828201905092915050565b6000611a4382611aaa565b9150611a4e83611aaa565b925082821015611a6157611a60611b26565b5b828203905092915050565b6000611a7782611a8a565b9050919050565b60008115159050919050565b600073ffffffffffffffffffffffffffffffffffffffff82169050919050565b6000819050919050565b82818337600083830152505050565b60006002820490506001821680611adb57607f821691505b60208210811415611aef57611aee611b55565b5b50919050565b611afe82611bb3565b810181811067ffffffffffffffff82111715611b1d57611b1c611b84565b5b80604052505050565b7f4e487b7100000000000000000000000000000000000000000000000000000000600052601160045260246000fd5b7f4e487b7100000000000000000000000000000000000000000000000000000000600052602260045260246000fd5b7f4e487b7100000000000000000000000000000000000000000000000000000000600052604160045260246000fd5b6000601f19601f8301169050919050565b7f4f776e61626c653a206e6577206f776e657220697320746865207a65726f206160008201527f6464726573730000000000000000000000000000000000000000000000000000602082015250565b7f455243313136373a20637265617465206661696c656400000000000000000000600082015250565b7f4f776e61626c653a2063616c6c6572206973206e6f7420746865206f776e6572600082015250565b7f4c6f616e50726f76696465723a204c6f616e206d75737420686176652062616c60008201527f616e63652067726561746572207468616e203020746f206d616b65207061796d60208201527f656e740000000000000000000000000000000000000000000000000000000000604082015250565b7f4c6f616e50726f76696465723a20496e76616c6964204c6f616e204944000000600082015250565b7f4c6f616e50726f76696465723a204c6f616e2066756c6c7920737570706f727460008201527f6564000000000000000000000000000000000000000000000000000000000000602082015250565b7f4c6f616e50726f76696465723a2050726f78792063616e206f6e6c792062652060008201527f63616c6c65642066726f6d2076616c696420446563656e74204c6f616e20546f60208201527f6b656e0000000000000000000000000000000000000000000000000000000000604082015250565b611dd081611a6c565b8114611ddb57600080fd5b50565b611de781611a7e565b8114611df257600080fd5b50565b611dfe81611aaa565b8114611e0957600080fd5b5056fea264697066735822122047390b18e6bd8833ae8582844fe77d5893acda61f4c9bb224ed14cdb1010d22164736f6c63430008030033",
  "immutableReferences": {},
  "source": "//SPDX-License-Identifier: MIT\npragma solidity ^0.8.3;\n\nimport \"./Wallet.sol\";\nimport \"./LoanToken.sol\";\nimport \"@openzeppelin/contracts/access/Ownable.sol\";\nimport \"@openzeppelin/contracts/token/ERC20/IERC20.sol\";\nimport \"@openzeppelin/contracts/utils/Strings.sol\";\nimport \"@openzeppelin/contracts/proxy/Clones.sol\";\n\n/**\n * @author Jack Proudfoot\n * @dev Primary contract for providing Decent Loans. Handles loan applications, Decent Loan Token creation, loan payments, and distribution payments.\n *\n * Escrow functionality inspired by: https://github.com/axic/ethereum-tokenescrow/blob/master/tokenescrow.sol\n */\ncontract LoanProvider is Ownable {\n    string private _baseuri;\n\n    address private _loanTokenContract;\n    address private _stablecoinContract;\n    address private _walletAddress;\n\n    uint256 private _totalApplications = 0;\n\n    mapping (uint256 => Escrow) public escrows;\n\n    mapping (uint256 => address) public _loanTokens;\n    mapping (address => bool) _validToken;\n\n    struct Escrow {\n        uint256 tokenAmount;\n        uint256 tokenReceived;\n        address recipient;\n    }\n\n    event LoanApplicationCreated(uint256 id);\n    event LoanApplicationSupported(uint256 id, uint256 amount);\n    event LoanTokenCreated(address loanTokenAddress);\n\n\n    /**\n    * @dev Sets the values for {baseuri} and {loanTokenContract}\n    */\n    constructor (string memory baseuri_, address loanTokenContract_, address stablecoinContract_, address walletAddress_) {\n        _baseuri = baseuri_;\n        _loanTokenContract = loanTokenContract_;\n        _stablecoinContract = stablecoinContract_;\n        _walletAddress = walletAddress_;\n    }\n\n    /** \n    * @dev Create a new loan application with principle balance of `tokenAmount` and rate of `rate`\n    */\n    function createLoan(uint256 tokenAmount, uint256 rate) public returns (uint256) {\n        uint256 _loanID = _totalApplications;\n        \n        escrows[_loanID] = Escrow(tokenAmount, 0, msg.sender);\n\n        _totalApplications += 1;\n\n        LoanApplicationCreated(_loanID);\n\n        address _newLoanToken = Clones.clone(_loanTokenContract);\n        LoanToken(_newLoanToken).init(_loanID, address(this), _walletAddress, tokenAmount, rate);\n        \n        LoanTokenCreated(_newLoanToken);\n\n        _loanTokens[_loanID] = _newLoanToken;\n        _validToken[_newLoanToken] = true;\n\n        return _loanID;\n    }\n\n    /** \n    * @dev Provide `amount` tokens to the escrow for loan `loanID` in exchange for Decent Loan Tokens\n    */\n    function supportLoan(uint256 loanID, uint256 amount) public {\n        require(loanID < _totalApplications, \"LoanProvider: Invalid Loan ID\");\n        require(escrows[loanID].tokenAmount > 0);\n        require(escrows[loanID].tokenAmount > escrows[loanID].tokenReceived, \"LoanProvider: Loan fully supported\");\n\n        uint256 balanceToSend = amount;\n        if (escrows[loanID].tokenAmount - escrows[loanID].tokenReceived < amount) {\n            balanceToSend = escrows[loanID].tokenAmount - escrows[loanID].tokenReceived;\n        }\n\n        IERC20 token = IERC20(_stablecoinContract);\n\n        // transfer stablecoin tokens to this smart contract\n        token.transferFrom(msg.sender, _walletAddress, balanceToSend);\n\n        escrows[loanID].tokenReceived += balanceToSend;\n\n        // transfer DLT to the lender\n        Wallet wallet = Wallet(_walletAddress);\n        wallet.transfer(msg.sender, amount, _loanTokens[loanID]);\n\n        LoanApplicationSupported(loanID, balanceToSend);\n    }\n\n    /**\n    * @dev Used by the loan recipient to claim the principle of loan with ID `loanID`\n    */\n    function claimPrinciple(uint256 loanID) public {\n        require(loanID < _totalApplications);\n        require(escrows[loanID].recipient == msg.sender);   // only allow recipient to claim principle\n        require(escrows[loanID].tokenAmount == escrows[loanID].tokenReceived);  // only allow principle to be claimed when fully supported\n\n        // activate DLT\n        LoanToken loanToken = LoanToken(_loanTokens[loanID]);\n        loanToken.activateToken(block.number);\n\n        Wallet wallet = Wallet(_walletAddress);\n        wallet.transfer(msg.sender, escrows[loanID].tokenAmount, _stablecoinContract);\n    }\n\n\n    /**\n    * @dev Makes a payment of `amount` for loan with ID `loanID`\n    */\n    function makePayment(uint256 _amount, uint256 _loanID) public {\n        require(_loanID < _totalApplications);\n        require(escrows[_loanID].tokenAmount == escrows[_loanID].tokenReceived);\n\n        LoanToken loanToken = LoanToken(_loanTokens[_loanID]);\n        uint256 currentBalance = loanToken.balanceAtBlock(block.number);\n        require(currentBalance > 0, \"LoanProvider: Loan must have balance greater than 0 to make payment\");\n\n        uint256 payment = _amount < currentBalance ? _amount : currentBalance;\n\n        IERC20 stablecoin = IERC20(_stablecoinContract);\n        stablecoin.transferFrom(msg.sender, _walletAddress, payment);\n\n\n        loanToken.processPayment(payment, block.number);\n\n    }\n\n    /**\n    * @dev Acts as a proxy for updating unclaimed stablecoin balances from DLTs\n    */\n    function allocateStablecoinProxy(address _to, uint256 _amount) public {\n        require(_validToken[msg.sender], \"LoanProvider: Proxy can only be called from valid Decent Loan Token\");\n\n        Wallet wallet = Wallet(_walletAddress);\n        wallet.allocateStablecoins(_to, _amount);\n    }\n\n\n    // /* Get the URI for the loan application data */\n    // function getURI(uint256 applicationID) public view returns (string memory) {\n    //     return string(abi.encodePacked(_baseuri, applicationID.toString()));\n    // }\n\n    /**\n    * @dev Returns the total number of applications that have been created \n    */\n    function totalApplications() public view returns (uint256) {\n        return _totalApplications;\n    }\n\n    /* Sets the base uri for the loan application data */\n    function setURI(string memory _newUri) public onlyOwner {\n        _baseuri = _newUri;\n    }\n\n}",
  "sourcePath": "/Users/jack/Coursework/blockchain-final-project/contracts/LoanProvider.sol",
  "compiler": {
    "name": "solc",
    "version": "0.8.3+commit.8d00100c.Emscripten.clang"
  },
  "schemaVersion": "3.3.4",
  "updatedAt": "2021-04-22T01:01:26.420Z",
  "networkType": "ethereum",
  "devdoc": {
    "author": "Jack Proudfoot",
    "details": "Primary contract for providing Decent Loans. Handles loan applications, Decent Loan Token creation, loan payments, and distribution payments. Escrow functionality inspired by: https://github.com/axic/ethereum-tokenescrow/blob/master/tokenescrow.sol",
    "kind": "dev",
    "methods": {
      "allocateStablecoinProxy(address,uint256)": {
        "details": "Acts as a proxy for updating unclaimed stablecoin balances from DLTs"
      },
      "claimPrinciple(uint256)": {
        "details": "Used by the loan recipient to claim the principle of loan with ID `loanID`"
      },
      "constructor": {
        "details": "Sets the values for {baseuri} and {loanTokenContract}"
      },
      "createLoan(uint256,uint256)": {
        "details": "Create a new loan application with principle balance of `tokenAmount` and rate of `rate`"
      },
      "makePayment(uint256,uint256)": {
        "details": "Makes a payment of `amount` for loan with ID `loanID`"
      },
      "owner()": {
        "details": "Returns the address of the current owner."
      },
      "renounceOwnership()": {
        "details": "Leaves the contract without owner. It will not be possible to call `onlyOwner` functions anymore. Can only be called by the current owner. NOTE: Renouncing ownership will leave the contract without an owner, thereby removing any functionality that is only available to the owner."
      },
      "supportLoan(uint256,uint256)": {
        "details": "Provide `amount` tokens to the escrow for loan `loanID` in exchange for Decent Loan Tokens"
      },
      "totalApplications()": {
        "details": "Returns the total number of applications that have been created "
      },
      "transferOwnership(address)": {
        "details": "Transfers ownership of the contract to a new account (`newOwner`). Can only be called by the current owner."
      }
    },
    "version": 1
  },
  "userdoc": {
    "kind": "user",
    "methods": {},
    "version": 1
  }
}