{
  "contractName": "LoanToken",
  "abi": [
    {
      "inputs": [],
      "stateMutability": "nonpayable",
      "type": "constructor"
    },
    {
      "anonymous": false,
      "inputs": [
        {
          "indexed": true,
          "internalType": "address",
          "name": "owner",
          "type": "address"
        },
        {
          "indexed": true,
          "internalType": "address",
          "name": "spender",
          "type": "address"
        },
        {
          "indexed": false,
          "internalType": "uint256",
          "name": "value",
          "type": "uint256"
        }
      ],
      "name": "Approval",
      "type": "event"
    },
    {
      "anonymous": false,
      "inputs": [
        {
          "indexed": true,
          "internalType": "address",
          "name": "from",
          "type": "address"
        },
        {
          "indexed": true,
          "internalType": "address",
          "name": "to",
          "type": "address"
        },
        {
          "indexed": false,
          "internalType": "uint256",
          "name": "value",
          "type": "uint256"
        }
      ],
      "name": "Transfer",
      "type": "event"
    },
    {
      "inputs": [
        {
          "internalType": "address",
          "name": "owner",
          "type": "address"
        },
        {
          "internalType": "address",
          "name": "spender",
          "type": "address"
        }
      ],
      "name": "allowance",
      "outputs": [
        {
          "internalType": "uint256",
          "name": "",
          "type": "uint256"
        }
      ],
      "stateMutability": "view",
      "type": "function",
      "constant": true
    },
    {
      "inputs": [
        {
          "internalType": "address",
          "name": "spender",
          "type": "address"
        },
        {
          "internalType": "uint256",
          "name": "amount",
          "type": "uint256"
        }
      ],
      "name": "approve",
      "outputs": [
        {
          "internalType": "bool",
          "name": "",
          "type": "bool"
        }
      ],
      "stateMutability": "nonpayable",
      "type": "function"
    },
    {
      "inputs": [
        {
          "internalType": "address",
          "name": "account",
          "type": "address"
        }
      ],
      "name": "balanceOf",
      "outputs": [
        {
          "internalType": "uint256",
          "name": "",
          "type": "uint256"
        }
      ],
      "stateMutability": "view",
      "type": "function",
      "constant": true
    },
    {
      "inputs": [
        {
          "internalType": "uint256",
          "name": "x",
          "type": "uint256"
        },
        {
          "internalType": "uint256",
          "name": "y",
          "type": "uint256"
        }
      ],
      "name": "decDiv18",
      "outputs": [
        {
          "internalType": "uint256",
          "name": "decQuotient",
          "type": "uint256"
        }
      ],
      "stateMutability": "pure",
      "type": "function",
      "constant": true
    },
    {
      "inputs": [
        {
          "internalType": "uint256",
          "name": "x",
          "type": "uint256"
        },
        {
          "internalType": "uint256",
          "name": "y",
          "type": "uint256"
        }
      ],
      "name": "decMul18",
      "outputs": [
        {
          "internalType": "uint256",
          "name": "decProd",
          "type": "uint256"
        }
      ],
      "stateMutability": "pure",
      "type": "function",
      "constant": true
    },
    {
      "inputs": [],
      "name": "decimals",
      "outputs": [
        {
          "internalType": "uint8",
          "name": "",
          "type": "uint8"
        }
      ],
      "stateMutability": "view",
      "type": "function",
      "constant": true
    },
    {
      "inputs": [
        {
          "internalType": "address",
          "name": "spender",
          "type": "address"
        },
        {
          "internalType": "uint256",
          "name": "subtractedValue",
          "type": "uint256"
        }
      ],
      "name": "decreaseAllowance",
      "outputs": [
        {
          "internalType": "bool",
          "name": "",
          "type": "bool"
        }
      ],
      "stateMutability": "nonpayable",
      "type": "function"
    },
    {
      "inputs": [
        {
          "internalType": "address",
          "name": "spender",
          "type": "address"
        },
        {
          "internalType": "uint256",
          "name": "addedValue",
          "type": "uint256"
        }
      ],
      "name": "increaseAllowance",
      "outputs": [
        {
          "internalType": "bool",
          "name": "",
          "type": "bool"
        }
      ],
      "stateMutability": "nonpayable",
      "type": "function"
    },
    {
      "inputs": [],
      "name": "name",
      "outputs": [
        {
          "internalType": "string",
          "name": "",
          "type": "string"
        }
      ],
      "stateMutability": "view",
      "type": "function",
      "constant": true
    },
    {
      "inputs": [
        {
          "internalType": "uint256",
          "name": "base",
          "type": "uint256"
        },
        {
          "internalType": "uint256",
          "name": "n",
          "type": "uint256"
        }
      ],
      "name": "powBySquare18",
      "outputs": [
        {
          "internalType": "uint256",
          "name": "",
          "type": "uint256"
        }
      ],
      "stateMutability": "pure",
      "type": "function",
      "constant": true
    },
    {
      "inputs": [],
      "name": "symbol",
      "outputs": [
        {
          "internalType": "string",
          "name": "",
          "type": "string"
        }
      ],
      "stateMutability": "view",
      "type": "function",
      "constant": true
    },
    {
      "inputs": [],
      "name": "totalSupply",
      "outputs": [
        {
          "internalType": "uint256",
          "name": "",
          "type": "uint256"
        }
      ],
      "stateMutability": "view",
      "type": "function",
      "constant": true
    },
    {
      "inputs": [
        {
          "internalType": "address",
          "name": "recipient",
          "type": "address"
        },
        {
          "internalType": "uint256",
          "name": "amount",
          "type": "uint256"
        }
      ],
      "name": "transfer",
      "outputs": [
        {
          "internalType": "bool",
          "name": "",
          "type": "bool"
        }
      ],
      "stateMutability": "nonpayable",
      "type": "function"
    },
    {
      "inputs": [
        {
          "internalType": "address",
          "name": "sender",
          "type": "address"
        },
        {
          "internalType": "address",
          "name": "recipient",
          "type": "address"
        },
        {
          "internalType": "uint256",
          "name": "amount",
          "type": "uint256"
        }
      ],
      "name": "transferFrom",
      "outputs": [
        {
          "internalType": "bool",
          "name": "",
          "type": "bool"
        }
      ],
      "stateMutability": "nonpayable",
      "type": "function"
    },
    {
      "inputs": [
        {
          "internalType": "uint256",
          "name": "loanID_",
          "type": "uint256"
        },
        {
          "internalType": "address",
          "name": "loanProviderContract_",
          "type": "address"
        },
        {
          "internalType": "address",
          "name": "walletContract_",
          "type": "address"
        },
        {
          "internalType": "uint256",
          "name": "amount_",
          "type": "uint256"
        },
        {
          "internalType": "uint256",
          "name": "rate_",
          "type": "uint256"
        }
      ],
      "name": "init",
      "outputs": [],
      "stateMutability": "nonpayable",
      "type": "function"
    },
    {
      "inputs": [
        {
          "internalType": "address",
          "name": "_lender",
          "type": "address"
        }
      ],
      "name": "updateDistributions",
      "outputs": [],
      "stateMutability": "nonpayable",
      "type": "function"
    },
    {
      "inputs": [
        {
          "internalType": "address",
          "name": "_lender",
          "type": "address"
        }
      ],
      "name": "distributionsOwed",
      "outputs": [
        {
          "internalType": "uint256",
          "name": "",
          "type": "uint256"
        }
      ],
      "stateMutability": "view",
      "type": "function",
      "constant": true
    },
    {
      "inputs": [
        {
          "internalType": "uint256",
          "name": "_blockNumber",
          "type": "uint256"
        }
      ],
      "name": "balanceAtBlock",
      "outputs": [
        {
          "internalType": "uint256",
          "name": "",
          "type": "uint256"
        }
      ],
      "stateMutability": "view",
      "type": "function",
      "constant": true
    },
    {
      "inputs": [],
      "name": "currentBalance",
      "outputs": [
        {
          "internalType": "uint256",
          "name": "",
          "type": "uint256"
        }
      ],
      "stateMutability": "view",
      "type": "function",
      "constant": true
    },
    {
      "inputs": [
        {
          "internalType": "uint256",
          "name": "_amount",
          "type": "uint256"
        },
        {
          "internalType": "uint256",
          "name": "_blockNumber",
          "type": "uint256"
        }
      ],
      "name": "processPayment",
      "outputs": [],
      "stateMutability": "nonpayable",
      "type": "function"
    },
    {
      "inputs": [
        {
          "internalType": "uint256",
          "name": "_amount",
          "type": "uint256"
        }
      ],
      "name": "getPaymentValues",
      "outputs": [
        {
          "internalType": "uint256",
          "name": "",
          "type": "uint256"
        }
      ],
      "stateMutability": "view",
      "type": "function",
      "constant": true
    },
    {
      "inputs": [
        {
          "internalType": "uint256",
          "name": "_blockNumber",
          "type": "uint256"
        }
      ],
      "name": "activateToken",
      "outputs": [],
      "stateMutability": "nonpayable",
      "type": "function"
    },
    {
      "inputs": [],
      "name": "getLoanID",
      "outputs": [
        {
          "internalType": "uint256",
          "name": "",
          "type": "uint256"
        }
      ],
      "stateMutability": "view",
      "type": "function",
      "constant": true
    },
    {
      "inputs": [],
      "name": "getActivated",
      "outputs": [
        {
          "internalType": "bool",
          "name": "",
          "type": "bool"
        }
      ],
      "stateMutability": "view",
      "type": "function",
      "constant": true
    },
    {
      "inputs": [],
      "name": "getRate",
      "outputs": [
        {
          "internalType": "uint256",
          "name": "",
          "type": "uint256"
        }
      ],
      "stateMutability": "view",
      "type": "function",
      "constant": true
    }
  ],
  "bytecode": "0x60806040523480156200001157600080fd5b506040518060400160405280601181526020017f446563656e74204c6f616e20546f6b656e0000000000000000000000000000008152506040518060400160405280600381526020017f444c540000000000000000000000000000000000000000000000000000000000815250816003908051906020019062000096929190620000d3565b508060049080519060200190620000af929190620000d3565b5050506000601060006101000a81548160ff021916908315150217905550620001e8565b828054620000e19062000183565b90600052602060002090601f01602090048101928262000105576000855562000151565b82601f106200012057805160ff191683800117855562000151565b8280016001018555821562000151579182015b828111156200015057825182559160200191906001019062000133565b5b50905062000160919062000164565b5090565b5b808211156200017f57600081600090555060010162000165565b5090565b600060028204905060018216806200019c57607f821691505b60208210811415620001b357620001b2620001b9565b5b50919050565b7f4e487b7100000000000000000000000000000000000000000000000000000000600052602260045260246000fd5b61275180620001f86000396000f3fe608060405234801561001057600080fd5b50600436106101735760003560e01c80638893eb13116100de578063cca05b4a11610097578063df9d58ff11610071578063df9d58ff146104b0578063eb732790146104cc578063f7523c52146104e8578063f9db919a1461051857610173565b8063cca05b4a14610432578063ce845d1d14610462578063dd62ed3e1461048057610173565b80638893eb131461035c57806395d89b411461037a5780639dd22a3e14610398578063a457c2d7146103b4578063a9059cbb146103e4578063bacccf981461041457610173565b806334eceac01161013057806334eceac01461024e578063395093511461027e57806364ce07d8146102ae578063679aefce146102de57806368c5c90a146102fc57806370a082311461032c57610173565b806306fdde0314610178578063095ea7b31461019657806318160ddd146101c657806323b872dd146101e45780632c68b45e14610214578063313ce56714610230575b600080fd5b610180610548565b60405161018d9190611e38565b60405180910390f35b6101b060048036038101906101ab9190611aa0565b6105da565b6040516101bd9190611e1d565b60405180910390f35b6101ce6105f8565b6040516101db9190611ffa565b60405180910390f35b6101fe60048036038101906101f99190611a51565b610602565b60405161020b9190611e1d565b60405180910390f35b61022e60048036038101906102299190611adc565b610703565b005b610238610807565b6040516102459190612015565b60405180910390f35b61026860048036038101906102639190611b7c565b610810565b6040516102759190611ffa565b60405180910390f35b61029860048036038101906102939190611aa0565b6108d8565b6040516102a59190611e1d565b60405180910390f35b6102c860048036038101906102c39190611b7c565b610984565b6040516102d59190611ffa565b60405180910390f35b6102e66109c5565b6040516102f39190611ffa565b60405180910390f35b61031660048036038101906103119190611adc565b6109cf565b6040516103239190611ffa565b60405180910390f35b610346600480360381019061034191906119ec565b6109e9565b6040516103539190611ffa565b60405180910390f35b610364610a31565b6040516103719190611e1d565b60405180910390f35b610382610a48565b60405161038f9190611e38565b60405180910390f35b6103b260048036038101906103ad9190611b05565b610ada565b005b6103ce60048036038101906103c99190611aa0565b610bcf565b6040516103db9190611e1d565b60405180910390f35b6103fe60048036038101906103f99190611aa0565b610cc3565b60405161040b9190611e1d565b60405180910390f35b61041c610ce1565b6040516104299190611ffa565b60405180910390f35b61044c60048036038101906104479190611adc565b610d3a565b6040516104599190611ffa565b60405180910390f35b61046a610dea565b6040516104779190611ffa565b60405180910390f35b61049a60048036038101906104959190611a15565b610e49565b6040516104a79190611ffa565b60405180910390f35b6104ca60048036038101906104c59190611b7c565b610ed0565b005b6104e660048036038101906104e191906119ec565b611076565b005b61050260048036038101906104fd9190611b7c565b6111cf565b60405161050f9190611ffa565b60405180910390f35b610532600480360381019061052d91906119ec565b611218565b60405161053f9190611ffa565b60405180910390f35b606060038054610557906121e9565b80601f0160208091040260200160405190810160405280929190818152602001828054610583906121e9565b80156105d05780601f106105a5576101008083540402835291602001916105d0565b820191906000526020600020905b8154815290600101906020018083116105b357829003601f168201915b5050505050905090565b60006105ee6105e76112d4565b84846112dc565b6001905092915050565b6000600254905090565b600061060f8484846114a7565b6000600160008673ffffffffffffffffffffffffffffffffffffffff1673ffffffffffffffffffffffffffffffffffffffff168152602001908152602001600020600061065a6112d4565b73ffffffffffffffffffffffffffffffffffffffff1673ffffffffffffffffffffffffffffffffffffffff168152602001908152602001600020549050828110156106da576040517f08c379a00000000000000000000000000000000000000000000000000000000081526004016106d190611efa565b60405180910390fd5b6106f7856106e66112d4565b85846106f2919061212d565b6112dc565b60019150509392505050565b601060009054906101000a900460ff16610752576040517f08c379a000000000000000000000000000000000000000000000000000000000815260040161074990611e9a565b60405180910390fd5b600660009054906101000a900473ffffffffffffffffffffffffffffffffffffffff1673ffffffffffffffffffffffffffffffffffffffff163373ffffffffffffffffffffffffffffffffffffffff16146107e2576040517f08c379a00000000000000000000000000000000000000000000000000000000081526004016107d990611eda565b60405180910390fd5b6001600e60006101000a81548160ff02191690831515021790555080600d8190555050565b60006012905090565b60008082141561082a57670de0b6b3a764000090506108d2565b6000670de0b6b3a764000090505b60018311156108c4576000600284610850919061221b565b14156108765761086084856111cf565b935060028361086f91906120a2565b92506108bf565b6000600284610885919061221b565b146108be5761089484826111cf565b90506108a084856111cf565b935060026001846108b1919061212d565b6108bb91906120a2565b92505b5b610838565b6108ce84826111cf565b9150505b92915050565b600061097a6108e56112d4565b8484600160006108f36112d4565b73ffffffffffffffffffffffffffffffffffffffff1673ffffffffffffffffffffffffffffffffffffffff16815260200190815260200160002060008873ffffffffffffffffffffffffffffffffffffffff1673ffffffffffffffffffffffffffffffffffffffff16815260200190815260200160002054610975919061204c565b6112dc565b6001905092915050565b60008061099984670de0b6b3a7640000611511565b9050826109b2826002866109ad91906120a2565b61158c565b6109bc91906120a2565b91505092915050565b6000600854905090565b60006109e2826109dd6105f8565b610984565b9050919050565b60008060008373ffffffffffffffffffffffffffffffffffffffff1673ffffffffffffffffffffffffffffffffffffffff168152602001908152602001600020549050919050565b6000600e60009054906101000a900460ff16905090565b606060048054610a57906121e9565b80601f0160208091040260200160405190810160405280929190818152602001828054610a83906121e9565b8015610ad05780601f10610aa557610100808354040283529160200191610ad0565b820191906000526020600020905b815481529060010190602001808311610ab357829003601f168201915b5050505050905090565b601060009054906101000a900460ff1615610b2a576040517f08c379a0000000000000000000000000000000000000000000000000000000008152600401610b2190611f3a565b60405180910390fd5b8460058190555083600660006101000a81548173ffffffffffffffffffffffffffffffffffffffff021916908373ffffffffffffffffffffffffffffffffffffffff16021790555081600781905550806008819055506000600a819055506000600e60006101000a81548160ff021916908315150217905550610bad83836115ea565b6001601060006101000a81548160ff0219169083151502179055505050505050565b60008060016000610bde6112d4565b73ffffffffffffffffffffffffffffffffffffffff1673ffffffffffffffffffffffffffffffffffffffff16815260200190815260200160002060008573ffffffffffffffffffffffffffffffffffffffff1673ffffffffffffffffffffffffffffffffffffffff16815260200190815260200160002054905082811015610c9b576040517f08c379a0000000000000000000000000000000000000000000000000000000008152600401610c9290611fba565b60405180910390fd5b610cb8610ca66112d4565b858584610cb3919061212d565b6112dc565b600191505092915050565b6000610cd7610cd06112d4565b84846114a7565b6001905092915050565b6000601060009054906101000a900460ff16610d32576040517f08c379a0000000000000000000000000000000000000000000000000000000008152600401610d2990611e9a565b60405180910390fd5b600554905090565b6000601060009054906101000a900460ff16610d8b576040517f08c379a0000000000000000000000000000000000000000000000000000000008152600401610d8290611e9a565b60405180910390fd5b6000600d5483610d9b919061212d565b90506000811415610db157600754915050610de5565b6000610ddd600754610dd8600854670de0b6b3a7640000610dd2919061204c565b85610810565b6111cf565b905080925050505b919050565b6000601060009054906101000a900460ff16610e3b576040517f08c379a0000000000000000000000000000000000000000000000000000000008152600401610e3290611e9a565b60405180910390fd5b610e4443610d3a565b905090565b6000600160008473ffffffffffffffffffffffffffffffffffffffff1673ffffffffffffffffffffffffffffffffffffffff16815260200190815260200160002060008373ffffffffffffffffffffffffffffffffffffffff1673ffffffffffffffffffffffffffffffffffffffff16815260200190815260200160002054905092915050565b601060009054906101000a900460ff16610f1f576040517f08c379a0000000000000000000000000000000000000000000000000000000008152600401610f1690611e9a565b60405180910390fd5b600660009054906101000a900473ffffffffffffffffffffffffffffffffffffffff1673ffffffffffffffffffffffffffffffffffffffff163373ffffffffffffffffffffffffffffffffffffffff1614610faf576040517f08c379a0000000000000000000000000000000000000000000000000000000008152600401610fa690611eda565b60405180910390fd5b600d548111610ff3576040517f08c379a0000000000000000000000000000000000000000000000000000000008152600401610fea90611f1a565b60405180910390fd5b600082610fff83610d3a565b611009919061212d565b9050600061101e846110196105f8565b610984565b90506110318161102c6105f8565b6111cf565b60096000828254611042919061204c565b9250508190555080600a600082825461105b919061204c565b9250508190555082600d819055508160078190555050505050565b601060009054906101000a900460ff166110c5576040517f08c379a00000000000000000000000000000000000000000000000000000000081526004016110bc90611e9a565b60405180910390fd5b60006110d082611218565b905060008111156111cb576000600660009054906101000a900473ffffffffffffffffffffffffffffffffffffffff1690508073ffffffffffffffffffffffffffffffffffffffff1663a783e09884846040518363ffffffff1660e01b815260040161113d929190611df4565b600060405180830381600087803b15801561115757600080fd5b505af115801561116b573d6000803e3d6000fd5b505050508160095461117d919061212d565b600981905550600a54600f60008573ffffffffffffffffffffffffffffffffffffffff1673ffffffffffffffffffffffffffffffffffffffff16815260200190815260200160002081905550505b5050565b6000806111dc8484611511565b9050670de0b6b3a7640000611205826002670de0b6b3a764000061120091906120a2565b61158c565b61120f91906120a2565b91505092915050565b6000601060009054906101000a900460ff16611269576040517f08c379a000000000000000000000000000000000000000000000000000000000815260040161126090611e9a565b60405180910390fd5b6000600f60008473ffffffffffffffffffffffffffffffffffffffff1673ffffffffffffffffffffffffffffffffffffffff16815260200190815260200160002054600a546112b8919061212d565b90506112cc816112c7856109e9565b6111cf565b915050919050565b600033905090565b600073ffffffffffffffffffffffffffffffffffffffff168373ffffffffffffffffffffffffffffffffffffffff16141561134c576040517f08c379a000000000000000000000000000000000000000000000000000000000815260040161134390611f7a565b60405180910390fd5b600073ffffffffffffffffffffffffffffffffffffffff168273ffffffffffffffffffffffffffffffffffffffff1614156113bc576040517f08c379a00000000000000000000000000000000000000000000000000000000081526004016113b390611e7a565b60405180910390fd5b80600160008573ffffffffffffffffffffffffffffffffffffffff1673ffffffffffffffffffffffffffffffffffffffff16815260200190815260200160002060008473ffffffffffffffffffffffffffffffffffffffff1673ffffffffffffffffffffffffffffffffffffffff168152602001908152602001600020819055508173ffffffffffffffffffffffffffffffffffffffff168373ffffffffffffffffffffffffffffffffffffffff167f8c5be1e5ebec7d5bd14f71427d1e84f3dd0314c0f7b2291e5b200ac8c7c3b9258360405161149a9190611ffa565b60405180910390a3505050565b601060009054906101000a900460ff166114f6576040517f08c379a00000000000000000000000000000000000000000000000000000000081526004016114ed90611e9a565b60405180910390fd5b8261150081611076565b61150b84848461173e565b50505050565b6000808314156115245760009050611586565b6000828461153291906120d3565b905082848261154191906120a2565b14611581576040517f08c379a000000000000000000000000000000000000000000000000000000000815260040161157890611f9a565b60405180910390fd5b809150505b92915050565b600080828461159b919061204c565b9050838110156115e0576040517f08c379a00000000000000000000000000000000000000000000000000000000081526004016115d790611f9a565b60405180910390fd5b8091505092915050565b600073ffffffffffffffffffffffffffffffffffffffff168273ffffffffffffffffffffffffffffffffffffffff16141561165a576040517f08c379a000000000000000000000000000000000000000000000000000000000815260040161165190611fda565b60405180910390fd5b611666600083836119bd565b8060026000828254611678919061204c565b92505081905550806000808473ffffffffffffffffffffffffffffffffffffffff1673ffffffffffffffffffffffffffffffffffffffff16815260200190815260200160002060008282546116cd919061204c565b925050819055508173ffffffffffffffffffffffffffffffffffffffff16600073ffffffffffffffffffffffffffffffffffffffff167fddf252ad1be2c89b69c2b068fc378daa952ba7f163c4a11628f55a4df523b3ef836040516117329190611ffa565b60405180910390a35050565b600073ffffffffffffffffffffffffffffffffffffffff168373ffffffffffffffffffffffffffffffffffffffff1614156117ae576040517f08c379a00000000000000000000000000000000000000000000000000000000081526004016117a590611f5a565b60405180910390fd5b600073ffffffffffffffffffffffffffffffffffffffff168273ffffffffffffffffffffffffffffffffffffffff16141561181e576040517f08c379a000000000000000000000000000000000000000000000000000000000815260040161181590611e5a565b60405180910390fd5b6118298383836119bd565b60008060008573ffffffffffffffffffffffffffffffffffffffff1673ffffffffffffffffffffffffffffffffffffffff168152602001908152602001600020549050818110156118af576040517f08c379a00000000000000000000000000000000000000000000000000000000081526004016118a690611eba565b60405180910390fd5b81816118bb919061212d565b6000808673ffffffffffffffffffffffffffffffffffffffff1673ffffffffffffffffffffffffffffffffffffffff16815260200190815260200160002081905550816000808573ffffffffffffffffffffffffffffffffffffffff1673ffffffffffffffffffffffffffffffffffffffff168152602001908152602001600020600082825461194b919061204c565b925050819055508273ffffffffffffffffffffffffffffffffffffffff168473ffffffffffffffffffffffffffffffffffffffff167fddf252ad1be2c89b69c2b068fc378daa952ba7f163c4a11628f55a4df523b3ef846040516119af9190611ffa565b60405180910390a350505050565b505050565b6000813590506119d1816126ed565b92915050565b6000813590506119e681612704565b92915050565b6000602082840312156119fe57600080fd5b6000611a0c848285016119c2565b91505092915050565b60008060408385031215611a2857600080fd5b6000611a36858286016119c2565b9250506020611a47858286016119c2565b9150509250929050565b600080600060608486031215611a6657600080fd5b6000611a74868287016119c2565b9350506020611a85868287016119c2565b9250506040611a96868287016119d7565b9150509250925092565b60008060408385031215611ab357600080fd5b6000611ac1858286016119c2565b9250506020611ad2858286016119d7565b9150509250929050565b600060208284031215611aee57600080fd5b6000611afc848285016119d7565b91505092915050565b600080600080600060a08688031215611b1d57600080fd5b6000611b2b888289016119d7565b9550506020611b3c888289016119c2565b9450506040611b4d888289016119c2565b9350506060611b5e888289016119d7565b9250506080611b6f888289016119d7565b9150509295509295909350565b60008060408385031215611b8f57600080fd5b6000611b9d858286016119d7565b9250506020611bae858286016119d7565b9150509250929050565b611bc181612161565b82525050565b611bd081612173565b82525050565b6000611be182612030565b611beb818561203b565b9350611bfb8185602086016121b6565b611c04816122d9565b840191505092915050565b6000611c1c60238361203b565b9150611c27826122ea565b604082019050919050565b6000611c3f60228361203b565b9150611c4a82612339565b604082019050919050565b6000611c62603f8361203b565b9150611c6d82612388565b604082019050919050565b6000611c8560268361203b565b9150611c90826123d7565b604082019050919050565b6000611ca8604a8361203b565b9150611cb382612426565b606082019050919050565b6000611ccb60288361203b565b9150611cd68261249b565b604082019050919050565b6000611cee603a8361203b565b9150611cf9826124ea565b604082019050919050565b6000611d1160278361203b565b9150611d1c82612539565b604082019050919050565b6000611d3460258361203b565b9150611d3f82612588565b604082019050919050565b6000611d5760248361203b565b9150611d62826125d7565b604082019050919050565b6000611d7a60218361203b565b9150611d8582612626565b604082019050919050565b6000611d9d60258361203b565b9150611da882612675565b604082019050919050565b6000611dc0601f8361203b565b9150611dcb826126c4565b602082019050919050565b611ddf8161219f565b82525050565b611dee816121a9565b82525050565b6000604082019050611e096000830185611bb8565b611e166020830184611dd6565b9392505050565b6000602082019050611e326000830184611bc7565b92915050565b60006020820190508181036000830152611e528184611bd6565b905092915050565b60006020820190508181036000830152611e7381611c0f565b9050919050565b60006020820190508181036000830152611e9381611c32565b9050919050565b60006020820190508181036000830152611eb381611c55565b9050919050565b60006020820190508181036000830152611ed381611c78565b9050919050565b60006020820190508181036000830152611ef381611c9b565b9050919050565b60006020820190508181036000830152611f1381611cbe565b9050919050565b60006020820190508181036000830152611f3381611ce1565b9050919050565b60006020820190508181036000830152611f5381611d04565b9050919050565b60006020820190508181036000830152611f7381611d27565b9050919050565b60006020820190508181036000830152611f9381611d4a565b9050919050565b60006020820190508181036000830152611fb381611d6d565b9050919050565b60006020820190508181036000830152611fd381611d90565b9050919050565b60006020820190508181036000830152611ff381611db3565b9050919050565b600060208201905061200f6000830184611dd6565b92915050565b600060208201905061202a6000830184611de5565b92915050565b600081519050919050565b600082825260208201905092915050565b60006120578261219f565b91506120628361219f565b9250827fffffffffffffffffffffffffffffffffffffffffffffffffffffffffffffffff038211156120975761209661224c565b5b828201905092915050565b60006120ad8261219f565b91506120b88361219f565b9250826120c8576120c761227b565b5b828204905092915050565b60006120de8261219f565b91506120e98361219f565b9250817fffffffffffffffffffffffffffffffffffffffffffffffffffffffffffffffff04831182151516156121225761212161224c565b5b828202905092915050565b60006121388261219f565b91506121438361219f565b9250828210156121565761215561224c565b5b828203905092915050565b600061216c8261217f565b9050919050565b60008115159050919050565b600073ffffffffffffffffffffffffffffffffffffffff82169050919050565b6000819050919050565b600060ff82169050919050565b60005b838110156121d45780820151818401526020810190506121b9565b838111156121e3576000848401525b50505050565b6000600282049050600182168061220157607f821691505b60208210811415612215576122146122aa565b5b50919050565b60006122268261219f565b91506122318361219f565b9250826122415761224061227b565b5b828206905092915050565b7f4e487b7100000000000000000000000000000000000000000000000000000000600052601160045260246000fd5b7f4e487b7100000000000000000000000000000000000000000000000000000000600052601260045260246000fd5b7f4e487b7100000000000000000000000000000000000000000000000000000000600052602260045260246000fd5b6000601f19601f8301169050919050565b7f45524332303a207472616e7366657220746f20746865207a65726f206164647260008201527f6573730000000000000000000000000000000000000000000000000000000000602082015250565b7f45524332303a20617070726f766520746f20746865207a65726f20616464726560008201527f7373000000000000000000000000000000000000000000000000000000000000602082015250565b7f4c6f616e546f6b656e3a20436f6e7472616374206d75737420626520696e697460008201527f69616c697a65642062792074686520696e697428292066756e6374696f6e2e00602082015250565b7f45524332303a207472616e7366657220616d6f756e742065786365656473206260008201527f616c616e63650000000000000000000000000000000000000000000000000000602082015250565b7f4c6f616e546f6b656e3a20546869732066756e6374696f6e2063616e206f6e6c60008201527f792062652063616c6c65642066726f6d20746865204c6f616e50726f7669646560208201527f7220636f6e747261637400000000000000000000000000000000000000000000604082015250565b7f45524332303a207472616e7366657220616d6f756e742065786365656473206160008201527f6c6c6f77616e6365000000000000000000000000000000000000000000000000602082015250565b7f4c6f616e546f6b656e3a2043616e6e6f74206d616b65206d756c7469706c652060008201527f7061796d656e747320696e207468652073616d6520626c6f636b000000000000602082015250565b7f4c6f616e546f6b656e3a20436f6e747261637420616c726561647920696e697460008201527f69616c697a656400000000000000000000000000000000000000000000000000602082015250565b7f45524332303a207472616e736665722066726f6d20746865207a65726f20616460008201527f6472657373000000000000000000000000000000000000000000000000000000602082015250565b7f45524332303a20617070726f76652066726f6d20746865207a65726f2061646460008201527f7265737300000000000000000000000000000000000000000000000000000000602082015250565b7f75696e74206f766572666c6f772066726f6d206d756c7469706c69636174696f60008201527f6e00000000000000000000000000000000000000000000000000000000000000602082015250565b7f45524332303a2064656372656173656420616c6c6f77616e63652062656c6f7760008201527f207a65726f000000000000000000000000000000000000000000000000000000602082015250565b7f45524332303a206d696e7420746f20746865207a65726f206164647265737300600082015250565b6126f681612161565b811461270157600080fd5b50565b61270d8161219f565b811461271857600080fd5b5056fea2646970667358221220f94f3afab2e1a9ee6bb6add5100d9fbcb1090539c94f25007af6c00b0590448564736f6c63430008030033",
  "immutableReferences": {},
  "source": "//SPDX-License-Identifier: MIT\npragma solidity ^0.8.3;\n\nimport \"./LoanProvider.sol\";\nimport \"./DeciMath.sol\";\nimport \"@openzeppelin/contracts/token/ERC20/ERC20.sol\";\n\n/**\n * @author Jack Proudfoot\n * @dev Implementation of the {IERC20} interface for Loan Tokens with dividend paying feature.\n *\n * Dividend functionality inspired by: https://medium.com/crowdbotics/how-to-build-a-dividend-token-with-solidity-81ae3bf3fe72\n */\ncontract LoanToken is ERC20, DeciMath{\n\n    uint256 private _loanID;\n    address private _loanProviderContract;\n\n    uint256 private _balance;\n    uint256 private _rate;\n\n    uint256 private _unclaimedDistributions;\n    uint256 private _totalDistributions;\n\n    uint256 private _leftoverPayment;\n\n    uint256 private _interestPoints;\n    uint256 private _lastPaymentBlock;\n\n    bool private _activated;\n\n\n    mapping (address => uint256) private _lastDistributionClaimed;\n\n    bool private _initialized;\n\n    /**\n     * @dev Shim constructor meant to be used to deploy or clone contract without initializing state.\n     */\n    constructor () ERC20(\"Decent Loan Token\", \"DLT\") {\n       _initialized = false;\n    }\n\n    /**\n    * @dev One time initialization function used by the clone factory to initialize state of cloned contract\n    */\n    function init (uint256 loanID_, address loanProviderContract_, address walletContract_, uint256 amount_, uint256 rate_) public {\n        require(!_initialized, \"LoanToken: Contract already initialized\");\n        \n        _loanID = loanID_;\n        _loanProviderContract = loanProviderContract_;\n        _balance = amount_;\n        _rate = rate_;\n        _totalDistributions = 0;\n\n        _activated = false;\n\n        _mint(walletContract_, amount_);\n\n        _initialized = true;\n    }\n\n    /**\n    * @dev Modifier applied to all functions that ensures that the contract has been initialized\n    */\n    modifier ensuresInitialized () {\n        require(_initialized, \"LoanToken: Contract must be initialized by the init() function.\");\n        _;\n    }\n\n    /**\n    * @dev Modifier applied to functions that ensures that the contract has been activated\n    */\n    modifier ensuresActivated () {\n        //require(_activated, \"LoanToken: Contract must be activated before this function can be used.\");\n        _;\n    }\n\n    /**\n    * @dev Modifier applied to any function that moves tokens to update distributions earned from this token for `lender`\n    */\n    modifier updatesDistributions (address _lender) {\n        updateDistributions(_lender);\n        _;\n    }\n\n\n    /**\n    * @dev Claims the distributions for this token for `_lender` \n    */\n    function updateDistributions (address _lender) public ensuresInitialized ensuresActivated {\n        uint256 payment = distributionsOwed(_lender);\n        if(payment > 0) {\n            LoanProvider loanProvider = LoanProvider(_loanProviderContract);\n            loanProvider.allocateStablecoinProxy(_lender, payment);\n\n            _unclaimedDistributions = _unclaimedDistributions - payment;\n            _lastDistributionClaimed[_lender] = _totalDistributions;\n        }\n    }\n\n    /**\n    * @dev Computes the amount of distributions owed to `_lender`\n    */\n    function distributionsOwed (address _lender) public view ensuresInitialized ensuresActivated returns (uint256) {\n        uint256 outstandingDistributions = _totalDistributions - _lastDistributionClaimed[_lender];\n\n        return decMul18(outstandingDistributions, balanceOf(_lender));\n    }\n\n    /** \n    @dev Get the balance of the loan at block `blockNumber`\n    */\n    function balanceAtBlock(uint256 _blockNumber) public view ensuresInitialized ensuresActivated returns (uint256) {\n        uint256 blocksElapsed = _blockNumber - _lastPaymentBlock;\n\n        if (blocksElapsed == 0) {\n            return _balance;\n        }\n\n        uint256 balance = decMul18(_balance, powBySquare18(TEN18 + _rate, blocksElapsed));\n\n        return balance;\n    }\n\n    /**\n    * Gets the balance of the loan at the current block\n    */\n    function currentBalance() public view ensuresInitialized ensuresActivated returns (uint256) {\n        return balanceAtBlock(block.number);\n    }\n\n    /**\n    * @dev Processes payment of `amount` towards loan balance during `_blockNumber`\n    */\n    function processPayment(uint256 _amount, uint256 _blockNumber) public ensuresInitialized ensuresActivated {\n        require(msg.sender == _loanProviderContract, \"LoanToken: This function can only be called from the LoanProvider contract\");\n        require(_blockNumber > _lastPaymentBlock, \"LoanToken: Cannot make multiple payments in the same block\");\n        \n        uint256 updatedBalance = balanceAtBlock(_blockNumber) - _amount;\n        \n        // uint256 additionalDistributions = decDiv18(_amount + _leftoverPayment, totalSupply());\n\n        // _unclaimedDistributions += decMul18(additionalDistributions, totalSupply());\n        // _totalDistributions += additionalDistributions;\n        // _leftoverPayment = (_amount + _leftoverPayment) - _unclaimedDistributions;\n\n        uint256 additionalDistributions = decDiv18(_amount, totalSupply());\n\n        _unclaimedDistributions += decMul18(additionalDistributions, totalSupply());\n        _totalDistributions += additionalDistributions;\n\n        _lastPaymentBlock = _blockNumber;\n        \n        _balance = updatedBalance;\n    }\n\n    function getPaymentValues(uint256 _amount) public view returns (uint256) {\n        return decDiv18(_amount, totalSupply());\n    }\n\n    /**\n    * @dev activate the token when the loan principle is claimed\n    */\n    function activateToken(uint256 _blockNumber) public ensuresInitialized {\n        require(msg.sender == _loanProviderContract, \"LoanToken: This function can only be called from the LoanProvider contract\");\n\n        _activated = true;\n        _lastPaymentBlock = _blockNumber;\n    }\n\n    /**\n    * @dev Gets the `loanID`\n    */\n    function getLoanID() public view ensuresInitialized returns (uint256) {\n        return _loanID;\n    }\n\n    /**\n    * @dev Adds updatesDistributions modifier to ERC20 transfer function \n    */\n    function _transfer(address sender, address recipient, uint256 amount) internal virtual override ensuresInitialized updatesDistributions(sender) {\n        ERC20._transfer(sender, recipient, amount);\n    }\n\n    /**\n    * @dev Gets whether the loan has been activated\n    */\n    function getActivated() public view returns (bool) {\n        return _activated;\n    }\n\n    /**\n    * @dev Returnst the interest rate of the loan (per block)\n    */\n    function getRate() public view returns (uint256) {\n        return _rate;\n    }\n}",
  "sourcePath": "/Users/jack/Coursework/blockchain-final-project/contracts/LoanToken.sol",
  "compiler": {
    "name": "solc",
    "version": "0.8.3+commit.8d00100c.Emscripten.clang"
  },
  "schemaVersion": "3.3.4",
  "updatedAt": "2021-04-22T01:01:26.433Z",
  "networkType": "ethereum",
  "devdoc": {
    "author": "Jack Proudfoot",
    "details": "Implementation of the {IERC20} interface for Loan Tokens with dividend paying feature. Dividend functionality inspired by: https://medium.com/crowdbotics/how-to-build-a-dividend-token-with-solidity-81ae3bf3fe72",
    "kind": "dev",
    "methods": {
      "activateToken(uint256)": {
        "details": "activate the token when the loan principle is claimed"
      },
      "allowance(address,address)": {
        "details": "See {IERC20-allowance}."
      },
      "approve(address,uint256)": {
        "details": "See {IERC20-approve}. Requirements: - `spender` cannot be the zero address."
      },
      "balanceAtBlock(uint256)": {
        "details": "Get the balance of the loan at block `blockNumber`"
      },
      "balanceOf(address)": {
        "details": "See {IERC20-balanceOf}."
      },
      "constructor": {
        "details": "Shim constructor meant to be used to deploy or clone contract without initializing state."
      },
      "decimals()": {
        "details": "Returns the number of decimals used to get its user representation. For example, if `decimals` equals `2`, a balance of `505` tokens should be displayed to a user as `5,05` (`505 / 10 ** 2`). Tokens usually opt for a value of 18, imitating the relationship between Ether and Wei. This is the value {ERC20} uses, unless this function is overloaded; NOTE: This information is only used for _display_ purposes: it in no way affects any of the arithmetic of the contract, including {IERC20-balanceOf} and {IERC20-transfer}."
      },
      "decreaseAllowance(address,uint256)": {
        "details": "Atomically decreases the allowance granted to `spender` by the caller. This is an alternative to {approve} that can be used as a mitigation for problems described in {IERC20-approve}. Emits an {Approval} event indicating the updated allowance. Requirements: - `spender` cannot be the zero address. - `spender` must have allowance for the caller of at least `subtractedValue`."
      },
      "distributionsOwed(address)": {
        "details": "Computes the amount of distributions owed to `_lender`"
      },
      "getActivated()": {
        "details": "Gets whether the loan has been activated"
      },
      "getLoanID()": {
        "details": "Gets the `loanID`"
      },
      "getRate()": {
        "details": "Returnst the interest rate of the loan (per block)"
      },
      "increaseAllowance(address,uint256)": {
        "details": "Atomically increases the allowance granted to `spender` by the caller. This is an alternative to {approve} that can be used as a mitigation for problems described in {IERC20-approve}. Emits an {Approval} event indicating the updated allowance. Requirements: - `spender` cannot be the zero address."
      },
      "init(uint256,address,address,uint256,uint256)": {
        "details": "One time initialization function used by the clone factory to initialize state of cloned contract"
      },
      "name()": {
        "details": "Returns the name of the token."
      },
      "processPayment(uint256,uint256)": {
        "details": "Processes payment of `amount` towards loan balance during `_blockNumber`"
      },
      "symbol()": {
        "details": "Returns the symbol of the token, usually a shorter version of the name."
      },
      "totalSupply()": {
        "details": "See {IERC20-totalSupply}."
      },
      "transfer(address,uint256)": {
        "details": "See {IERC20-transfer}. Requirements: - `recipient` cannot be the zero address. - the caller must have a balance of at least `amount`."
      },
      "transferFrom(address,address,uint256)": {
        "details": "See {IERC20-transferFrom}. Emits an {Approval} event indicating the updated allowance. This is not required by the EIP. See the note at the beginning of {ERC20}. Requirements: - `sender` and `recipient` cannot be the zero address. - `sender` must have a balance of at least `amount`. - the caller must have allowance for ``sender``'s tokens of at least `amount`."
      },
      "updateDistributions(address)": {
        "details": "Claims the distributions for this token for `_lender` "
      }
    },
    "version": 1
  },
  "userdoc": {
    "kind": "user",
    "methods": {
      "currentBalance()": {
        "notice": "Gets the balance of the loan at the current block"
      }
    },
    "version": 1
  }
}