{
  "contractName": "Stablecoin",
  "abi": [
    {
      "inputs": [],
      "stateMutability": "nonpayable",
      "type": "constructor"
    },
    {
      "anonymous": false,
      "inputs": [
        {
          "indexed": true,
          "internalType": "address",
          "name": "owner",
          "type": "address"
        },
        {
          "indexed": true,
          "internalType": "address",
          "name": "spender",
          "type": "address"
        },
        {
          "indexed": false,
          "internalType": "uint256",
          "name": "value",
          "type": "uint256"
        }
      ],
      "name": "Approval",
      "type": "event"
    },
    {
      "anonymous": false,
      "inputs": [
        {
          "indexed": false,
          "internalType": "address",
          "name": "from",
          "type": "address"
        },
        {
          "indexed": false,
          "internalType": "address",
          "name": "to",
          "type": "address"
        },
        {
          "indexed": false,
          "internalType": "uint256",
          "name": "amount",
          "type": "uint256"
        }
      ],
      "name": "TokenTransfer",
      "type": "event"
    },
    {
      "anonymous": false,
      "inputs": [
        {
          "indexed": true,
          "internalType": "address",
          "name": "from",
          "type": "address"
        },
        {
          "indexed": true,
          "internalType": "address",
          "name": "to",
          "type": "address"
        },
        {
          "indexed": false,
          "internalType": "uint256",
          "name": "value",
          "type": "uint256"
        }
      ],
      "name": "Transfer",
      "type": "event"
    },
    {
      "inputs": [
        {
          "internalType": "address",
          "name": "owner",
          "type": "address"
        },
        {
          "internalType": "address",
          "name": "spender",
          "type": "address"
        }
      ],
      "name": "allowance",
      "outputs": [
        {
          "internalType": "uint256",
          "name": "",
          "type": "uint256"
        }
      ],
      "stateMutability": "view",
      "type": "function",
      "constant": true
    },
    {
      "inputs": [
        {
          "internalType": "address",
          "name": "spender",
          "type": "address"
        },
        {
          "internalType": "uint256",
          "name": "amount",
          "type": "uint256"
        }
      ],
      "name": "approve",
      "outputs": [
        {
          "internalType": "bool",
          "name": "",
          "type": "bool"
        }
      ],
      "stateMutability": "nonpayable",
      "type": "function"
    },
    {
      "inputs": [
        {
          "internalType": "address",
          "name": "account",
          "type": "address"
        }
      ],
      "name": "balanceOf",
      "outputs": [
        {
          "internalType": "uint256",
          "name": "",
          "type": "uint256"
        }
      ],
      "stateMutability": "view",
      "type": "function",
      "constant": true
    },
    {
      "inputs": [],
      "name": "decimals",
      "outputs": [
        {
          "internalType": "uint8",
          "name": "",
          "type": "uint8"
        }
      ],
      "stateMutability": "view",
      "type": "function",
      "constant": true
    },
    {
      "inputs": [
        {
          "internalType": "address",
          "name": "spender",
          "type": "address"
        },
        {
          "internalType": "uint256",
          "name": "subtractedValue",
          "type": "uint256"
        }
      ],
      "name": "decreaseAllowance",
      "outputs": [
        {
          "internalType": "bool",
          "name": "",
          "type": "bool"
        }
      ],
      "stateMutability": "nonpayable",
      "type": "function"
    },
    {
      "inputs": [
        {
          "internalType": "address",
          "name": "spender",
          "type": "address"
        },
        {
          "internalType": "uint256",
          "name": "addedValue",
          "type": "uint256"
        }
      ],
      "name": "increaseAllowance",
      "outputs": [
        {
          "internalType": "bool",
          "name": "",
          "type": "bool"
        }
      ],
      "stateMutability": "nonpayable",
      "type": "function"
    },
    {
      "inputs": [],
      "name": "name",
      "outputs": [
        {
          "internalType": "string",
          "name": "",
          "type": "string"
        }
      ],
      "stateMutability": "view",
      "type": "function",
      "constant": true
    },
    {
      "inputs": [],
      "name": "symbol",
      "outputs": [
        {
          "internalType": "string",
          "name": "",
          "type": "string"
        }
      ],
      "stateMutability": "view",
      "type": "function",
      "constant": true
    },
    {
      "inputs": [],
      "name": "totalSupply",
      "outputs": [
        {
          "internalType": "uint256",
          "name": "",
          "type": "uint256"
        }
      ],
      "stateMutability": "view",
      "type": "function",
      "constant": true
    },
    {
      "inputs": [
        {
          "internalType": "address",
          "name": "recipient",
          "type": "address"
        },
        {
          "internalType": "uint256",
          "name": "amount",
          "type": "uint256"
        }
      ],
      "name": "transfer",
      "outputs": [
        {
          "internalType": "bool",
          "name": "",
          "type": "bool"
        }
      ],
      "stateMutability": "nonpayable",
      "type": "function"
    },
    {
      "inputs": [
        {
          "internalType": "address",
          "name": "sender",
          "type": "address"
        },
        {
          "internalType": "address",
          "name": "recipient",
          "type": "address"
        },
        {
          "internalType": "uint256",
          "name": "amount",
          "type": "uint256"
        }
      ],
      "name": "transferFrom",
      "outputs": [
        {
          "internalType": "bool",
          "name": "",
          "type": "bool"
        }
      ],
      "stateMutability": "nonpayable",
      "type": "function"
    },
    {
      "inputs": [
        {
          "internalType": "address",
          "name": "_to",
          "type": "address"
        },
        {
          "internalType": "uint256",
          "name": "_amount",
          "type": "uint256"
        }
      ],
      "name": "mint",
      "outputs": [],
      "stateMutability": "nonpayable",
      "type": "function"
    },
    {
      "inputs": [
        {
          "internalType": "uint256",
          "name": "_amount",
          "type": "uint256"
        }
      ],
      "name": "mint",
      "outputs": [],
      "stateMutability": "nonpayable",
      "type": "function"
    }
  ],
  "bytecode": "0x60806040523480156200001157600080fd5b506040518060400160405280600a81526020017f537461626c65636f696e000000000000000000000000000000000000000000008152506040518060400160405280600481526020017f5354424c00000000000000000000000000000000000000000000000000000000815250816003908051906020019062000096929190620000b8565b508060049080519060200190620000af929190620000b8565b505050620001cd565b828054620000c69062000168565b90600052602060002090601f016020900481019282620000ea576000855562000136565b82601f106200010557805160ff191683800117855562000136565b8280016001018555821562000136579182015b828111156200013557825182559160200191906001019062000118565b5b50905062000145919062000149565b5090565b5b80821115620001645760008160009055506001016200014a565b5090565b600060028204905060018216806200018157607f821691505b602082108114156200019857620001976200019e565b5b50919050565b7f4e487b7100000000000000000000000000000000000000000000000000000000600052602260045260246000fd5b6118d780620001dd6000396000f3fe608060405234801561001057600080fd5b50600436106100cf5760003560e01c806340c10f191161008c578063a0712d6811610066578063a0712d6814610228578063a457c2d714610244578063a9059cbb14610274578063dd62ed3e146102a4576100cf565b806340c10f19146101be57806370a08231146101da57806395d89b411461020a576100cf565b806306fdde03146100d4578063095ea7b3146100f257806318160ddd1461012257806323b872dd14610140578063313ce56714610170578063395093511461018e575b600080fd5b6100dc6102d4565b6040516100e99190611122565b60405180910390f35b61010c60048036038101906101079190610ede565b610366565b6040516101199190611107565b60405180910390f35b61012a610384565b6040516101379190611244565b60405180910390f35b61015a60048036038101906101559190610e8f565b61038e565b6040516101679190611107565b60405180910390f35b61017861048f565b604051610185919061125f565b60405180910390f35b6101a860048036038101906101a39190610ede565b610498565b6040516101b59190611107565b60405180910390f35b6101d860048036038101906101d39190610ede565b610544565b005b6101f460048036038101906101ef9190610e2a565b610576565b6040516102019190611244565b60405180910390f35b6102126105be565b60405161021f9190611122565b60405180910390f35b610242600480360381019061023d9190610f1a565b610650565b005b61025e60048036038101906102599190610ede565b610681565b60405161026b9190611107565b60405180910390f35b61028e60048036038101906102899190610ede565b610775565b60405161029b9190611107565b60405180910390f35b6102be60048036038101906102b99190610e53565b610793565b6040516102cb9190611244565b60405180910390f35b6060600380546102e390611573565b80601f016020809104026020016040519081016040528092919081815260200182805461030f90611573565b801561035c5780601f106103315761010080835404028352916020019161035c565b820191906000526020600020905b81548152906001019060200180831161033f57829003601f168201915b5050505050905090565b600061037a61037361081a565b8484610822565b6001905092915050565b6000600254905090565b600061039b8484846109ed565b6000600160008673ffffffffffffffffffffffffffffffffffffffff1673ffffffffffffffffffffffffffffffffffffffff16815260200190815260200160002060006103e661081a565b73ffffffffffffffffffffffffffffffffffffffff1673ffffffffffffffffffffffffffffffffffffffff16815260200190815260200160002054905082811015610466576040517f08c379a000000000000000000000000000000000000000000000000000000000815260040161045d906111a4565b60405180910390fd5b6104838561047261081a565b858461047e91906114b7565b610822565b60019150509392505050565b60006012905090565b600061053a6104a561081a565b8484600160006104b361081a565b73ffffffffffffffffffffffffffffffffffffffff1673ffffffffffffffffffffffffffffffffffffffff16815260200190815260200160002060008873ffffffffffffffffffffffffffffffffffffffff1673ffffffffffffffffffffffffffffffffffffffff168152602001908152602001600020546105359190611296565b610822565b6001905092915050565b600061054e61048f565b600a61055a919061133f565b82610565919061145d565b90506105718382610c6c565b505050565b60008060008373ffffffffffffffffffffffffffffffffffffffff1673ffffffffffffffffffffffffffffffffffffffff168152602001908152602001600020549050919050565b6060600480546105cd90611573565b80601f01602080910402602001604051908101604052809291908181526020018280546105f990611573565b80156106465780601f1061061b57610100808354040283529160200191610646565b820191906000526020600020905b81548152906001019060200180831161062957829003601f168201915b5050505050905090565b600061065a61048f565b600a610666919061133f565b82610671919061145d565b905061067d3382610c6c565b5050565b6000806001600061069061081a565b73ffffffffffffffffffffffffffffffffffffffff1673ffffffffffffffffffffffffffffffffffffffff16815260200190815260200160002060008573ffffffffffffffffffffffffffffffffffffffff1673ffffffffffffffffffffffffffffffffffffffff1681526020019081526020016000205490508281101561074d576040517f08c379a000000000000000000000000000000000000000000000000000000000815260040161074490611204565b60405180910390fd5b61076a61075861081a565b85858461076591906114b7565b610822565b600191505092915050565b600061078961078261081a565b84846109ed565b6001905092915050565b6000600160008473ffffffffffffffffffffffffffffffffffffffff1673ffffffffffffffffffffffffffffffffffffffff16815260200190815260200160002060008373ffffffffffffffffffffffffffffffffffffffff1673ffffffffffffffffffffffffffffffffffffffff16815260200190815260200160002054905092915050565b600033905090565b600073ffffffffffffffffffffffffffffffffffffffff168373ffffffffffffffffffffffffffffffffffffffff161415610892576040517f08c379a0000000000000000000000000000000000000000000000000000000008152600401610889906111e4565b60405180910390fd5b600073ffffffffffffffffffffffffffffffffffffffff168273ffffffffffffffffffffffffffffffffffffffff161415610902576040517f08c379a00000000000000000000000000000000000000000000000000000000081526004016108f990611164565b60405180910390fd5b80600160008573ffffffffffffffffffffffffffffffffffffffff1673ffffffffffffffffffffffffffffffffffffffff16815260200190815260200160002060008473ffffffffffffffffffffffffffffffffffffffff1673ffffffffffffffffffffffffffffffffffffffff168152602001908152602001600020819055508173ffffffffffffffffffffffffffffffffffffffff168373ffffffffffffffffffffffffffffffffffffffff167f8c5be1e5ebec7d5bd14f71427d1e84f3dd0314c0f7b2291e5b200ac8c7c3b925836040516109e09190611244565b60405180910390a3505050565b600073ffffffffffffffffffffffffffffffffffffffff168373ffffffffffffffffffffffffffffffffffffffff161415610a5d576040517f08c379a0000000000000000000000000000000000000000000000000000000008152600401610a54906111c4565b60405180910390fd5b600073ffffffffffffffffffffffffffffffffffffffff168273ffffffffffffffffffffffffffffffffffffffff161415610acd576040517f08c379a0000000000000000000000000000000000000000000000000000000008152600401610ac490611144565b60405180910390fd5b610ad8838383610dc0565b60008060008573ffffffffffffffffffffffffffffffffffffffff1673ffffffffffffffffffffffffffffffffffffffff16815260200190815260200160002054905081811015610b5e576040517f08c379a0000000000000000000000000000000000000000000000000000000008152600401610b5590611184565b60405180910390fd5b8181610b6a91906114b7565b6000808673ffffffffffffffffffffffffffffffffffffffff1673ffffffffffffffffffffffffffffffffffffffff16815260200190815260200160002081905550816000808573ffffffffffffffffffffffffffffffffffffffff1673ffffffffffffffffffffffffffffffffffffffff1681526020019081526020016000206000828254610bfa9190611296565b925050819055508273ffffffffffffffffffffffffffffffffffffffff168473ffffffffffffffffffffffffffffffffffffffff167fddf252ad1be2c89b69c2b068fc378daa952ba7f163c4a11628f55a4df523b3ef84604051610c5e9190611244565b60405180910390a350505050565b600073ffffffffffffffffffffffffffffffffffffffff168273ffffffffffffffffffffffffffffffffffffffff161415610cdc576040517f08c379a0000000000000000000000000000000000000000000000000000000008152600401610cd390611224565b60405180910390fd5b610ce860008383610dc0565b8060026000828254610cfa9190611296565b92505081905550806000808473ffffffffffffffffffffffffffffffffffffffff1673ffffffffffffffffffffffffffffffffffffffff1681526020019081526020016000206000828254610d4f9190611296565b925050819055508173ffffffffffffffffffffffffffffffffffffffff16600073ffffffffffffffffffffffffffffffffffffffff167fddf252ad1be2c89b69c2b068fc378daa952ba7f163c4a11628f55a4df523b3ef83604051610db49190611244565b60405180910390a35050565b7fd0ed88a3f042c6bbb1e3ea406079b5f2b4b198afccaa535d837f4c63abbc4de6838383604051610df3939291906110d0565b60405180910390a1505050565b600081359050610e0f81611873565b92915050565b600081359050610e248161188a565b92915050565b600060208284031215610e3c57600080fd5b6000610e4a84828501610e00565b91505092915050565b60008060408385031215610e6657600080fd5b6000610e7485828601610e00565b9250506020610e8585828601610e00565b9150509250929050565b600080600060608486031215610ea457600080fd5b6000610eb286828701610e00565b9350506020610ec386828701610e00565b9250506040610ed486828701610e15565b9150509250925092565b60008060408385031215610ef157600080fd5b6000610eff85828601610e00565b9250506020610f1085828601610e15565b9150509250929050565b600060208284031215610f2c57600080fd5b6000610f3a84828501610e15565b91505092915050565b610f4c816114eb565b82525050565b610f5b816114fd565b82525050565b6000610f6c8261127a565b610f768185611285565b9350610f86818560208601611540565b610f8f81611603565b840191505092915050565b6000610fa7602383611285565b9150610fb282611621565b604082019050919050565b6000610fca602283611285565b9150610fd582611670565b604082019050919050565b6000610fed602683611285565b9150610ff8826116bf565b604082019050919050565b6000611010602883611285565b915061101b8261170e565b604082019050919050565b6000611033602583611285565b915061103e8261175d565b604082019050919050565b6000611056602483611285565b9150611061826117ac565b604082019050919050565b6000611079602583611285565b9150611084826117fb565b604082019050919050565b600061109c601f83611285565b91506110a78261184a565b602082019050919050565b6110bb81611529565b82525050565b6110ca81611533565b82525050565b60006060820190506110e56000830186610f43565b6110f26020830185610f43565b6110ff60408301846110b2565b949350505050565b600060208201905061111c6000830184610f52565b92915050565b6000602082019050818103600083015261113c8184610f61565b905092915050565b6000602082019050818103600083015261115d81610f9a565b9050919050565b6000602082019050818103600083015261117d81610fbd565b9050919050565b6000602082019050818103600083015261119d81610fe0565b9050919050565b600060208201905081810360008301526111bd81611003565b9050919050565b600060208201905081810360008301526111dd81611026565b9050919050565b600060208201905081810360008301526111fd81611049565b9050919050565b6000602082019050818103600083015261121d8161106c565b9050919050565b6000602082019050818103600083015261123d8161108f565b9050919050565b600060208201905061125960008301846110b2565b92915050565b600060208201905061127460008301846110c1565b92915050565b600081519050919050565b600082825260208201905092915050565b60006112a182611529565b91506112ac83611529565b9250827fffffffffffffffffffffffffffffffffffffffffffffffffffffffffffffffff038211156112e1576112e06115a5565b5b828201905092915050565b6000808291508390505b600185111561133657808604811115611312576113116115a5565b5b60018516156113215780820291505b808102905061132f85611614565b94506112f6565b94509492505050565b600061134a82611529565b915061135583611533565b92506113827fffffffffffffffffffffffffffffffffffffffffffffffffffffffffffffffff848461138a565b905092915050565b60008261139a5760019050611456565b816113a85760009050611456565b81600181146113be57600281146113c8576113f7565b6001915050611456565b60ff8411156113da576113d96115a5565b5b8360020a9150848211156113f1576113f06115a5565b5b50611456565b5060208310610133831016604e8410600b841016171561142c5782820a905083811115611427576114266115a5565b5b611456565b61143984848460016112ec565b925090508184048111156114505761144f6115a5565b5b81810290505b9392505050565b600061146882611529565b915061147383611529565b9250817fffffffffffffffffffffffffffffffffffffffffffffffffffffffffffffffff04831182151516156114ac576114ab6115a5565b5b828202905092915050565b60006114c282611529565b91506114cd83611529565b9250828210156114e0576114df6115a5565b5b828203905092915050565b60006114f682611509565b9050919050565b60008115159050919050565b600073ffffffffffffffffffffffffffffffffffffffff82169050919050565b6000819050919050565b600060ff82169050919050565b60005b8381101561155e578082015181840152602081019050611543565b8381111561156d576000848401525b50505050565b6000600282049050600182168061158b57607f821691505b6020821081141561159f5761159e6115d4565b5b50919050565b7f4e487b7100000000000000000000000000000000000000000000000000000000600052601160045260246000fd5b7f4e487b7100000000000000000000000000000000000000000000000000000000600052602260045260246000fd5b6000601f19601f8301169050919050565b60008160011c9050919050565b7f45524332303a207472616e7366657220746f20746865207a65726f206164647260008201527f6573730000000000000000000000000000000000000000000000000000000000602082015250565b7f45524332303a20617070726f766520746f20746865207a65726f20616464726560008201527f7373000000000000000000000000000000000000000000000000000000000000602082015250565b7f45524332303a207472616e7366657220616d6f756e742065786365656473206260008201527f616c616e63650000000000000000000000000000000000000000000000000000602082015250565b7f45524332303a207472616e7366657220616d6f756e742065786365656473206160008201527f6c6c6f77616e6365000000000000000000000000000000000000000000000000602082015250565b7f45524332303a207472616e736665722066726f6d20746865207a65726f20616460008201527f6472657373000000000000000000000000000000000000000000000000000000602082015250565b7f45524332303a20617070726f76652066726f6d20746865207a65726f2061646460008201527f7265737300000000000000000000000000000000000000000000000000000000602082015250565b7f45524332303a2064656372656173656420616c6c6f77616e63652062656c6f7760008201527f207a65726f000000000000000000000000000000000000000000000000000000602082015250565b7f45524332303a206d696e7420746f20746865207a65726f206164647265737300600082015250565b61187c816114eb565b811461188757600080fd5b50565b61189381611529565b811461189e57600080fd5b5056fea264697066735822122087cffe52c00b4af111ff2a49c9a418ddaad7cb163a4639d8386f7d4f84d28a9464736f6c63430008030033",
  "immutableReferences": {},
  "source": "//SPDX-License-Identifier: MIT\npragma solidity ^0.8.3;\n\nimport \"@openzeppelin/contracts/token/ERC20/ERC20.sol\";\n\n/**\n * @author Jack Proudfoot\n * @dev Implementation of the {IERC20} interface for a mock stablecoin. \n * @notice Should be used only for testing and development.\n *\n */\ncontract Stablecoin is ERC20{\n\n    /**\n     * @dev Creates ERC20 token to act as a mock stablecoin and mints tokens to `_to`\n     */\n    constructor () ERC20(\"Stablecoin\", \"STBL\") {\n       // do nothing\n    }\n\n    event TokenTransfer(address from, address to, uint256 amount);\n\n    /**\n    *  @dev mint `_amount` whole tokens to `_account`\n    */\n    function mint(address _to, uint256 _amount) public {\n        uint256 tokensToMint = _amount * (10 ** decimals());\n        _mint(_to, tokensToMint);\n    }\n\n    /**\n    *  @dev mint `_amount` whole tokens to sender\n    */\n    function mint(uint256 _amount) public {\n        uint256 tokensToMint = _amount * (10 ** decimals());\n        _mint(msg.sender, tokensToMint);\n    }\n\n    function _beforeTokenTransfer(address from, address to, uint256 amount) override internal virtual {\n        TokenTransfer(from, to, amount);\n    }\n}",
  "sourcePath": "/Users/jack/Coursework/blockchain-final-project/contracts/Stablecoin.sol",
  "compiler": {
    "name": "solc",
    "version": "0.8.3+commit.8d00100c.Emscripten.clang"
  },
  "schemaVersion": "3.3.4",
  "updatedAt": "2021-04-22T03:39:51.821Z",
  "networkType": "ethereum",
  "devdoc": {
    "author": "Jack Proudfoot",
    "details": "Implementation of the {IERC20} interface for a mock stablecoin. ",
    "kind": "dev",
    "methods": {
      "allowance(address,address)": {
        "details": "See {IERC20-allowance}."
      },
      "approve(address,uint256)": {
        "details": "See {IERC20-approve}. Requirements: - `spender` cannot be the zero address."
      },
      "balanceOf(address)": {
        "details": "See {IERC20-balanceOf}."
      },
      "constructor": {
        "details": "Creates ERC20 token to act as a mock stablecoin and mints tokens to `_to`"
      },
      "decimals()": {
        "details": "Returns the number of decimals used to get its user representation. For example, if `decimals` equals `2`, a balance of `505` tokens should be displayed to a user as `5,05` (`505 / 10 ** 2`). Tokens usually opt for a value of 18, imitating the relationship between Ether and Wei. This is the value {ERC20} uses, unless this function is overloaded; NOTE: This information is only used for _display_ purposes: it in no way affects any of the arithmetic of the contract, including {IERC20-balanceOf} and {IERC20-transfer}."
      },
      "decreaseAllowance(address,uint256)": {
        "details": "Atomically decreases the allowance granted to `spender` by the caller. This is an alternative to {approve} that can be used as a mitigation for problems described in {IERC20-approve}. Emits an {Approval} event indicating the updated allowance. Requirements: - `spender` cannot be the zero address. - `spender` must have allowance for the caller of at least `subtractedValue`."
      },
      "increaseAllowance(address,uint256)": {
        "details": "Atomically increases the allowance granted to `spender` by the caller. This is an alternative to {approve} that can be used as a mitigation for problems described in {IERC20-approve}. Emits an {Approval} event indicating the updated allowance. Requirements: - `spender` cannot be the zero address."
      },
      "mint(address,uint256)": {
        "details": "mint `_amount` whole tokens to `_account`"
      },
      "mint(uint256)": {
        "details": "mint `_amount` whole tokens to sender"
      },
      "name()": {
        "details": "Returns the name of the token."
      },
      "symbol()": {
        "details": "Returns the symbol of the token, usually a shorter version of the name."
      },
      "totalSupply()": {
        "details": "See {IERC20-totalSupply}."
      },
      "transfer(address,uint256)": {
        "details": "See {IERC20-transfer}. Requirements: - `recipient` cannot be the zero address. - the caller must have a balance of at least `amount`."
      },
      "transferFrom(address,address,uint256)": {
        "details": "See {IERC20-transferFrom}. Emits an {Approval} event indicating the updated allowance. This is not required by the EIP. See the note at the beginning of {ERC20}. Requirements: - `sender` and `recipient` cannot be the zero address. - `sender` must have a balance of at least `amount`. - the caller must have allowance for ``sender``'s tokens of at least `amount`."
      }
    },
    "version": 1
  },
  "userdoc": {
    "kind": "user",
    "methods": {},
    "notice": "Should be used only for testing and development.",
    "version": 1
  }
}