{
  "contractName": "Wallet",
  "abi": [
    {
      "inputs": [
        {
          "internalType": "address",
          "name": "stablecoinAddress_",
          "type": "address"
        }
      ],
      "stateMutability": "nonpayable",
      "type": "constructor"
    },
    {
      "anonymous": false,
      "inputs": [
        {
          "indexed": true,
          "internalType": "bytes32",
          "name": "role",
          "type": "bytes32"
        },
        {
          "indexed": true,
          "internalType": "bytes32",
          "name": "previousAdminRole",
          "type": "bytes32"
        },
        {
          "indexed": true,
          "internalType": "bytes32",
          "name": "newAdminRole",
          "type": "bytes32"
        }
      ],
      "name": "RoleAdminChanged",
      "type": "event"
    },
    {
      "anonymous": false,
      "inputs": [
        {
          "indexed": true,
          "internalType": "bytes32",
          "name": "role",
          "type": "bytes32"
        },
        {
          "indexed": true,
          "internalType": "address",
          "name": "account",
          "type": "address"
        },
        {
          "indexed": true,
          "internalType": "address",
          "name": "sender",
          "type": "address"
        }
      ],
      "name": "RoleGranted",
      "type": "event"
    },
    {
      "anonymous": false,
      "inputs": [
        {
          "indexed": true,
          "internalType": "bytes32",
          "name": "role",
          "type": "bytes32"
        },
        {
          "indexed": true,
          "internalType": "address",
          "name": "account",
          "type": "address"
        },
        {
          "indexed": true,
          "internalType": "address",
          "name": "sender",
          "type": "address"
        }
      ],
      "name": "RoleRevoked",
      "type": "event"
    },
    {
      "inputs": [],
      "name": "DEFAULT_ADMIN_ROLE",
      "outputs": [
        {
          "internalType": "bytes32",
          "name": "",
          "type": "bytes32"
        }
      ],
      "stateMutability": "view",
      "type": "function",
      "constant": true
    },
    {
      "inputs": [],
      "name": "SPENDER_ROLE",
      "outputs": [
        {
          "internalType": "bytes32",
          "name": "",
          "type": "bytes32"
        }
      ],
      "stateMutability": "view",
      "type": "function",
      "constant": true
    },
    {
      "inputs": [],
      "name": "STABLECOIN_ALLOCATOR_ROLE",
      "outputs": [
        {
          "internalType": "bytes32",
          "name": "",
          "type": "bytes32"
        }
      ],
      "stateMutability": "view",
      "type": "function",
      "constant": true
    },
    {
      "inputs": [
        {
          "internalType": "bytes32",
          "name": "role",
          "type": "bytes32"
        }
      ],
      "name": "getRoleAdmin",
      "outputs": [
        {
          "internalType": "bytes32",
          "name": "",
          "type": "bytes32"
        }
      ],
      "stateMutability": "view",
      "type": "function",
      "constant": true
    },
    {
      "inputs": [
        {
          "internalType": "bytes32",
          "name": "role",
          "type": "bytes32"
        },
        {
          "internalType": "address",
          "name": "account",
          "type": "address"
        }
      ],
      "name": "grantRole",
      "outputs": [],
      "stateMutability": "nonpayable",
      "type": "function"
    },
    {
      "inputs": [
        {
          "internalType": "bytes32",
          "name": "role",
          "type": "bytes32"
        },
        {
          "internalType": "address",
          "name": "account",
          "type": "address"
        }
      ],
      "name": "hasRole",
      "outputs": [
        {
          "internalType": "bool",
          "name": "",
          "type": "bool"
        }
      ],
      "stateMutability": "view",
      "type": "function",
      "constant": true
    },
    {
      "inputs": [
        {
          "internalType": "bytes32",
          "name": "role",
          "type": "bytes32"
        },
        {
          "internalType": "address",
          "name": "account",
          "type": "address"
        }
      ],
      "name": "renounceRole",
      "outputs": [],
      "stateMutability": "nonpayable",
      "type": "function"
    },
    {
      "inputs": [
        {
          "internalType": "bytes32",
          "name": "role",
          "type": "bytes32"
        },
        {
          "internalType": "address",
          "name": "account",
          "type": "address"
        }
      ],
      "name": "revokeRole",
      "outputs": [],
      "stateMutability": "nonpayable",
      "type": "function"
    },
    {
      "inputs": [
        {
          "internalType": "bytes4",
          "name": "interfaceId",
          "type": "bytes4"
        }
      ],
      "name": "supportsInterface",
      "outputs": [
        {
          "internalType": "bool",
          "name": "",
          "type": "bool"
        }
      ],
      "stateMutability": "view",
      "type": "function",
      "constant": true
    },
    {
      "inputs": [
        {
          "internalType": "address",
          "name": "_to",
          "type": "address"
        },
        {
          "internalType": "uint256",
          "name": "_amount",
          "type": "uint256"
        }
      ],
      "name": "allocateStablecoins",
      "outputs": [],
      "stateMutability": "nonpayable",
      "type": "function"
    },
    {
      "inputs": [
        {
          "internalType": "address",
          "name": "_lender",
          "type": "address"
        }
      ],
      "name": "claimStablecoinBalance",
      "outputs": [],
      "stateMutability": "nonpayable",
      "type": "function"
    },
    {
      "inputs": [
        {
          "internalType": "address",
          "name": "_to",
          "type": "address"
        },
        {
          "internalType": "uint256",
          "name": "_amount",
          "type": "uint256"
        },
        {
          "internalType": "address",
          "name": "_tokenContract",
          "type": "address"
        }
      ],
      "name": "transfer",
      "outputs": [],
      "stateMutability": "nonpayable",
      "type": "function"
    },
    {
      "inputs": [
        {
          "internalType": "address payable",
          "name": "wallet",
          "type": "address"
        }
      ],
      "name": "withdrawEther",
      "outputs": [],
      "stateMutability": "nonpayable",
      "type": "function"
    },
    {
      "inputs": [
        {
          "internalType": "address",
          "name": "_lender",
          "type": "address"
        }
      ],
      "name": "unclaimedBalanceOf",
      "outputs": [
        {
          "internalType": "uint256",
          "name": "",
          "type": "uint256"
        }
      ],
      "stateMutability": "view",
      "type": "function",
      "constant": true
    }
  ],
  "bytecode": "0x60806040523480156200001157600080fd5b50604051620017b6380380620017b6833981810160405281019062000037919062000256565b80600160006101000a81548173ffffffffffffffffffffffffffffffffffffffff021916908373ffffffffffffffffffffffffffffffffffffffff1602179055506200008d6000801b33620000c660201b60201c565b620000bf7f5350454e4445520000000000000000000000000000000000000000000000000033620000c660201b60201c565b50620002d0565b620000d88282620000dc60201b60201c565b5050565b620000ee8282620001cd60201b60201c565b620001c957600160008084815260200190815260200160002060000160008373ffffffffffffffffffffffffffffffffffffffff1673ffffffffffffffffffffffffffffffffffffffff16815260200190815260200160002060006101000a81548160ff0219169083151502179055506200016e6200023760201b60201c565b73ffffffffffffffffffffffffffffffffffffffff168173ffffffffffffffffffffffffffffffffffffffff16837f2f8788117e7eff1d82e926ec794901d17c78024a50270940304540a733656f0d60405160405180910390a45b5050565b600080600084815260200190815260200160002060000160008373ffffffffffffffffffffffffffffffffffffffff1673ffffffffffffffffffffffffffffffffffffffff16815260200190815260200160002060009054906101000a900460ff16905092915050565b600033905090565b6000815190506200025081620002b6565b92915050565b6000602082840312156200026957600080fd5b600062000279848285016200023f565b91505092915050565b60006200028f8262000296565b9050919050565b600073ffffffffffffffffffffffffffffffffffffffff82169050919050565b620002c18162000282565b8114620002cd57600080fd5b50565b6114d680620002e06000396000f3fe608060405234801561001057600080fd5b50600436106100ea5760003560e01c806372c16a241161008c578063a217fddf11610066578063a217fddf1461025b578063af933b5714610279578063d547741f14610295578063dbba0f01146102b1576100ea565b806372c16a24146101f157806391d148541461020f578063959e94df1461023f576100ea565b80632592b5ad116100c85780632592b5ad1461017f5780632f2ff15d1461019b57806336568abe146101b757806363b71d13146101d3576100ea565b806301ffc9a7146100ef57806318c0484a1461011f578063248a9ca31461014f575b600080fd5b61010960048036038101906101049190610ded565b6102cd565b6040516101169190610f70565b60405180910390f35b61013960048036038101906101349190610c82565b610347565b6040516101469190611086565b60405180910390f35b61016960048036038101906101649190610d88565b610390565b6040516101769190610f8b565b60405180910390f35b61019960048036038101906101949190610c82565b6103af565b005b6101b560048036038101906101b09190610db1565b61056e565b005b6101d160048036038101906101cc9190610db1565b6105d4565b005b6101db610657565b6040516101e89190610f8b565b60405180910390f35b6101f961067b565b6040516102069190610f8b565b60405180910390f35b61022960048036038101906102249190610db1565b61069f565b6040516102369190610f70565b60405180910390f35b61025960048036038101906102549190610cd4565b610709565b005b6102636107cc565b6040516102709190610f8b565b60405180910390f35b610293600480360381019061028e9190610cab565b6107d3565b005b6102af60048036038101906102aa9190610db1565b610869565b005b6102cb60048036038101906102c69190610d10565b6108cf565b005b60007f7965db0b000000000000000000000000000000000000000000000000000000007bffffffffffffffffffffffffffffffffffffffffffffffffffffffff1916827bffffffffffffffffffffffffffffffffffffffffffffffffffffffff19161480610340575061033f826109d1565b5b9050919050565b6000600260008373ffffffffffffffffffffffffffffffffffffffff1673ffffffffffffffffffffffffffffffffffffffff168152602001908152602001600020549050919050565b6000806000838152602001908152602001600020600101549050919050565b6000600260008373ffffffffffffffffffffffffffffffffffffffff1673ffffffffffffffffffffffffffffffffffffffff1681526020019081526020016000205411610431576040517f08c379a000000000000000000000000000000000000000000000000000000000815260040161042890611026565b60405180910390fd5b6000600160009054906101000a900473ffffffffffffffffffffffffffffffffffffffff1690508073ffffffffffffffffffffffffffffffffffffffff1663a9059cbb83600260008673ffffffffffffffffffffffffffffffffffffffff1673ffffffffffffffffffffffffffffffffffffffff168152602001908152602001600020546040518363ffffffff1660e01b81526004016104d2929190610f47565b602060405180830381600087803b1580156104ec57600080fd5b505af1158015610500573d6000803e3d6000fd5b505050506040513d601f19601f820116820180604052508101906105249190610d5f565b506000600260008473ffffffffffffffffffffffffffffffffffffffff1673ffffffffffffffffffffffffffffffffffffffff168152602001908152602001600020819055505050565b61058761057a83610390565b610582610a3b565b61069f565b6105c6576040517f08c379a00000000000000000000000000000000000000000000000000000000081526004016105bd90610fa6565b60405180910390fd5b6105d08282610a43565b5050565b6105dc610a3b565b73ffffffffffffffffffffffffffffffffffffffff168173ffffffffffffffffffffffffffffffffffffffff1614610649576040517f08c379a000000000000000000000000000000000000000000000000000000000815260040161064090611066565b60405180910390fd5b6106538282610b23565b5050565b7f535441424c45434f494e5f414c4c4f4341544f5200000000000000000000000081565b7f5350454e4445520000000000000000000000000000000000000000000000000081565b600080600084815260200190815260200160002060000160008373ffffffffffffffffffffffffffffffffffffffff1673ffffffffffffffffffffffffffffffffffffffff16815260200190815260200160002060009054906101000a900460ff16905092915050565b6107337f535441424c45434f494e5f414c4c4f4341544f520000000000000000000000003361069f565b610772576040517f08c379a000000000000000000000000000000000000000000000000000000000815260040161076990611046565b60405180910390fd5b80600260008473ffffffffffffffffffffffffffffffffffffffff1673ffffffffffffffffffffffffffffffffffffffff16815260200190815260200160002060008282546107c191906110b2565b925050819055505050565b6000801b81565b6107e06000801b3361069f565b61081f576040517f08c379a000000000000000000000000000000000000000000000000000000000815260040161081690610fc6565b60405180910390fd5b8073ffffffffffffffffffffffffffffffffffffffff166108fc479081150290604051600060405180830381858888f19350505050158015610865573d6000803e3d6000fd5b5050565b61088261087583610390565b61087d610a3b565b61069f565b6108c1576040517f08c379a00000000000000000000000000000000000000000000000000000000081526004016108b890611006565b60405180910390fd5b6108cb8282610b23565b5050565b6108f97f5350454e444552000000000000000000000000000000000000000000000000003361069f565b610938576040517f08c379a000000000000000000000000000000000000000000000000000000000815260040161092f90610fe6565b60405180910390fd5b60008190508073ffffffffffffffffffffffffffffffffffffffff1663a9059cbb85856040518363ffffffff1660e01b8152600401610978929190610f47565b602060405180830381600087803b15801561099257600080fd5b505af11580156109a6573d6000803e3d6000fd5b505050506040513d601f19601f820116820180604052508101906109ca9190610d5f565b5050505050565b60007f01ffc9a7000000000000000000000000000000000000000000000000000000007bffffffffffffffffffffffffffffffffffffffffffffffffffffffff1916827bffffffffffffffffffffffffffffffffffffffffffffffffffffffff1916149050919050565b600033905090565b610a4d828261069f565b610b1f57600160008084815260200190815260200160002060000160008373ffffffffffffffffffffffffffffffffffffffff1673ffffffffffffffffffffffffffffffffffffffff16815260200190815260200160002060006101000a81548160ff021916908315150217905550610ac4610a3b565b73ffffffffffffffffffffffffffffffffffffffff168173ffffffffffffffffffffffffffffffffffffffff16837f2f8788117e7eff1d82e926ec794901d17c78024a50270940304540a733656f0d60405160405180910390a45b5050565b610b2d828261069f565b15610c0057600080600084815260200190815260200160002060000160008373ffffffffffffffffffffffffffffffffffffffff1673ffffffffffffffffffffffffffffffffffffffff16815260200190815260200160002060006101000a81548160ff021916908315150217905550610ba5610a3b565b73ffffffffffffffffffffffffffffffffffffffff168173ffffffffffffffffffffffffffffffffffffffff16837ff6391f5c32d9c69d2a47ea670b442974b53935d1edc7fd64eb21e047a839171b60405160405180910390a45b5050565b600081359050610c1381611416565b92915050565b600081359050610c288161142d565b92915050565b600081519050610c3d81611444565b92915050565b600081359050610c528161145b565b92915050565b600081359050610c6781611472565b92915050565b600081359050610c7c81611489565b92915050565b600060208284031215610c9457600080fd5b6000610ca284828501610c04565b91505092915050565b600060208284031215610cbd57600080fd5b6000610ccb84828501610c19565b91505092915050565b60008060408385031215610ce757600080fd5b6000610cf585828601610c04565b9250506020610d0685828601610c6d565b9150509250929050565b600080600060608486031215610d2557600080fd5b6000610d3386828701610c04565b9350506020610d4486828701610c6d565b9250506040610d5586828701610c04565b9150509250925092565b600060208284031215610d7157600080fd5b6000610d7f84828501610c2e565b91505092915050565b600060208284031215610d9a57600080fd5b6000610da884828501610c43565b91505092915050565b60008060408385031215610dc457600080fd5b6000610dd285828601610c43565b9250506020610de385828601610c04565b9150509250929050565b600060208284031215610dff57600080fd5b6000610e0d84828501610c58565b91505092915050565b610e1f81611108565b82525050565b610e2e8161112c565b82525050565b610e3d81611138565b82525050565b6000610e50602f836110a1565b9150610e5b826111c7565b604082019050919050565b6000610e73604c836110a1565b9150610e7e82611216565b606082019050919050565b6000610e96602b836110a1565b9150610ea18261128b565b604082019050919050565b6000610eb96030836110a1565b9150610ec4826112da565b604082019050919050565b6000610edc6033836110a1565b9150610ee782611329565b604082019050919050565b6000610eff6038836110a1565b9150610f0a82611378565b604082019050919050565b6000610f22602f836110a1565b9150610f2d826113c7565b604082019050919050565b610f418161118e565b82525050565b6000604082019050610f5c6000830185610e16565b610f696020830184610f38565b9392505050565b6000602082019050610f856000830184610e25565b92915050565b6000602082019050610fa06000830184610e34565b92915050565b60006020820190508181036000830152610fbf81610e43565b9050919050565b60006020820190508181036000830152610fdf81610e66565b9050919050565b60006020820190508181036000830152610fff81610e89565b9050919050565b6000602082019050818103600083015261101f81610eac565b9050919050565b6000602082019050818103600083015261103f81610ecf565b9050919050565b6000602082019050818103600083015261105f81610ef2565b9050919050565b6000602082019050818103600083015261107f81610f15565b9050919050565b600060208201905061109b6000830184610f38565b92915050565b600082825260208201905092915050565b60006110bd8261118e565b91506110c88361118e565b9250827fffffffffffffffffffffffffffffffffffffffffffffffffffffffffffffffff038211156110fd576110fc611198565b5b828201905092915050565b60006111138261116e565b9050919050565b60006111258261116e565b9050919050565b60008115159050919050565b6000819050919050565b60007fffffffff0000000000000000000000000000000000000000000000000000000082169050919050565b600073ffffffffffffffffffffffffffffffffffffffff82169050919050565b6000819050919050565b7f4e487b7100000000000000000000000000000000000000000000000000000000600052601160045260246000fd5b7f416363657373436f6e74726f6c3a2073656e646572206d75737420626520616e60008201527f2061646d696e20746f206772616e740000000000000000000000000000000000602082015250565b7f57616c6c65743a2073656e64657220646f6573206e6f7420706f73736573204460008201527f454641554c545f41444d494e5f524f4c4520726571756972656420746f20747260208201527f616e736665722065746865720000000000000000000000000000000000000000604082015250565b7f57616c6c65743a2073656e64657220646f6573206e6f7420706f73736573205360008201527f50454e44455220726f6c65000000000000000000000000000000000000000000602082015250565b7f416363657373436f6e74726f6c3a2073656e646572206d75737420626520616e60008201527f2061646d696e20746f207265766f6b6500000000000000000000000000000000602082015250565b7f57616c6c65743a20537461626c65636f696e2062616c616e636520666f72207460008201527f686174206163636f756e74206973207a65726f00000000000000000000000000602082015250565b7f57616c6c65743a2073656e64657220646f6573206e6f7420706f73736573205360008201527f5441424c45434f494e5f414c4c4f4341544f5220726f6c650000000000000000602082015250565b7f416363657373436f6e74726f6c3a2063616e206f6e6c792072656e6f756e636560008201527f20726f6c657320666f722073656c660000000000000000000000000000000000602082015250565b61141f81611108565b811461142a57600080fd5b50565b6114368161111a565b811461144157600080fd5b50565b61144d8161112c565b811461145857600080fd5b50565b61146481611138565b811461146f57600080fd5b50565b61147b81611142565b811461148657600080fd5b50565b6114928161118e565b811461149d57600080fd5b5056fea26469706673582212209d2cce4ddc8c87a0bbf266b8c72fd5dc39f9d4d81609d190dbf667ef4dae764064736f6c63430008030033",
  "immutableReferences": {},
  "source": "//SPDX-License-Identifier: MIT\npragma solidity ^0.8.3;\n\nimport \"@openzeppelin/contracts/access/AccessControl.sol\";\n\nimport \"@openzeppelin/contracts/token/ERC20/IERC20.sol\";\n\n/**\n * @author Jack Proudfoot\n * @dev Wallet smart contract that tracks unclaimed balances.  Uses access control to allow multiple smart contracts to transfer wallets funds.\n *\n */\ncontract Wallet is AccessControl{\n\n    bytes32 public constant SPENDER_ROLE = \"SPENDER\";\n    bytes32 public constant STABLECOIN_ALLOCATOR_ROLE = \"STABLECOIN_ALLOCATOR\";\n\n    address private _stablecoinAddress;\n\n    mapping (address => uint256) private _unclaimedStablecoinBalance;\n\n    /**\n    * @dev Creates role bindings for SPENDER_ROLE\n    */\n    constructor (address stablecoinAddress_) {\n        _stablecoinAddress = stablecoinAddress_;\n\n        _setupRole(DEFAULT_ADMIN_ROLE, msg.sender);\n        _setupRole(SPENDER_ROLE, msg.sender);\n    }\n\n\n    /**\n    * @dev Allocates `amount` stablecoins to `to`\n    */\n    function allocateStablecoins(address _to, uint256 _amount) public {\n        require(hasRole(STABLECOIN_ALLOCATOR_ROLE, msg.sender), \"Wallet: sender does not posses STABLECOIN_ALLOCATOR role\");\n\n        _unclaimedStablecoinBalance[_to] += _amount;\n    }\n\n    /**\n    * @dev Claim any stablecoin balance earned by Decent Loan Tokens\n    */\n    function claimStablecoinBalance(address _lender) public {\n        require(_unclaimedStablecoinBalance[_lender] > 0, \"Wallet: Stablecoin balance for that account is zero\");\n\n        IERC20 stablecoin = IERC20(_stablecoinAddress);\n        stablecoin.transfer(_lender, _unclaimedStablecoinBalance[_lender]);\n\n        _unclaimedStablecoinBalance[_lender] = 0;\n    }\n\n    /**\n    * @dev Used by smart contracts to transfer `_value` of token with contract `_tokenContract` to address `_to`\n    */\n    function transfer(address _to, uint256 _amount, address _tokenContract) public {\n        require(hasRole(SPENDER_ROLE, msg.sender), \"Wallet: sender does not posses SPENDER role\");\n\n        IERC20 token = IERC20(_tokenContract);\n\n        token.transfer(_to, _amount);\n    }\n\n    /**\n    * @dev Withdraws all ether in the smart contract to `wallet`\n    */\n    function withdrawEther(address payable wallet) public {\n        require(hasRole(DEFAULT_ADMIN_ROLE, msg.sender), \"Wallet: sender does not posses DEFAULT_ADMIN_ROLE required to transfer ether\");\n\n        wallet.transfer(address(this).balance);\n    }\n\n    /**\n    * @dev Get the current unclaimed stablecoin balance \n    */\n    function unclaimedBalanceOf(address _lender) public view returns (uint256) {\n        return _unclaimedStablecoinBalance[_lender];\n    }\n}",
  "sourcePath": "/Users/jack/Coursework/blockchain-final-project/contracts/Wallet.sol",
  "compiler": {
    "name": "solc",
    "version": "0.8.3+commit.8d00100c.Emscripten.clang"
  },
  "schemaVersion": "3.3.4",
  "updatedAt": "2021-04-22T01:01:26.400Z",
  "networkType": "ethereum",
  "devdoc": {
    "author": "Jack Proudfoot",
    "details": "Wallet smart contract that tracks unclaimed balances.  Uses access control to allow multiple smart contracts to transfer wallets funds.",
    "kind": "dev",
    "methods": {
      "allocateStablecoins(address,uint256)": {
        "details": "Allocates `amount` stablecoins to `to`"
      },
      "claimStablecoinBalance(address)": {
        "details": "Claim any stablecoin balance earned by Decent Loan Tokens"
      },
      "constructor": {
        "details": "Creates role bindings for SPENDER_ROLE"
      },
      "getRoleAdmin(bytes32)": {
        "details": "Returns the admin role that controls `role`. See {grantRole} and {revokeRole}. To change a role's admin, use {_setRoleAdmin}."
      },
      "grantRole(bytes32,address)": {
        "details": "Grants `role` to `account`. If `account` had not been already granted `role`, emits a {RoleGranted} event. Requirements: - the caller must have ``role``'s admin role."
      },
      "hasRole(bytes32,address)": {
        "details": "Returns `true` if `account` has been granted `role`."
      },
      "renounceRole(bytes32,address)": {
        "details": "Revokes `role` from the calling account. Roles are often managed via {grantRole} and {revokeRole}: this function's purpose is to provide a mechanism for accounts to lose their privileges if they are compromised (such as when a trusted device is misplaced). If the calling account had been granted `role`, emits a {RoleRevoked} event. Requirements: - the caller must be `account`."
      },
      "revokeRole(bytes32,address)": {
        "details": "Revokes `role` from `account`. If `account` had been granted `role`, emits a {RoleRevoked} event. Requirements: - the caller must have ``role``'s admin role."
      },
      "supportsInterface(bytes4)": {
        "details": "See {IERC165-supportsInterface}."
      },
      "transfer(address,uint256,address)": {
        "details": "Used by smart contracts to transfer `_value` of token with contract `_tokenContract` to address `_to`"
      },
      "unclaimedBalanceOf(address)": {
        "details": "Get the current unclaimed stablecoin balance "
      },
      "withdrawEther(address)": {
        "details": "Withdraws all ether in the smart contract to `wallet`"
      }
    },
    "version": 1
  },
  "userdoc": {
    "kind": "user",
    "methods": {},
    "version": 1
  }
}